{
  "_format": "hh-sol-artifact-1",
  "contractName": "NFTMarketplace",
  "sourceName": "contracts/NFTMarketplace.sol",
  "abi": [
    {
      "inputs": [],
      "stateMutability": "nonpayable",
      "type": "constructor"
    },
    {
      "anonymous": false,
      "inputs": [
        {
          "indexed": true,
          "internalType": "address",
          "name": "owner",
          "type": "address"
        },
        {
          "indexed": true,
          "internalType": "address",
          "name": "approved",
          "type": "address"
        },
        {
          "indexed": true,
          "internalType": "uint256",
          "name": "tokenId",
          "type": "uint256"
        }
      ],
      "name": "Approval",
      "type": "event"
    },
    {
      "anonymous": false,
      "inputs": [
        {
          "indexed": true,
          "internalType": "address",
          "name": "owner",
          "type": "address"
        },
        {
          "indexed": true,
          "internalType": "address",
          "name": "operator",
          "type": "address"
        },
        {
          "indexed": false,
          "internalType": "bool",
          "name": "approved",
          "type": "bool"
        }
      ],
      "name": "ApprovalForAll",
      "type": "event"
    },
    {
      "anonymous": false,
      "inputs": [
        {
          "indexed": false,
          "internalType": "uint256",
          "name": "_fromTokenId",
          "type": "uint256"
        },
        {
          "indexed": false,
          "internalType": "uint256",
          "name": "_toTokenId",
          "type": "uint256"
        }
      ],
      "name": "BatchMetadataUpdate",
      "type": "event"
    },
    {
      "anonymous": false,
      "inputs": [
        {
          "indexed": false,
          "internalType": "uint256",
          "name": "newListingPrice",
          "type": "uint256"
        },
        {
          "indexed": false,
          "internalType": "uint256",
          "name": "NewTransferFee",
          "type": "uint256"
        }
      ],
      "name": "FeesUpdated",
      "type": "event"
    },
    {
      "anonymous": false,
      "inputs": [
        {
          "indexed": true,
          "internalType": "uint256",
          "name": "tokenId",
          "type": "uint256"
        },
        {
          "indexed": false,
          "internalType": "address",
          "name": "seller",
          "type": "address"
        },
        {
          "indexed": false,
          "internalType": "address",
          "name": "owner",
          "type": "address"
        },
        {
          "indexed": false,
          "internalType": "address",
          "name": "creator",
          "type": "address"
        },
        {
          "indexed": false,
          "internalType": "uint256",
          "name": "price",
          "type": "uint256"
        },
        {
          "indexed": false,
          "internalType": "uint256",
          "name": "royaltyPercentage",
          "type": "uint256"
        },
        {
          "indexed": false,
          "internalType": "bool",
          "name": "sold",
          "type": "bool"
        },
        {
          "indexed": false,
          "internalType": "uint256",
          "name": "batchNumber",
          "type": "uint256"
        }
      ],
      "name": "MarketItemCreated",
      "type": "event"
    },
    {
      "anonymous": false,
      "inputs": [
        {
          "indexed": false,
          "internalType": "uint256",
          "name": "_tokenId",
          "type": "uint256"
        }
      ],
      "name": "MetadataUpdate",
      "type": "event"
    },
    {
      "anonymous": false,
      "inputs": [
        {
          "indexed": false,
          "internalType": "uint256[]",
          "name": "tokenIds",
          "type": "uint256[]"
        },
        {
          "indexed": true,
          "internalType": "address",
          "name": "creator",
          "type": "address"
        },
        {
          "indexed": false,
          "internalType": "uint256",
          "name": "quantity",
          "type": "uint256"
        },
        {
          "indexed": false,
          "internalType": "uint256",
          "name": "royaltyPercentage",
          "type": "uint256"
        },
        {
          "indexed": false,
          "internalType": "uint256",
          "name": "batchNumber",
          "type": "uint256"
        },
        {
          "indexed": false,
          "internalType": "uint256[]",
          "name": "batchSpecificIds",
          "type": "uint256[]"
        }
      ],
      "name": "NewTokensCreated",
      "type": "event"
    },
    {
      "anonymous": false,
      "inputs": [
        {
          "indexed": false,
          "internalType": "uint256",
          "name": "tokenId",
          "type": "uint256"
        },
        {
          "indexed": false,
          "internalType": "address",
          "name": "creator",
          "type": "address"
        },
        {
          "indexed": false,
          "internalType": "uint256",
          "name": "royaltyAmount",
          "type": "uint256"
        }
      ],
      "name": "RoyaltyPaid",
      "type": "event"
    },
    {
      "anonymous": false,
      "inputs": [
        {
          "indexed": true,
          "internalType": "address",
          "name": "from",
          "type": "address"
        },
        {
          "indexed": true,
          "internalType": "address",
          "name": "to",
          "type": "address"
        },
        {
          "indexed": true,
          "internalType": "uint256",
          "name": "tokenId",
          "type": "uint256"
        }
      ],
      "name": "Transfer",
      "type": "event"
    },
    {
      "inputs": [
        {
          "internalType": "address",
          "name": "to",
          "type": "address"
        },
        {
          "internalType": "uint256",
          "name": "tokenId",
          "type": "uint256"
        }
      ],
      "name": "approve",
      "outputs": [],
      "stateMutability": "nonpayable",
      "type": "function"
    },
    {
      "inputs": [
        {
          "internalType": "address",
          "name": "owner",
          "type": "address"
        }
      ],
      "name": "balanceOf",
      "outputs": [
        {
          "internalType": "uint256",
          "name": "",
          "type": "uint256"
        }
      ],
      "stateMutability": "view",
      "type": "function"
    },
    {
      "inputs": [
        {
          "internalType": "uint256",
          "name": "amount",
          "type": "uint256"
        }
      ],
      "name": "clearCache",
      "outputs": [],
      "stateMutability": "nonpayable",
      "type": "function"
    },
    {
      "inputs": [
        {
          "internalType": "uint256",
          "name": "tokenId",
          "type": "uint256"
        }
      ],
      "name": "createMarketSale",
      "outputs": [],
      "stateMutability": "payable",
      "type": "function"
    },
    {
      "inputs": [
        {
          "internalType": "string",
          "name": "tokenURI",
          "type": "string"
        },
        {
          "internalType": "uint256",
          "name": "price",
          "type": "uint256"
        },
        {
          "internalType": "uint256",
          "name": "royaltyPercentage",
          "type": "uint256"
        },
        {
          "internalType": "uint256",
          "name": "quantity",
          "type": "uint256"
        }
      ],
      "name": "createToken",
      "outputs": [
        {
          "internalType": "uint256[]",
          "name": "",
          "type": "uint256[]"
        }
      ],
      "stateMutability": "payable",
      "type": "function"
    },
    {
      "inputs": [
        {
          "internalType": "uint256[]",
          "name": "tokenIds",
          "type": "uint256[]"
        }
      ],
      "name": "delistTokens",
      "outputs": [],
      "stateMutability": "payable",
      "type": "function"
    },
    {
      "inputs": [],
      "name": "fetchItemsListed",
      "outputs": [
        {
          "components": [
            {
              "internalType": "uint256",
              "name": "tokenId",
              "type": "uint256"
            },
            {
              "internalType": "address payable",
              "name": "seller",
              "type": "address"
            },
            {
              "internalType": "address payable",
              "name": "owner",
              "type": "address"
            },
            {
              "internalType": "address",
              "name": "creator",
              "type": "address"
            },
            {
              "internalType": "uint256",
              "name": "price",
              "type": "uint256"
            },
            {
              "internalType": "uint256",
              "name": "royaltyPercentage",
              "type": "uint256"
            },
            {
              "internalType": "bool",
              "name": "sold",
              "type": "bool"
            },
            {
              "internalType": "uint256",
              "name": "batchNumber",
              "type": "uint256"
            },
            {
              "internalType": "uint256",
              "name": "batchSpecificId",
              "type": "uint256"
            }
          ],
          "internalType": "struct NFTMarketplace.MarketItem[]",
          "name": "",
          "type": "tuple[]"
        }
      ],
      "stateMutability": "view",
      "type": "function"
    },
    {
      "inputs": [],
      "name": "fetchMarketItems",
      "outputs": [
        {
          "components": [
            {
              "internalType": "uint256",
              "name": "tokenId",
              "type": "uint256"
            },
            {
              "internalType": "address payable",
              "name": "seller",
              "type": "address"
            },
            {
              "internalType": "address payable",
              "name": "owner",
              "type": "address"
            },
            {
              "internalType": "address",
              "name": "creator",
              "type": "address"
            },
            {
              "internalType": "uint256",
              "name": "price",
              "type": "uint256"
            },
            {
              "internalType": "uint256",
              "name": "royaltyPercentage",
              "type": "uint256"
            },
            {
              "internalType": "bool",
              "name": "sold",
              "type": "bool"
            },
            {
              "internalType": "uint256",
              "name": "batchNumber",
              "type": "uint256"
            },
            {
              "internalType": "uint256",
              "name": "batchSpecificId",
              "type": "uint256"
            }
          ],
          "internalType": "struct NFTMarketplace.MarketItem[]",
          "name": "",
          "type": "tuple[]"
        }
      ],
      "stateMutability": "view",
      "type": "function"
    },
    {
      "inputs": [],
      "name": "fetchMyNFTs",
      "outputs": [
        {
          "components": [
            {
              "internalType": "uint256",
              "name": "tokenId",
              "type": "uint256"
            },
            {
              "internalType": "address payable",
              "name": "seller",
              "type": "address"
            },
            {
              "internalType": "address payable",
              "name": "owner",
              "type": "address"
            },
            {
              "internalType": "address",
              "name": "creator",
              "type": "address"
            },
            {
              "internalType": "uint256",
              "name": "price",
              "type": "uint256"
            },
            {
              "internalType": "uint256",
              "name": "royaltyPercentage",
              "type": "uint256"
            },
            {
              "internalType": "bool",
              "name": "sold",
              "type": "bool"
            },
            {
              "internalType": "uint256",
              "name": "batchNumber",
              "type": "uint256"
            },
            {
              "internalType": "uint256",
              "name": "batchSpecificId",
              "type": "uint256"
            }
          ],
          "internalType": "struct NFTMarketplace.MarketItem[]",
          "name": "",
          "type": "tuple[]"
        }
      ],
      "stateMutability": "view",
      "type": "function"
    },
    {
      "inputs": [
        {
          "internalType": "uint256",
          "name": "tokenId",
          "type": "uint256"
        }
      ],
      "name": "getApproved",
      "outputs": [
        {
          "internalType": "address",
          "name": "",
          "type": "address"
        }
      ],
      "stateMutability": "view",
      "type": "function"
    },
    {
      "inputs": [
        {
          "internalType": "uint256",
          "name": "tokenId",
          "type": "uint256"
        }
      ],
      "name": "getBatchNumber",
      "outputs": [
        {
          "internalType": "uint256",
          "name": "",
          "type": "uint256"
        }
      ],
      "stateMutability": "view",
      "type": "function"
    },
    {
      "inputs": [
        {
          "internalType": "uint256",
          "name": "tokenId",
          "type": "uint256"
        }
      ],
      "name": "getBatchSpecificId",
      "outputs": [
        {
          "internalType": "uint256",
          "name": "",
          "type": "uint256"
        }
      ],
      "stateMutability": "view",
      "type": "function"
    },
    {
      "inputs": [],
      "name": "getFees",
      "outputs": [
        {
          "internalType": "uint256",
          "name": "",
          "type": "uint256"
        },
        {
          "internalType": "uint256",
          "name": "",
          "type": "uint256"
        }
      ],
      "stateMutability": "view",
      "type": "function"
    },
    {
      "inputs": [
        {
          "internalType": "address",
          "name": "owner",
          "type": "address"
        },
        {
          "internalType": "address",
          "name": "operator",
          "type": "address"
        }
      ],
      "name": "isApprovedForAll",
      "outputs": [
        {
          "internalType": "bool",
          "name": "",
          "type": "bool"
        }
      ],
      "stateMutability": "view",
      "type": "function"
    },
    {
      "inputs": [],
      "name": "maxSupply",
      "outputs": [
        {
          "internalType": "uint256",
          "name": "",
          "type": "uint256"
        }
      ],
      "stateMutability": "view",
      "type": "function"
    },
    {
      "inputs": [],
      "name": "name",
      "outputs": [
        {
          "internalType": "string",
          "name": "",
          "type": "string"
        }
      ],
      "stateMutability": "view",
      "type": "function"
    },
    {
      "inputs": [
        {
          "internalType": "uint256",
          "name": "tokenId",
          "type": "uint256"
        }
      ],
      "name": "ownerOf",
      "outputs": [
        {
          "internalType": "address",
          "name": "",
          "type": "address"
        }
      ],
      "stateMutability": "view",
      "type": "function"
    },
    {
      "inputs": [
        {
          "internalType": "uint256",
          "name": "tokenId",
          "type": "uint256"
        },
        {
          "internalType": "uint256",
          "name": "price",
          "type": "uint256"
        }
      ],
      "name": "resellToken",
      "outputs": [],
      "stateMutability": "payable",
      "type": "function"
    },
    {
      "inputs": [
        {
          "internalType": "address",
          "name": "from",
          "type": "address"
        },
        {
          "internalType": "address",
          "name": "to",
          "type": "address"
        },
        {
          "internalType": "uint256",
          "name": "tokenId",
          "type": "uint256"
        }
      ],
      "name": "safeTransferFrom",
      "outputs": [],
      "stateMutability": "nonpayable",
      "type": "function"
    },
    {
      "inputs": [
        {
          "internalType": "address",
          "name": "from",
          "type": "address"
        },
        {
          "internalType": "address",
          "name": "to",
          "type": "address"
        },
        {
          "internalType": "uint256",
          "name": "tokenId",
          "type": "uint256"
        },
        {
          "internalType": "bytes",
          "name": "data",
          "type": "bytes"
        }
      ],
      "name": "safeTransferFrom",
      "outputs": [],
      "stateMutability": "nonpayable",
      "type": "function"
    },
    {
      "inputs": [
        {
          "internalType": "address",
          "name": "operator",
          "type": "address"
        },
        {
          "internalType": "bool",
          "name": "approved",
          "type": "bool"
        }
      ],
      "name": "setApprovalForAll",
      "outputs": [],
      "stateMutability": "nonpayable",
      "type": "function"
    },
    {
      "inputs": [
        {
          "internalType": "bytes4",
          "name": "interfaceId",
          "type": "bytes4"
        }
      ],
      "name": "supportsInterface",
      "outputs": [
        {
          "internalType": "bool",
          "name": "",
          "type": "bool"
        }
      ],
      "stateMutability": "view",
      "type": "function"
    },
    {
      "inputs": [],
      "name": "symbol",
      "outputs": [
        {
          "internalType": "string",
          "name": "",
          "type": "string"
        }
      ],
      "stateMutability": "view",
      "type": "function"
    },
    {
      "inputs": [
        {
          "internalType": "uint256",
          "name": "tokenId",
          "type": "uint256"
        }
      ],
      "name": "tokenURI",
      "outputs": [
        {
          "internalType": "string",
          "name": "",
          "type": "string"
        }
      ],
      "stateMutability": "view",
      "type": "function"
    },
    {
      "inputs": [
        {
          "internalType": "address",
          "name": "from",
          "type": "address"
        },
        {
          "internalType": "address",
          "name": "to",
          "type": "address"
        },
        {
          "internalType": "uint256",
          "name": "tokenId",
          "type": "uint256"
        }
      ],
      "name": "transferFrom",
      "outputs": [],
      "stateMutability": "nonpayable",
      "type": "function"
    },
    {
      "inputs": [
        {
          "internalType": "uint256",
          "name": "_listingPrice",
          "type": "uint256"
        },
        {
          "internalType": "uint256",
          "name": "_transferFee",
          "type": "uint256"
        }
      ],
      "name": "updateFees",
      "outputs": [],
      "stateMutability": "nonpayable",
      "type": "function"
    },
    {
      "inputs": [
        {
          "internalType": "uint256",
          "name": "newMaxSupply",
          "type": "uint256"
        }
      ],
      "name": "updateMaxSupply",
      "outputs": [],
      "stateMutability": "nonpayable",
      "type": "function"
    }
  ],
  "bytecode": "0x60a06040526658d15e176280006009556002600a556103e8600b556001600c553480156200002c57600080fd5b506040518060400160405280601681526020017f47726561746573742053686f77204f6e204561727468000000000000000000008152506040518060400160405280600481526020017f47534f45000000000000000000000000000000000000000000000000000000008152508160009081620000aa91906200038d565b508060019081620000bc91906200038d565b5050503373ffffffffffffffffffffffffffffffffffffffff1660808173ffffffffffffffffffffffffffffffffffffffff16815250506001600f6000600181526020019081526020016000208190555062000474565b600081519050919050565b7f4e487b7100000000000000000000000000000000000000000000000000000000600052604160045260246000fd5b7f4e487b7100000000000000000000000000000000000000000000000000000000600052602260045260246000fd5b600060028204905060018216806200019557607f821691505b602082108103620001ab57620001aa6200014d565b5b50919050565b60008190508160005260206000209050919050565b60006020601f8301049050919050565b600082821b905092915050565b600060088302620002157fffffffffffffffffffffffffffffffffffffffffffffffffffffffffffffffff82620001d6565b620002218683620001d6565b95508019841693508086168417925050509392505050565b6000819050919050565b6000819050919050565b60006200026e62000268620002628462000239565b62000243565b62000239565b9050919050565b6000819050919050565b6200028a836200024d565b620002a2620002998262000275565b848454620001e3565b825550505050565b600090565b620002b9620002aa565b620002c68184846200027f565b505050565b5b81811015620002ee57620002e2600082620002af565b600181019050620002cc565b5050565b601f8211156200033d576200030781620001b1565b6200031284620001c6565b8101602085101562000322578190505b6200033a6200033185620001c6565b830182620002cb565b50505b505050565b600082821c905092915050565b6000620003626000198460080262000342565b1980831691505092915050565b60006200037d83836200034f565b9150826002028217905092915050565b620003988262000113565b67ffffffffffffffff811115620003b457620003b36200011e565b5b620003c082546200017c565b620003cd828285620002f2565b600060209050601f831160018114620004055760008415620003f0578287015190505b620003fc85826200036f565b8655506200046c565b601f1984166200041586620001b1565b60005b828110156200043f5784890151825560018201915060208501945060208101905062000418565b868310156200045f57848901516200045b601f8916826200034f565b8355505b6001600288020188555050505b505050505050565b608051615b5a620004ba6000396000818161098801528181610edb01528181610fac01528181611ca701528181611d4c015281816126b001526127cc0152615b5a6000f3fe60806040526004361061019c5760003560e01c80634623c740116100ec578063be9af5361161008a578063db8d55f111610064578063db8d55f1146105d5578063e219fc7514610601578063e985e9c51461061d578063f103b4331461065a5761019c565b8063be9af53614610551578063c87b56dd1461056d578063d5abeb01146105aa5761019c565b806370a08231116100c657806370a082311461049757806395d89b41146104d4578063a22cb465146104ff578063b88d4fde146105285761019c565b80634623c740146104015780636352211e146104315780636db794371461046e5761019c565b8063139e22d311610159578063202e374011610133578063202e37401461035957806323b872dd1461038457806342842e0e146103ad57806345f8fa80146103d65761019c565b8063139e22d3146102b657806313f19625146102df57806319a7a4311461031c5761019c565b806301ffc9a7146101a157806306ba6362146101de57806306fdde03146101fa578063081812fc14610225578063095ea7b3146102625780630f08efe01461028b575b600080fd5b3480156101ad57600080fd5b506101c860048036038101906101c39190613c03565b610683565b6040516101d59190613c4b565b60405180910390f35b6101f860048036038101906101f39190613ccb565b6106e4565b005b34801561020657600080fd5b5061020f610a0d565b60405161021c9190613da8565b60405180910390f35b34801561023157600080fd5b5061024c60048036038101906102479190613e00565b610a9f565b6040516102599190613e6e565b60405180910390f35b34801561026e57600080fd5b5061028960048036038101906102849190613eb5565b610ae5565b005b34801561029757600080fd5b506102a0610bfc565b6040516102ad91906140aa565b60405180910390f35b3480156102c257600080fd5b506102dd60048036038101906102d89190613e00565b610ed9565b005b3480156102eb57600080fd5b5061030660048036038101906103019190613e00565b611014565b60405161031391906140db565b60405180910390f35b34801561032857600080fd5b50610343600480360381019061033e9190613e00565b6110c8565b60405161035091906140db565b60405180910390f35b34801561036557600080fd5b5061036e61112d565b60405161037b91906140aa565b60405180910390f35b34801561039057600080fd5b506103ab60048036038101906103a691906140f6565b61148e565b005b3480156103b957600080fd5b506103d460048036038101906103cf91906140f6565b6114ee565b005b3480156103e257600080fd5b506103eb61150e565b6040516103f891906140aa565b60405180910390f35b61041b60048036038101906104169190614279565b61186f565b60405161042891906143ab565b60405180910390f35b34801561043d57600080fd5b5061045860048036038101906104539190613e00565b611c1f565b6040516104659190613e6e565b60405180910390f35b34801561047a57600080fd5b50610495600480360381019061049091906143cd565b611ca5565b005b3480156104a357600080fd5b506104be60048036038101906104b9919061440d565b611e10565b6040516104cb91906140db565b60405180910390f35b3480156104e057600080fd5b506104e9611ec7565b6040516104f69190613da8565b60405180910390f35b34801561050b57600080fd5b5061052660048036038101906105219190614466565b611f59565b005b34801561053457600080fd5b5061054f600480360381019061054a9190614547565b611f6f565b005b61056b60048036038101906105669190613e00565b611fd1565b005b34801561057957600080fd5b50610594600480360381019061058f9190613e00565b612329565b6040516105a19190613da8565b60405180910390f35b3480156105b657600080fd5b506105bf61243b565b6040516105cc91906140db565b60405180910390f35b3480156105e157600080fd5b506105ea612441565b6040516105f89291906145ca565b60405180910390f35b61061b600480360381019061061691906143cd565b612452565b005b34801561062957600080fd5b50610644600480360381019061063f91906145f3565b612736565b6040516106519190613c4b565b60405180910390f35b34801561066657600080fd5b50610681600480360381019061067c9190613e00565b6127ca565b005b6000634906490660e01b7bffffffffffffffffffffffffffffffffffffffffffffffffffffffff1916827bffffffffffffffffffffffffffffffffffffffffffffffffffffffff191614806106dd57506106dc82612862565b5b9050919050565b601160009054906101000a900460ff1615610734576040517f08c379a000000000000000000000000000000000000000000000000000000000815260040161072b9061467f565b60405180910390fd5b6001601160006101000a81548160ff021916908315150217905550600082829050600260095461076491906146ce565b61076e91906146ce565b90508034146107b2576040517f08c379a00000000000000000000000000000000000000000000000000000000081526004016107a99061475c565b60405180910390fd5b60005b838390508110156109855760008484838181106107d5576107d461477c565b5b9050602002013590503373ffffffffffffffffffffffffffffffffffffffff16600d600083815260200190815260200160002060010160009054906101000a900473ffffffffffffffffffffffffffffffffffffffff1673ffffffffffffffffffffffffffffffffffffffff1614610882576040517f08c379a0000000000000000000000000000000000000000000000000000000008152600401610879906147f7565b60405180910390fd5b6001600d600083815260200190815260200160002060060160006101000a81548160ff0219169083151502179055506000600d600083815260200190815260200160002060010160006101000a81548173ffffffffffffffffffffffffffffffffffffffff021916908373ffffffffffffffffffffffffffffffffffffffff1602179055506109116008612944565b33600d600083815260200190815260200160002060020160006101000a81548173ffffffffffffffffffffffffffffffffffffffff021916908373ffffffffffffffffffffffffffffffffffffffff16021790555061097130338361295a565b50808061097d90614817565b9150506107b5565b507f000000000000000000000000000000000000000000000000000000000000000073ffffffffffffffffffffffffffffffffffffffff166108fc829081150290604051600060405180830381858888f193505050501580156109ec573d6000803e3d6000fd5b50506000601160006101000a81548160ff0219169083151502179055505050565b606060008054610a1c9061488e565b80601f0160208091040260200160405190810160405280929190818152602001828054610a489061488e565b8015610a955780601f10610a6a57610100808354040283529160200191610a95565b820191906000526020600020905b815481529060010190602001808311610a7857829003601f168201915b5050505050905090565b6000610aaa82612c53565b6004600083815260200190815260200160002060009054906101000a900473ffffffffffffffffffffffffffffffffffffffff169050919050565b6000610af082611c1f565b90508073ffffffffffffffffffffffffffffffffffffffff168373ffffffffffffffffffffffffffffffffffffffff1603610b60576040517f08c379a0000000000000000000000000000000000000000000000000000000008152600401610b5790614931565b60405180910390fd5b8073ffffffffffffffffffffffffffffffffffffffff16610b7f612c9e565b73ffffffffffffffffffffffffffffffffffffffff161480610bae5750610bad81610ba8612c9e565b612736565b5b610bed576040517f08c379a0000000000000000000000000000000000000000000000000000000008152600401610be4906149c3565b60405180910390fd5b610bf78383612ca6565b505050565b60606000610c0a6007612d5f565b90506000610c186008612d5f565b610c226007612d5f565b610c2c91906149e3565b90506000808267ffffffffffffffff811115610c4b57610c4a61414e565b5b604051908082528060200260200182016040528015610c8457816020015b610c71613b07565b815260200190600190039081610c695790505b50905060005b84811015610ece573073ffffffffffffffffffffffffffffffffffffffff16600d6000600184610cba9190614a17565b815260200190815260200160002060020160009054906101000a900473ffffffffffffffffffffffffffffffffffffffff1673ffffffffffffffffffffffffffffffffffffffff1603610ebb576000600182610d169190614a17565b90506000600d600083815260200190815260200160002090508060405180610120016040529081600082015481526020016001820160009054906101000a900473ffffffffffffffffffffffffffffffffffffffff1673ffffffffffffffffffffffffffffffffffffffff1673ffffffffffffffffffffffffffffffffffffffff1681526020016002820160009054906101000a900473ffffffffffffffffffffffffffffffffffffffff1673ffffffffffffffffffffffffffffffffffffffff1673ffffffffffffffffffffffffffffffffffffffff1681526020016003820160009054906101000a900473ffffffffffffffffffffffffffffffffffffffff1673ffffffffffffffffffffffffffffffffffffffff1673ffffffffffffffffffffffffffffffffffffffff16815260200160048201548152602001600582015481526020016006820160009054906101000a900460ff1615151515815260200160078201548152602001600882015481525050848681518110610e9e57610e9d61477c565b5b6020026020010181905250600185610eb69190614a17565b945050505b8080610ec690614817565b915050610c8a565b508094505050505090565b7f000000000000000000000000000000000000000000000000000000000000000073ffffffffffffffffffffffffffffffffffffffff163373ffffffffffffffffffffffffffffffffffffffff1614610f67576040517f08c379a0000000000000000000000000000000000000000000000000000000008152600401610f5e90614abd565b60405180910390fd5b47811115610faa576040517f08c379a0000000000000000000000000000000000000000000000000000000008152600401610fa190614b29565b60405180910390fd5b7f000000000000000000000000000000000000000000000000000000000000000073ffffffffffffffffffffffffffffffffffffffff166108fc829081150290604051600060405180830381858888f19350505050158015611010573d6000803e3d6000fd5b5050565b600061101f82612d6d565b61105e576040517f08c379a000000000000000000000000000000000000000000000000000000000815260040161105590614b95565b60405180910390fd5b6000600d60008481526020019081526020016000209050828160000154146110bb576040517f08c379a00000000000000000000000000000000000000000000000000000000081526004016110b290614c01565b60405180910390fd5b8060070154915050919050565b60006110d382612d6d565b611112576040517f08c379a000000000000000000000000000000000000000000000000000000000815260040161110990614b95565b60405180910390fd5b60106000838152602001908152602001600020549050919050565b6060600061113b6007612d5f565b905060008060005b838110156111e3573373ffffffffffffffffffffffffffffffffffffffff16600d60006001846111739190614a17565b815260200190815260200160002060020160009054906101000a900473ffffffffffffffffffffffffffffffffffffffff1673ffffffffffffffffffffffffffffffffffffffff16036111d0576001836111cd9190614a17565b92505b80806111db90614817565b915050611143565b5060008267ffffffffffffffff811115611200576111ff61414e565b5b60405190808252806020026020018201604052801561123957816020015b611226613b07565b81526020019060019003908161121e5790505b50905060005b84811015611483573373ffffffffffffffffffffffffffffffffffffffff16600d600060018461126f9190614a17565b815260200190815260200160002060020160009054906101000a900473ffffffffffffffffffffffffffffffffffffffff1673ffffffffffffffffffffffffffffffffffffffff16036114705760006001826112cb9190614a17565b90506000600d600083815260200190815260200160002090508060405180610120016040529081600082015481526020016001820160009054906101000a900473ffffffffffffffffffffffffffffffffffffffff1673ffffffffffffffffffffffffffffffffffffffff1673ffffffffffffffffffffffffffffffffffffffff1681526020016002820160009054906101000a900473ffffffffffffffffffffffffffffffffffffffff1673ffffffffffffffffffffffffffffffffffffffff1673ffffffffffffffffffffffffffffffffffffffff1681526020016003820160009054906101000a900473ffffffffffffffffffffffffffffffffffffffff1673ffffffffffffffffffffffffffffffffffffffff1673ffffffffffffffffffffffffffffffffffffffff16815260200160048201548152602001600582015481526020016006820160009054906101000a900460ff16151515158152602001600782015481526020016008820154815250508486815181106114535761145261477c565b5b602002602001018190525060018561146b9190614a17565b945050505b808061147b90614817565b91505061123f565b508094505050505090565b61149f611499612c9e565b82612dae565b6114de576040517f08c379a00000000000000000000000000000000000000000000000000000000081526004016114d590614c93565b60405180910390fd5b6114e983838361295a565b505050565b61150983838360405180602001604052806000815250611f6f565b505050565b6060600061151c6007612d5f565b905060008060005b838110156115c4573373ffffffffffffffffffffffffffffffffffffffff16600d60006001846115549190614a17565b815260200190815260200160002060010160009054906101000a900473ffffffffffffffffffffffffffffffffffffffff1673ffffffffffffffffffffffffffffffffffffffff16036115b1576001836115ae9190614a17565b92505b80806115bc90614817565b915050611524565b5060008267ffffffffffffffff8111156115e1576115e061414e565b5b60405190808252806020026020018201604052801561161a57816020015b611607613b07565b8152602001906001900390816115ff5790505b50905060005b84811015611864573373ffffffffffffffffffffffffffffffffffffffff16600d60006001846116509190614a17565b815260200190815260200160002060010160009054906101000a900473ffffffffffffffffffffffffffffffffffffffff1673ffffffffffffffffffffffffffffffffffffffff16036118515760006001826116ac9190614a17565b90506000600d600083815260200190815260200160002090508060405180610120016040529081600082015481526020016001820160009054906101000a900473ffffffffffffffffffffffffffffffffffffffff1673ffffffffffffffffffffffffffffffffffffffff1673ffffffffffffffffffffffffffffffffffffffff1681526020016002820160009054906101000a900473ffffffffffffffffffffffffffffffffffffffff1673ffffffffffffffffffffffffffffffffffffffff1673ffffffffffffffffffffffffffffffffffffffff1681526020016003820160009054906101000a900473ffffffffffffffffffffffffffffffffffffffff1673ffffffffffffffffffffffffffffffffffffffff1673ffffffffffffffffffffffffffffffffffffffff16815260200160048201548152602001600582015481526020016006820160009054906101000a900460ff16151515158152602001600782015481526020016008820154815250508486815181106118345761183361477c565b5b602002602001018190525060018561184c9190614a17565b945050505b808061185c90614817565b915050611620565b508094505050505090565b6060601160009054906101000a900460ff16156118c1576040517f08c379a00000000000000000000000000000000000000000000000000000000081526004016118b89061467f565b60405180910390fd5b6001601160006101000a81548160ff021916908315150217905550600b5460016118eb6007612d5f565b6118f59190614a17565b1115611936576040517f08c379a000000000000000000000000000000000000000000000000000000000815260040161192d90614cff565b60405180910390fd5b606483111561197a576040517f08c379a000000000000000000000000000000000000000000000000000000000815260040161197190614d91565b60405180910390fd5b60018210156119be576040517f08c379a00000000000000000000000000000000000000000000000000000000081526004016119b590614dfd565b60405180910390fd5b60008267ffffffffffffffff8111156119da576119d961414e565b5b604051908082528060200260200182016040528015611a085781602001602082028036833780820191505090505b50905060008367ffffffffffffffff811115611a2757611a2661414e565b5b604051908082528060200260200182016040528015611a555781602001602082028036833780820191505090505b509050600084600954611a6891906146ce565b905080341015611aad576040517f08c379a0000000000000000000000000000000000000000000000000000000008152600401611aa490614e69565b60405180910390fd5b60005b85811015611b7a57611ac26007612944565b6000611ace6007612d5f565b90506000600183611adf9190614a17565b9050611aeb3383612e43565b611af5828c613060565b88600e60008481526020019081526020016000208190555080601060008481526020019081526020016000208190555081868481518110611b3957611b3861477c565b5b60200260200101818152505080858481518110611b5957611b5861477c565b5b60200260200101818152505050508080611b7290614817565b915050611ab0565b50611b86838833613104565b3373ffffffffffffffffffffffffffffffffffffffff167f74ad5902d0b03078ee8734265eb187b94319f5d765bfc139e032461b6c928b5d848789600c5487604051611bd6959493929190614e89565b60405180910390a2600c6000815480929190611bf190614817565b91905055508293505050506000601160006101000a81548160ff021916908315150217905550949350505050565b600080611c2b836133e6565b9050600073ffffffffffffffffffffffffffffffffffffffff168173ffffffffffffffffffffffffffffffffffffffff1603611c9c576040517f08c379a0000000000000000000000000000000000000000000000000000000008152600401611c9390614f36565b60405180910390fd5b80915050919050565b7f000000000000000000000000000000000000000000000000000000000000000073ffffffffffffffffffffffffffffffffffffffff163373ffffffffffffffffffffffffffffffffffffffff1614611d33576040517f08c379a0000000000000000000000000000000000000000000000000000000008152600401611d2a90614abd565b60405180910390fd5b3373ffffffffffffffffffffffffffffffffffffffff167f000000000000000000000000000000000000000000000000000000000000000073ffffffffffffffffffffffffffffffffffffffff1614611dc1576040517f08c379a0000000000000000000000000000000000000000000000000000000008152600401611db890614fc8565b60405180910390fd5b8160098190555080600a819055507f5c6323bf1c2d7aaea2c091a4751c1c87af7f2864650c336507a77d0557af37a1600954600a54604051611e049291906145ca565b60405180910390a15050565b60008073ffffffffffffffffffffffffffffffffffffffff168273ffffffffffffffffffffffffffffffffffffffff1603611e80576040517f08c379a0000000000000000000000000000000000000000000000000000000008152600401611e779061505a565b60405180910390fd5b600360008373ffffffffffffffffffffffffffffffffffffffff1673ffffffffffffffffffffffffffffffffffffffff168152602001908152602001600020549050919050565b606060018054611ed69061488e565b80601f0160208091040260200160405190810160405280929190818152602001828054611f029061488e565b8015611f4f5780601f10611f2457610100808354040283529160200191611f4f565b820191906000526020600020905b815481529060010190602001808311611f3257829003601f168201915b5050505050905090565b611f6b611f64612c9e565b8383613423565b5050565b611f80611f7a612c9e565b83612dae565b611fbf576040517f08c379a0000000000000000000000000000000000000000000000000000000008152600401611fb690614c93565b60405180910390fd5b611fcb8484848461358f565b50505050565b601160009054906101000a900460ff1615612021576040517f08c379a00000000000000000000000000000000000000000000000000000000081526004016120189061467f565b60405180910390fd5b6001601160006101000a81548160ff0219169083151502179055506000600d6000838152602001908152602001600020600401549050803414612099576040517f08c379a0000000000000000000000000000000000000000000000000000000008152600401612090906150c6565b60405180910390fd5b6000600d600084815260200190815260200160002060010160009054906101000a900473ffffffffffffffffffffffffffffffffffffffff1690506000600d600085815260200190815260200160002060030160009054906101000a900473ffffffffffffffffffffffffffffffffffffffff1690506000600e600086815260200190815260200160002054905060006064600a548661213991906146ce565b6121439190615115565b90506000606483838861215691906149e3565b61216091906146ce565b61216a9190615115565b9050600081838861217b91906149e3565b61218591906149e3565b905033600d60008a815260200190815260200160002060020160006101000a81548173ffffffffffffffffffffffffffffffffffffffff021916908373ffffffffffffffffffffffffffffffffffffffff1602179055506001600d60008a815260200190815260200160002060060160006101000a81548160ff0219169083151502179055506000600d60008a815260200190815260200160002060010160006101000a81548173ffffffffffffffffffffffffffffffffffffffff021916908373ffffffffffffffffffffffffffffffffffffffff16021790555061226b6008612944565b61227630338a61295a565b8573ffffffffffffffffffffffffffffffffffffffff166108fc829081150290604051600060405180830381858888f193505050501580156122bc573d6000803e3d6000fd5b508473ffffffffffffffffffffffffffffffffffffffff166108fc839081150290604051600060405180830381858888f19350505050158015612303573d6000803e3d6000fd5b50505050505050506000601160006101000a81548160ff02191690831515021790555050565b606061233482612c53565b60006006600084815260200190815260200160002080546123549061488e565b80601f01602080910402602001604051908101604052809291908181526020018280546123809061488e565b80156123cd5780601f106123a2576101008083540402835291602001916123cd565b820191906000526020600020905b8154815290600101906020018083116123b057829003601f168201915b5050505050905060006123de6135eb565b905060008151036123f3578192505050612436565b600082511115612428578082604051602001612410929190615182565b60405160208183030381529060405292505050612436565b61243184613602565b925050505b919050565b600b5481565b600080600954600a54915091509091565b601160009054906101000a900460ff16156124a2576040517f08c379a00000000000000000000000000000000000000000000000000000000081526004016124999061467f565b60405180910390fd5b6001601160006101000a81548160ff0219169083151502179055503373ffffffffffffffffffffffffffffffffffffffff16600d600084815260200190815260200160002060020160009054906101000a900473ffffffffffffffffffffffffffffffffffffffff1673ffffffffffffffffffffffffffffffffffffffff1614612561576040517f08c379a000000000000000000000000000000000000000000000000000000000815260040161255890615218565b60405180910390fd5b60095434146125a5576040517f08c379a000000000000000000000000000000000000000000000000000000000815260040161259c906152aa565b60405180910390fd5b6000600d600084815260200190815260200160002060060160006101000a81548160ff02191690831515021790555080600d60008481526020019081526020016000206004018190555033600d600084815260200190815260200160002060010160006101000a81548173ffffffffffffffffffffffffffffffffffffffff021916908373ffffffffffffffffffffffffffffffffffffffff16021790555030600d600084815260200190815260200160002060020160006101000a81548173ffffffffffffffffffffffffffffffffffffffff021916908373ffffffffffffffffffffffffffffffffffffffff1602179055506126a3600861366a565b6126ae33308461295a565b7f000000000000000000000000000000000000000000000000000000000000000073ffffffffffffffffffffffffffffffffffffffff166108fc6009549081150290604051600060405180830381858888f19350505050158015612716573d6000803e3d6000fd5b506000601160006101000a81548160ff0219169083151502179055505050565b6000600560008473ffffffffffffffffffffffffffffffffffffffff1673ffffffffffffffffffffffffffffffffffffffff16815260200190815260200160002060008373ffffffffffffffffffffffffffffffffffffffff1673ffffffffffffffffffffffffffffffffffffffff16815260200190815260200160002060009054906101000a900460ff16905092915050565b7f000000000000000000000000000000000000000000000000000000000000000073ffffffffffffffffffffffffffffffffffffffff163373ffffffffffffffffffffffffffffffffffffffff1614612858576040517f08c379a000000000000000000000000000000000000000000000000000000000815260040161284f90614abd565b60405180910390fd5b80600b8190555050565b60007f80ac58cd000000000000000000000000000000000000000000000000000000007bffffffffffffffffffffffffffffffffffffffffffffffffffffffff1916827bffffffffffffffffffffffffffffffffffffffffffffffffffffffff1916148061292d57507f5b5e139f000000000000000000000000000000000000000000000000000000007bffffffffffffffffffffffffffffffffffffffffffffffffffffffff1916827bffffffffffffffffffffffffffffffffffffffffffffffffffffffff1916145b8061293d575061293c826136c6565b5b9050919050565b6001816000016000828254019250508190555050565b8273ffffffffffffffffffffffffffffffffffffffff1661297a82611c1f565b73ffffffffffffffffffffffffffffffffffffffff16146129d0576040517f08c379a00000000000000000000000000000000000000000000000000000000081526004016129c79061533c565b60405180910390fd5b600073ffffffffffffffffffffffffffffffffffffffff168273ffffffffffffffffffffffffffffffffffffffff1603612a3f576040517f08c379a0000000000000000000000000000000000000000000000000000000008152600401612a36906153ce565b60405180910390fd5b612a4c8383836001613730565b8273ffffffffffffffffffffffffffffffffffffffff16612a6c82611c1f565b73ffffffffffffffffffffffffffffffffffffffff1614612ac2576040517f08c379a0000000000000000000000000000000000000000000000000000000008152600401612ab99061533c565b60405180910390fd5b6004600082815260200190815260200160002060006101000a81549073ffffffffffffffffffffffffffffffffffffffff02191690556001600360008573ffffffffffffffffffffffffffffffffffffffff1673ffffffffffffffffffffffffffffffffffffffff168152602001908152602001600020600082825403925050819055506001600360008473ffffffffffffffffffffffffffffffffffffffff1673ffffffffffffffffffffffffffffffffffffffff16815260200190815260200160002060008282540192505081905550816002600083815260200190815260200160002060006101000a81548173ffffffffffffffffffffffffffffffffffffffff021916908373ffffffffffffffffffffffffffffffffffffffff160217905550808273ffffffffffffffffffffffffffffffffffffffff168473ffffffffffffffffffffffffffffffffffffffff167fddf252ad1be2c89b69c2b068fc378daa952ba7f163c4a11628f55a4df523b3ef60405160405180910390a4612c4e8383836001613736565b505050565b612c5c81612d6d565b612c9b576040517f08c379a0000000000000000000000000000000000000000000000000000000008152600401612c9290614f36565b60405180910390fd5b50565b600033905090565b816004600083815260200190815260200160002060006101000a81548173ffffffffffffffffffffffffffffffffffffffff021916908373ffffffffffffffffffffffffffffffffffffffff160217905550808273ffffffffffffffffffffffffffffffffffffffff16612d1983611c1f565b73ffffffffffffffffffffffffffffffffffffffff167f8c5be1e5ebec7d5bd14f71427d1e84f3dd0314c0f7b2291e5b200ac8c7c3b92560405160405180910390a45050565b600081600001549050919050565b60008073ffffffffffffffffffffffffffffffffffffffff16612d8f836133e6565b73ffffffffffffffffffffffffffffffffffffffff1614159050919050565b600080612dba83611c1f565b90508073ffffffffffffffffffffffffffffffffffffffff168473ffffffffffffffffffffffffffffffffffffffff161480612dfc5750612dfb8185612736565b5b80612e3a57508373ffffffffffffffffffffffffffffffffffffffff16612e2284610a9f565b73ffffffffffffffffffffffffffffffffffffffff16145b91505092915050565b600073ffffffffffffffffffffffffffffffffffffffff168273ffffffffffffffffffffffffffffffffffffffff1603612eb2576040517f08c379a0000000000000000000000000000000000000000000000000000000008152600401612ea99061543a565b60405180910390fd5b612ebb81612d6d565b15612efb576040517f08c379a0000000000000000000000000000000000000000000000000000000008152600401612ef2906154a6565b60405180910390fd5b612f09600083836001613730565b612f1281612d6d565b15612f52576040517f08c379a0000000000000000000000000000000000000000000000000000000008152600401612f49906154a6565b60405180910390fd5b6001600360008473ffffffffffffffffffffffffffffffffffffffff1673ffffffffffffffffffffffffffffffffffffffff16815260200190815260200160002060008282540192505081905550816002600083815260200190815260200160002060006101000a81548173ffffffffffffffffffffffffffffffffffffffff021916908373ffffffffffffffffffffffffffffffffffffffff160217905550808273ffffffffffffffffffffffffffffffffffffffff16600073ffffffffffffffffffffffffffffffffffffffff167fddf252ad1be2c89b69c2b068fc378daa952ba7f163c4a11628f55a4df523b3ef60405160405180910390a461305c600083836001613736565b5050565b61306982612d6d565b6130a8576040517f08c379a000000000000000000000000000000000000000000000000000000000815260040161309f90615538565b60405180910390fd5b806006600084815260200190815260200160002090816130c89190615704565b507ff8e1a15aba9398e019f0b49df1a4fde98ee17ae345cb5f6b5e2c27f5033e8ce7826040516130f891906140db565b60405180910390a15050565b825160095461311391906146ce565b3414613154576040517f08c379a000000000000000000000000000000000000000000000000000000000815260040161314b90615848565b60405180910390fd5b6000600c54905060005b84518110156133df57600085828151811061317c5761317b61477c565b5b602002602001015190506000600e60008381526020019081526020016000205490506000600f60008481526020019081526020016000205490506040518061012001604052808481526020013373ffffffffffffffffffffffffffffffffffffffff1681526020013073ffffffffffffffffffffffffffffffffffffffff1681526020018773ffffffffffffffffffffffffffffffffffffffff16815260200188815260200183815260200160001515815260200186815260200182815250600d60008581526020019081526020016000206000820151816000015560208201518160010160006101000a81548173ffffffffffffffffffffffffffffffffffffffff021916908373ffffffffffffffffffffffffffffffffffffffff16021790555060408201518160020160006101000a81548173ffffffffffffffffffffffffffffffffffffffff021916908373ffffffffffffffffffffffffffffffffffffffff16021790555060608201518160030160006101000a81548173ffffffffffffffffffffffffffffffffffffffff021916908373ffffffffffffffffffffffffffffffffffffffff1602179055506080820151816004015560a0820151816005015560c08201518160060160006101000a81548160ff02191690831515021790555060e08201518160070155610100820151816008015590505061338433308561295a565b827f927043cabb93d6293bf9b03203dd60713dcf74e2b0e4c7932650e4a424b7bd643330898b8760008c6040516133c19796959493929190615868565b60405180910390a250505080806133d790614817565b91505061315e565b5050505050565b60006002600083815260200190815260200160002060009054906101000a900473ffffffffffffffffffffffffffffffffffffffff169050919050565b8173ffffffffffffffffffffffffffffffffffffffff168373ffffffffffffffffffffffffffffffffffffffff1603613491576040517f08c379a000000000000000000000000000000000000000000000000000000000815260040161348890615923565b60405180910390fd5b80600560008573ffffffffffffffffffffffffffffffffffffffff1673ffffffffffffffffffffffffffffffffffffffff16815260200190815260200160002060008473ffffffffffffffffffffffffffffffffffffffff1673ffffffffffffffffffffffffffffffffffffffff16815260200190815260200160002060006101000a81548160ff0219169083151502179055508173ffffffffffffffffffffffffffffffffffffffff168373ffffffffffffffffffffffffffffffffffffffff167f17307eab39ab6107e8899845ad3d59bd9653f200f220920489ca2b5937696c31836040516135829190613c4b565b60405180910390a3505050565b61359a84848461295a565b6135a68484848461373c565b6135e5576040517f08c379a00000000000000000000000000000000000000000000000000000000081526004016135dc906159b5565b60405180910390fd5b50505050565b606060405180602001604052806000815250905090565b606061360d82612c53565b60006136176135eb565b905060008151116136375760405180602001604052806000815250613662565b80613641846138c3565b604051602001613652929190615182565b6040516020818303038152906040525b915050919050565b600081600001549050600081116136b6576040517f08c379a00000000000000000000000000000000000000000000000000000000081526004016136ad90615a21565b60405180910390fd5b6001810382600001819055505050565b60007f01ffc9a7000000000000000000000000000000000000000000000000000000007bffffffffffffffffffffffffffffffffffffffffffffffffffffffff1916827bffffffffffffffffffffffffffffffffffffffffffffffffffffffff1916149050919050565b50505050565b50505050565b600061375d8473ffffffffffffffffffffffffffffffffffffffff16613991565b156138b6578373ffffffffffffffffffffffffffffffffffffffff1663150b7a02613786612c9e565b8786866040518563ffffffff1660e01b81526004016137a89493929190615a96565b6020604051808303816000875af19250505080156137e457506040513d601f19601f820116820180604052508101906137e19190615af7565b60015b613866573d8060008114613814576040519150601f19603f3d011682016040523d82523d6000602084013e613819565b606091505b50600081510361385e576040517f08c379a0000000000000000000000000000000000000000000000000000000008152600401613855906159b5565b60405180910390fd5b805181602001fd5b63150b7a0260e01b7bffffffffffffffffffffffffffffffffffffffffffffffffffffffff1916817bffffffffffffffffffffffffffffffffffffffffffffffffffffffff1916149150506138bb565b600190505b949350505050565b6060600060016138d2846139b4565b01905060008167ffffffffffffffff8111156138f1576138f061414e565b5b6040519080825280601f01601f1916602001820160405280156139235781602001600182028036833780820191505090505b509050600082602001820190505b600115613986578080600190039150507f3031323334353637383961626364656600000000000000000000000000000000600a86061a8153600a858161397a576139796150e6565b5b04945060008503613931575b819350505050919050565b6000808273ffffffffffffffffffffffffffffffffffffffff163b119050919050565b600080600090507a184f03e93ff9f4daa797ed6e38ed64bf6a1f0100000000000000008310613a12577a184f03e93ff9f4daa797ed6e38ed64bf6a1f0100000000000000008381613a0857613a076150e6565b5b0492506040810190505b6d04ee2d6d415b85acef81000000008310613a4f576d04ee2d6d415b85acef81000000008381613a4557613a446150e6565b5b0492506020810190505b662386f26fc100008310613a7e57662386f26fc100008381613a7457613a736150e6565b5b0492506010810190505b6305f5e1008310613aa7576305f5e1008381613a9d57613a9c6150e6565b5b0492506008810190505b6127108310613acc576127108381613ac257613ac16150e6565b5b0492506004810190505b60648310613aef5760648381613ae557613ae46150e6565b5b0492506002810190505b600a8310613afe576001810190505b80915050919050565b60405180610120016040528060008152602001600073ffffffffffffffffffffffffffffffffffffffff168152602001600073ffffffffffffffffffffffffffffffffffffffff168152602001600073ffffffffffffffffffffffffffffffffffffffff168152602001600081526020016000815260200160001515815260200160008152602001600081525090565b6000604051905090565b600080fd5b600080fd5b60007fffffffff0000000000000000000000000000000000000000000000000000000082169050919050565b613be081613bab565b8114613beb57600080fd5b50565b600081359050613bfd81613bd7565b92915050565b600060208284031215613c1957613c18613ba1565b5b6000613c2784828501613bee565b91505092915050565b60008115159050919050565b613c4581613c30565b82525050565b6000602082019050613c606000830184613c3c565b92915050565b600080fd5b600080fd5b600080fd5b60008083601f840112613c8b57613c8a613c66565b5b8235905067ffffffffffffffff811115613ca857613ca7613c6b565b5b602083019150836020820283011115613cc457613cc3613c70565b5b9250929050565b60008060208385031215613ce257613ce1613ba1565b5b600083013567ffffffffffffffff811115613d0057613cff613ba6565b5b613d0c85828601613c75565b92509250509250929050565b600081519050919050565b600082825260208201905092915050565b60005b83811015613d52578082015181840152602081019050613d37565b60008484015250505050565b6000601f19601f8301169050919050565b6000613d7a82613d18565b613d848185613d23565b9350613d94818560208601613d34565b613d9d81613d5e565b840191505092915050565b60006020820190508181036000830152613dc28184613d6f565b905092915050565b6000819050919050565b613ddd81613dca565b8114613de857600080fd5b50565b600081359050613dfa81613dd4565b92915050565b600060208284031215613e1657613e15613ba1565b5b6000613e2484828501613deb565b91505092915050565b600073ffffffffffffffffffffffffffffffffffffffff82169050919050565b6000613e5882613e2d565b9050919050565b613e6881613e4d565b82525050565b6000602082019050613e836000830184613e5f565b92915050565b613e9281613e4d565b8114613e9d57600080fd5b50565b600081359050613eaf81613e89565b92915050565b60008060408385031215613ecc57613ecb613ba1565b5b6000613eda85828601613ea0565b9250506020613eeb85828601613deb565b9150509250929050565b600081519050919050565b600082825260208201905092915050565b6000819050602082019050919050565b613f2a81613dca565b82525050565b6000613f3b82613e2d565b9050919050565b613f4b81613f30565b82525050565b613f5a81613e4d565b82525050565b613f6981613c30565b82525050565b61012082016000820151613f866000850182613f21565b506020820151613f996020850182613f42565b506040820151613fac6040850182613f42565b506060820151613fbf6060850182613f51565b506080820151613fd26080850182613f21565b5060a0820151613fe560a0850182613f21565b5060c0820151613ff860c0850182613f60565b5060e082015161400b60e0850182613f21565b50610100820151614020610100850182613f21565b50505050565b60006140328383613f6f565b6101208301905092915050565b6000602082019050919050565b600061405782613ef5565b6140618185613f00565b935061406c83613f11565b8060005b8381101561409d5781516140848882614026565b975061408f8361403f565b925050600181019050614070565b5085935050505092915050565b600060208201905081810360008301526140c4818461404c565b905092915050565b6140d581613dca565b82525050565b60006020820190506140f060008301846140cc565b92915050565b60008060006060848603121561410f5761410e613ba1565b5b600061411d86828701613ea0565b935050602061412e86828701613ea0565b925050604061413f86828701613deb565b9150509250925092565b600080fd5b7f4e487b7100000000000000000000000000000000000000000000000000000000600052604160045260246000fd5b61418682613d5e565b810181811067ffffffffffffffff821117156141a5576141a461414e565b5b80604052505050565b60006141b8613b97565b90506141c4828261417d565b919050565b600067ffffffffffffffff8211156141e4576141e361414e565b5b6141ed82613d5e565b9050602081019050919050565b82818337600083830152505050565b600061421c614217846141c9565b6141ae565b90508281526020810184848401111561423857614237614149565b5b6142438482856141fa565b509392505050565b600082601f8301126142605761425f613c66565b5b8135614270848260208601614209565b91505092915050565b6000806000806080858703121561429357614292613ba1565b5b600085013567ffffffffffffffff8111156142b1576142b0613ba6565b5b6142bd8782880161424b565b94505060206142ce87828801613deb565b93505060406142df87828801613deb565b92505060606142f087828801613deb565b91505092959194509250565b600081519050919050565b600082825260208201905092915050565b6000819050602082019050919050565b60006143348383613f21565b60208301905092915050565b6000602082019050919050565b6000614358826142fc565b6143628185614307565b935061436d83614318565b8060005b8381101561439e5781516143858882614328565b975061439083614340565b925050600181019050614371565b5085935050505092915050565b600060208201905081810360008301526143c5818461434d565b905092915050565b600080604083850312156143e4576143e3613ba1565b5b60006143f285828601613deb565b925050602061440385828601613deb565b9150509250929050565b60006020828403121561442357614422613ba1565b5b600061443184828501613ea0565b91505092915050565b61444381613c30565b811461444e57600080fd5b50565b6000813590506144608161443a565b92915050565b6000806040838503121561447d5761447c613ba1565b5b600061448b85828601613ea0565b925050602061449c85828601614451565b9150509250929050565b600067ffffffffffffffff8211156144c1576144c061414e565b5b6144ca82613d5e565b9050602081019050919050565b60006144ea6144e5846144a6565b6141ae565b90508281526020810184848401111561450657614505614149565b5b6145118482856141fa565b509392505050565b600082601f83011261452e5761452d613c66565b5b813561453e8482602086016144d7565b91505092915050565b6000806000806080858703121561456157614560613ba1565b5b600061456f87828801613ea0565b945050602061458087828801613ea0565b935050604061459187828801613deb565b925050606085013567ffffffffffffffff8111156145b2576145b1613ba6565b5b6145be87828801614519565b91505092959194509250565b60006040820190506145df60008301856140cc565b6145ec60208301846140cc565b9392505050565b6000806040838503121561460a57614609613ba1565b5b600061461885828601613ea0565b925050602061462985828601613ea0565b9150509250929050565b7f5265656e7472616e742063616c6c000000000000000000000000000000000000600082015250565b6000614669600e83613d23565b915061467482614633565b602082019050919050565b600060208201905081810360008301526146988161465c565b9050919050565b7f4e487b7100000000000000000000000000000000000000000000000000000000600052601160045260246000fd5b60006146d982613dca565b91506146e483613dca565b92508282026146f281613dca565b915082820484148315176147095761470861469f565b5b5092915050565b7f44656c697374696e672070726963650000000000000000000000000000000000600082015250565b6000614746600f83613d23565b915061475182614710565b602082019050919050565b6000602082019050818103600083015261477581614739565b9050919050565b7f4e487b7100000000000000000000000000000000000000000000000000000000600052603260045260246000fd5b7f4f6e6c79206974656d206f776e65722121210000000000000000000000000000600082015250565b60006147e1601283613d23565b91506147ec826147ab565b602082019050919050565b60006020820190508181036000830152614810816147d4565b9050919050565b600061482282613dca565b91507fffffffffffffffffffffffffffffffffffffffffffffffffffffffffffffffff82036148545761485361469f565b5b600182019050919050565b7f4e487b7100000000000000000000000000000000000000000000000000000000600052602260045260246000fd5b600060028204905060018216806148a657607f821691505b6020821081036148b9576148b861485f565b5b50919050565b7f4552433732313a20617070726f76616c20746f2063757272656e74206f776e6560008201527f7200000000000000000000000000000000000000000000000000000000000000602082015250565b600061491b602183613d23565b9150614926826148bf565b604082019050919050565b6000602082019050818103600083015261494a8161490e565b9050919050565b7f4552433732313a20617070726f76652063616c6c6572206973206e6f7420746f60008201527f6b656e206f776e6572206f7220617070726f76656420666f7220616c6c000000602082015250565b60006149ad603d83613d23565b91506149b882614951565b604082019050919050565b600060208201905081810360008301526149dc816149a0565b9050919050565b60006149ee82613dca565b91506149f983613dca565b9250828203905081811115614a1157614a1061469f565b5b92915050565b6000614a2282613dca565b9150614a2d83613dca565b9250828201905080821115614a4557614a4461469f565b5b92915050565b7f6f6e6c79206f776e6572206f6620746865206d61726b6574706c61636520636160008201527f6e206368616e676520746865206c697374696e67207072696365000000000000602082015250565b6000614aa7603a83613d23565b9150614ab282614a4b565b604082019050919050565b60006020820190508181036000830152614ad681614a9a565b9050919050565b7f302062616c000000000000000000000000000000000000000000000000000000600082015250565b6000614b13600583613d23565b9150614b1e82614add565b602082019050919050565b60006020820190508181036000830152614b4281614b06565b9050919050565b7f546f6b656e20646f6573206e6f74206578697374000000000000000000000000600082015250565b6000614b7f601483613d23565b9150614b8a82614b49565b602082019050919050565b60006020820190508181036000830152614bae81614b72565b9050919050565b7f546f6b656e206e6f7420666f756e6420696e206d61726b657400000000000000600082015250565b6000614beb601983613d23565b9150614bf682614bb5565b602082019050919050565b60006020820190508181036000830152614c1a81614bde565b9050919050565b7f4552433732313a2063616c6c6572206973206e6f7420746f6b656e206f776e6560008201527f72206f7220617070726f76656400000000000000000000000000000000000000602082015250565b6000614c7d602d83613d23565b9150614c8882614c21565b604082019050919050565b60006020820190508181036000830152614cac81614c70565b9050919050565b7f4d6178696d756d20737570706c79207265616368656400000000000000000000600082015250565b6000614ce9601683613d23565b9150614cf482614cb3565b602082019050919050565b60006020820190508181036000830152614d1881614cdc565b9050919050565b7f526f79616c74792070657263656e74616765206d757374206265203c3d20313060008201527f3000000000000000000000000000000000000000000000000000000000000000602082015250565b6000614d7b602183613d23565b9150614d8682614d1f565b604082019050919050565b60006020820190508181036000830152614daa81614d6e565b9050919050565b7f5175616e74697479206d757374206265206174206c6561737420310000000000600082015250565b6000614de7601b83613d23565b9150614df282614db1565b602082019050919050565b60006020820190508181036000830152614e1681614dda565b9050919050565b7f496e73756666696369656e74206c697374696e67206665650000000000000000600082015250565b6000614e53601883613d23565b9150614e5e82614e1d565b602082019050919050565b60006020820190508181036000830152614e8281614e46565b9050919050565b600060a0820190508181036000830152614ea3818861434d565b9050614eb260208301876140cc565b614ebf60408301866140cc565b614ecc60608301856140cc565b8181036080830152614ede818461434d565b90509695505050505050565b7f4552433732313a20696e76616c696420746f6b656e2049440000000000000000600082015250565b6000614f20601883613d23565b9150614f2b82614eea565b602082019050919050565b60006020820190508181036000830152614f4f81614f13565b9050919050565b7f4f6e6c79206d61726b6574706c616365206f776e65722063616e20757064617460008201527f65206c697374696e6720666565732e0000000000000000000000000000000000602082015250565b6000614fb2602f83613d23565b9150614fbd82614f56565b604082019050919050565b60006020820190508181036000830152614fe181614fa5565b9050919050565b7f4552433732313a2061646472657373207a65726f206973206e6f74206120766160008201527f6c6964206f776e65720000000000000000000000000000000000000000000000602082015250565b6000615044602983613d23565b915061504f82614fe8565b604082019050919050565b6000602082019050818103600083015261507381615037565b9050919050565b7f506c65617365207375626d6974207468652061736b696e672070726963650000600082015250565b60006150b0601e83613d23565b91506150bb8261507a565b602082019050919050565b600060208201905081810360008301526150df816150a3565b9050919050565b7f4e487b7100000000000000000000000000000000000000000000000000000000600052601260045260246000fd5b600061512082613dca565b915061512b83613dca565b92508261513b5761513a6150e6565b5b828204905092915050565b600081905092915050565b600061515c82613d18565b6151668185615146565b9350615176818560208601613d34565b80840191505092915050565b600061518e8285615151565b915061519a8284615151565b91508190509392505050565b7f4f6e6c79206974656d206f776e65722063616e20706572666f726d207468697360008201527f206f7065726174696f6e00000000000000000000000000000000000000000000602082015250565b6000615202602a83613d23565b915061520d826151a6565b604082019050919050565b60006020820190508181036000830152615231816151f5565b9050919050565b7f5072696365206d75737420626520657175616c20746f206c697374696e67207060008201527f7269636500000000000000000000000000000000000000000000000000000000602082015250565b6000615294602483613d23565b915061529f82615238565b604082019050919050565b600060208201905081810360008301526152c381615287565b9050919050565b7f4552433732313a207472616e736665722066726f6d20696e636f72726563742060008201527f6f776e6572000000000000000000000000000000000000000000000000000000602082015250565b6000615326602583613d23565b9150615331826152ca565b604082019050919050565b6000602082019050818103600083015261535581615319565b9050919050565b7f4552433732313a207472616e7366657220746f20746865207a65726f2061646460008201527f7265737300000000000000000000000000000000000000000000000000000000602082015250565b60006153b8602483613d23565b91506153c38261535c565b604082019050919050565b600060208201905081810360008301526153e7816153ab565b9050919050565b7f4552433732313a206d696e7420746f20746865207a65726f2061646472657373600082015250565b6000615424602083613d23565b915061542f826153ee565b602082019050919050565b6000602082019050818103600083015261545381615417565b9050919050565b7f4552433732313a20746f6b656e20616c7265616479206d696e74656400000000600082015250565b6000615490601c83613d23565b915061549b8261545a565b602082019050919050565b600060208201905081810360008301526154bf81615483565b9050919050565b7f45524337323155524953746f726167653a2055524920736574206f66206e6f6e60008201527f6578697374656e7420746f6b656e000000000000000000000000000000000000602082015250565b6000615522602e83613d23565b915061552d826154c6565b604082019050919050565b6000602082019050818103600083015261555181615515565b9050919050565b60008190508160005260206000209050919050565b60006020601f8301049050919050565b600082821b905092915050565b6000600883026155ba7fffffffffffffffffffffffffffffffffffffffffffffffffffffffffffffffff8261557d565b6155c4868361557d565b95508019841693508086168417925050509392505050565b6000819050919050565b60006156016155fc6155f784613dca565b6155dc565b613dca565b9050919050565b6000819050919050565b61561b836155e6565b61562f61562782615608565b84845461558a565b825550505050565b600090565b615644615637565b61564f818484615612565b505050565b5b818110156156735761566860008261563c565b600181019050615655565b5050565b601f8211156156b85761568981615558565b6156928461556d565b810160208510156156a1578190505b6156b56156ad8561556d565b830182615654565b50505b505050565b600082821c905092915050565b60006156db600019846008026156bd565b1980831691505092915050565b60006156f483836156ca565b9150826002028217905092915050565b61570d82613d18565b67ffffffffffffffff8111156157265761572561414e565b5b615730825461488e565b61573b828285615677565b600060209050601f83116001811461576e576000841561575c578287015190505b61576685826156e8565b8655506157ce565b601f19841661577c86615558565b60005b828110156157a45784890151825560018201915060208501945060208101905061577f565b868310156157c157848901516157bd601f8916826156ca565b8355505b6001600288020188555050505b505050505050565b7f5072696365206d75737420626520657175616c20746f206c697374696e67207060008201527f72696365206d756c7469706c696564206279207175616e746974790000000000602082015250565b6000615832603b83613d23565b915061583d826157d6565b604082019050919050565b6000602082019050818103600083015261586181615825565b9050919050565b600060e08201905061587d600083018a613e5f565b61588a6020830189613e5f565b6158976040830188613e5f565b6158a460608301876140cc565b6158b160808301866140cc565b6158be60a0830185613c3c565b6158cb60c08301846140cc565b98975050505050505050565b7f4552433732313a20617070726f766520746f2063616c6c657200000000000000600082015250565b600061590d601983613d23565b9150615918826158d7565b602082019050919050565b6000602082019050818103600083015261593c81615900565b9050919050565b7f4552433732313a207472616e7366657220746f206e6f6e20455243373231526560008201527f63656976657220696d706c656d656e7465720000000000000000000000000000602082015250565b600061599f603283613d23565b91506159aa82615943565b604082019050919050565b600060208201905081810360008301526159ce81615992565b9050919050565b7f436f756e7465723a2064656372656d656e74206f766572666c6f770000000000600082015250565b6000615a0b601b83613d23565b9150615a16826159d5565b602082019050919050565b60006020820190508181036000830152615a3a816159fe565b9050919050565b600081519050919050565b600082825260208201905092915050565b6000615a6882615a41565b615a728185615a4c565b9350615a82818560208601613d34565b615a8b81613d5e565b840191505092915050565b6000608082019050615aab6000830187613e5f565b615ab86020830186613e5f565b615ac560408301856140cc565b8181036060830152615ad78184615a5d565b905095945050505050565b600081519050615af181613bd7565b92915050565b600060208284031215615b0d57615b0c613ba1565b5b6000615b1b84828501615ae2565b9150509291505056fea264697066735822122047aacd783f550944dbff426cb3bef7bf89f9378f19dbb59993b3e87293cd635264736f6c63430008120033",
  "linkReferences": {},
  "deployedLinkReferences": {}
}