{
  "_format": "hh-sol-artifact-1",
  "contractName": "GSOEToken",
  "sourceName": "contracts/GSOEToken.sol",
  "abi": [
    {
      "inputs": [],
      "stateMutability": "nonpayable",
      "type": "constructor"
    },
    {
      "inputs": [],
      "name": "AccessControlBadConfirmation",
      "type": "error"
    },
    {
      "inputs": [
        {
          "internalType": "address",
          "name": "account",
          "type": "address"
        },
        {
          "internalType": "bytes32",
          "name": "neededRole",
          "type": "bytes32"
        }
      ],
      "name": "AccessControlUnauthorizedAccount",
      "type": "error"
    },
    {
      "inputs": [
        {
          "internalType": "address",
          "name": "sender",
          "type": "address"
        },
        {
          "internalType": "uint256",
          "name": "tokenId",
          "type": "uint256"
        },
        {
          "internalType": "address",
          "name": "owner",
          "type": "address"
        }
      ],
      "name": "ERC721IncorrectOwner",
      "type": "error"
    },
    {
      "inputs": [
        {
          "internalType": "address",
          "name": "operator",
          "type": "address"
        },
        {
          "internalType": "uint256",
          "name": "tokenId",
          "type": "uint256"
        }
      ],
      "name": "ERC721InsufficientApproval",
      "type": "error"
    },
    {
      "inputs": [
        {
          "internalType": "address",
          "name": "approver",
          "type": "address"
        }
      ],
      "name": "ERC721InvalidApprover",
      "type": "error"
    },
    {
      "inputs": [
        {
          "internalType": "address",
          "name": "operator",
          "type": "address"
        }
      ],
      "name": "ERC721InvalidOperator",
      "type": "error"
    },
    {
      "inputs": [
        {
          "internalType": "address",
          "name": "owner",
          "type": "address"
        }
      ],
      "name": "ERC721InvalidOwner",
      "type": "error"
    },
    {
      "inputs": [
        {
          "internalType": "address",
          "name": "receiver",
          "type": "address"
        }
      ],
      "name": "ERC721InvalidReceiver",
      "type": "error"
    },
    {
      "inputs": [
        {
          "internalType": "address",
          "name": "sender",
          "type": "address"
        }
      ],
      "name": "ERC721InvalidSender",
      "type": "error"
    },
    {
      "inputs": [
        {
          "internalType": "uint256",
          "name": "tokenId",
          "type": "uint256"
        }
      ],
      "name": "ERC721NonexistentToken",
      "type": "error"
    },
    {
      "anonymous": false,
      "inputs": [
        {
          "indexed": true,
          "internalType": "address",
          "name": "owner",
          "type": "address"
        },
        {
          "indexed": true,
          "internalType": "address",
          "name": "approved",
          "type": "address"
        },
        {
          "indexed": true,
          "internalType": "uint256",
          "name": "tokenId",
          "type": "uint256"
        }
      ],
      "name": "Approval",
      "type": "event"
    },
    {
      "anonymous": false,
      "inputs": [
        {
          "indexed": true,
          "internalType": "address",
          "name": "owner",
          "type": "address"
        },
        {
          "indexed": true,
          "internalType": "address",
          "name": "operator",
          "type": "address"
        },
        {
          "indexed": false,
          "internalType": "bool",
          "name": "approved",
          "type": "bool"
        }
      ],
      "name": "ApprovalForAll",
      "type": "event"
    },
    {
      "anonymous": false,
      "inputs": [
        {
          "indexed": false,
          "internalType": "uint256",
          "name": "_fromTokenId",
          "type": "uint256"
        },
        {
          "indexed": false,
          "internalType": "uint256",
          "name": "_toTokenId",
          "type": "uint256"
        }
      ],
      "name": "BatchMetadataUpdate",
      "type": "event"
    },
    {
      "anonymous": false,
      "inputs": [
        {
          "indexed": false,
          "internalType": "uint256",
          "name": "batchNumber",
          "type": "uint256"
        },
        {
          "indexed": false,
          "internalType": "address",
          "name": "to",
          "type": "address"
        },
        {
          "indexed": false,
          "internalType": "uint256[]",
          "name": "tokenIds",
          "type": "uint256[]"
        },
        {
          "indexed": false,
          "internalType": "uint256",
          "name": "royaltyPercentage",
          "type": "uint256"
        },
        {
          "indexed": false,
          "internalType": "address",
          "name": "creator",
          "type": "address"
        }
      ],
      "name": "BatchMinted",
      "type": "event"
    },
    {
      "anonymous": false,
      "inputs": [
        {
          "indexed": false,
          "internalType": "uint256",
          "name": "_tokenId",
          "type": "uint256"
        }
      ],
      "name": "MetadataUpdate",
      "type": "event"
    },
    {
      "anonymous": false,
      "inputs": [
        {
          "indexed": true,
          "internalType": "bytes32",
          "name": "role",
          "type": "bytes32"
        },
        {
          "indexed": true,
          "internalType": "bytes32",
          "name": "previousAdminRole",
          "type": "bytes32"
        },
        {
          "indexed": true,
          "internalType": "bytes32",
          "name": "newAdminRole",
          "type": "bytes32"
        }
      ],
      "name": "RoleAdminChanged",
      "type": "event"
    },
    {
      "anonymous": false,
      "inputs": [
        {
          "indexed": true,
          "internalType": "bytes32",
          "name": "role",
          "type": "bytes32"
        },
        {
          "indexed": true,
          "internalType": "address",
          "name": "account",
          "type": "address"
        },
        {
          "indexed": true,
          "internalType": "address",
          "name": "sender",
          "type": "address"
        }
      ],
      "name": "RoleGranted",
      "type": "event"
    },
    {
      "anonymous": false,
      "inputs": [
        {
          "indexed": true,
          "internalType": "bytes32",
          "name": "role",
          "type": "bytes32"
        },
        {
          "indexed": true,
          "internalType": "address",
          "name": "account",
          "type": "address"
        },
        {
          "indexed": true,
          "internalType": "address",
          "name": "sender",
          "type": "address"
        }
      ],
      "name": "RoleRevoked",
      "type": "event"
    },
    {
      "anonymous": false,
      "inputs": [
        {
          "indexed": true,
          "internalType": "address",
          "name": "from",
          "type": "address"
        },
        {
          "indexed": true,
          "internalType": "address",
          "name": "to",
          "type": "address"
        },
        {
          "indexed": true,
          "internalType": "uint256",
          "name": "tokenId",
          "type": "uint256"
        }
      ],
      "name": "Transfer",
      "type": "event"
    },
    {
      "inputs": [],
      "name": "DEFAULT_ADMIN_ROLE",
      "outputs": [
        {
          "internalType": "bytes32",
          "name": "",
          "type": "bytes32"
        }
      ],
      "stateMutability": "view",
      "type": "function"
    },
    {
      "inputs": [],
      "name": "MINTER_ROLE",
      "outputs": [
        {
          "internalType": "bytes32",
          "name": "",
          "type": "bytes32"
        }
      ],
      "stateMutability": "view",
      "type": "function"
    },
    {
      "inputs": [
        {
          "internalType": "address",
          "name": "to",
          "type": "address"
        },
        {
          "internalType": "uint256",
          "name": "tokenId",
          "type": "uint256"
        }
      ],
      "name": "approve",
      "outputs": [],
      "stateMutability": "nonpayable",
      "type": "function"
    },
    {
      "inputs": [
        {
          "internalType": "address",
          "name": "owner",
          "type": "address"
        }
      ],
      "name": "balanceOf",
      "outputs": [
        {
          "internalType": "uint256",
          "name": "",
          "type": "uint256"
        }
      ],
      "stateMutability": "view",
      "type": "function"
    },
    {
      "inputs": [
        {
          "internalType": "uint256",
          "name": "",
          "type": "uint256"
        }
      ],
      "name": "batchNumberOf",
      "outputs": [
        {
          "internalType": "uint256",
          "name": "",
          "type": "uint256"
        }
      ],
      "stateMutability": "view",
      "type": "function"
    },
    {
      "inputs": [
        {
          "internalType": "uint256",
          "name": "",
          "type": "uint256"
        }
      ],
      "name": "batchSpecificIdOf",
      "outputs": [
        {
          "internalType": "uint256",
          "name": "",
          "type": "uint256"
        }
      ],
      "stateMutability": "view",
      "type": "function"
    },
    {
      "inputs": [
        {
          "internalType": "uint256",
          "name": "",
          "type": "uint256"
        }
      ],
      "name": "creatorOf",
      "outputs": [
        {
          "internalType": "address",
          "name": "",
          "type": "address"
        }
      ],
      "stateMutability": "view",
      "type": "function"
    },
    {
      "inputs": [],
      "name": "currentBatchNumber",
      "outputs": [
        {
          "internalType": "uint256",
          "name": "",
          "type": "uint256"
        }
      ],
      "stateMutability": "view",
      "type": "function"
    },
    {
      "inputs": [
        {
          "internalType": "uint256",
          "name": "tokenId",
          "type": "uint256"
        }
      ],
      "name": "exists",
      "outputs": [
        {
          "internalType": "bool",
          "name": "",
          "type": "bool"
        }
      ],
      "stateMutability": "view",
      "type": "function"
    },
    {
      "inputs": [
        {
          "internalType": "uint256",
          "name": "tokenId",
          "type": "uint256"
        }
      ],
      "name": "getApproved",
      "outputs": [
        {
          "internalType": "address",
          "name": "",
          "type": "address"
        }
      ],
      "stateMutability": "view",
      "type": "function"
    },
    {
      "inputs": [
        {
          "internalType": "bytes32",
          "name": "role",
          "type": "bytes32"
        }
      ],
      "name": "getRoleAdmin",
      "outputs": [
        {
          "internalType": "bytes32",
          "name": "",
          "type": "bytes32"
        }
      ],
      "stateMutability": "view",
      "type": "function"
    },
    {
      "inputs": [
        {
          "internalType": "uint256",
          "name": "tokenId",
          "type": "uint256"
        }
      ],
      "name": "getTokenInfo",
      "outputs": [
        {
          "internalType": "uint256",
          "name": "batchNumber",
          "type": "uint256"
        },
        {
          "internalType": "uint256",
          "name": "batchSpecificId",
          "type": "uint256"
        },
        {
          "internalType": "uint256",
          "name": "royaltyPercentage",
          "type": "uint256"
        },
        {
          "internalType": "address",
          "name": "creator",
          "type": "address"
        }
      ],
      "stateMutability": "view",
      "type": "function"
    },
    {
      "inputs": [
        {
          "internalType": "bytes32",
          "name": "role",
          "type": "bytes32"
        },
        {
          "internalType": "address",
          "name": "account",
          "type": "address"
        }
      ],
      "name": "grantRole",
      "outputs": [],
      "stateMutability": "nonpayable",
      "type": "function"
    },
    {
      "inputs": [
        {
          "internalType": "bytes32",
          "name": "role",
          "type": "bytes32"
        },
        {
          "internalType": "address",
          "name": "account",
          "type": "address"
        }
      ],
      "name": "hasRole",
      "outputs": [
        {
          "internalType": "bool",
          "name": "",
          "type": "bool"
        }
      ],
      "stateMutability": "view",
      "type": "function"
    },
    {
      "inputs": [
        {
          "internalType": "address",
          "name": "owner",
          "type": "address"
        },
        {
          "internalType": "address",
          "name": "operator",
          "type": "address"
        }
      ],
      "name": "isApprovedForAll",
      "outputs": [
        {
          "internalType": "bool",
          "name": "",
          "type": "bool"
        }
      ],
      "stateMutability": "view",
      "type": "function"
    },
    {
      "inputs": [
        {
          "internalType": "address",
          "name": "to",
          "type": "address"
        },
        {
          "internalType": "string",
          "name": "tokenURI",
          "type": "string"
        },
        {
          "internalType": "uint256",
          "name": "quantity",
          "type": "uint256"
        },
        {
          "internalType": "uint256",
          "name": "royaltyPercentage",
          "type": "uint256"
        }
      ],
      "name": "mintBatch",
      "outputs": [
        {
          "internalType": "uint256[]",
          "name": "",
          "type": "uint256[]"
        }
      ],
      "stateMutability": "nonpayable",
      "type": "function"
    },
    {
      "inputs": [],
      "name": "name",
      "outputs": [
        {
          "internalType": "string",
          "name": "",
          "type": "string"
        }
      ],
      "stateMutability": "view",
      "type": "function"
    },
    {
      "inputs": [
        {
          "internalType": "uint256",
          "name": "tokenId",
          "type": "uint256"
        }
      ],
      "name": "ownerOf",
      "outputs": [
        {
          "internalType": "address",
          "name": "",
          "type": "address"
        }
      ],
      "stateMutability": "view",
      "type": "function"
    },
    {
      "inputs": [
        {
          "internalType": "bytes32",
          "name": "role",
          "type": "bytes32"
        },
        {
          "internalType": "address",
          "name": "callerConfirmation",
          "type": "address"
        }
      ],
      "name": "renounceRole",
      "outputs": [],
      "stateMutability": "nonpayable",
      "type": "function"
    },
    {
      "inputs": [
        {
          "internalType": "bytes32",
          "name": "role",
          "type": "bytes32"
        },
        {
          "internalType": "address",
          "name": "account",
          "type": "address"
        }
      ],
      "name": "revokeRole",
      "outputs": [],
      "stateMutability": "nonpayable",
      "type": "function"
    },
    {
      "inputs": [
        {
          "internalType": "uint256",
          "name": "",
          "type": "uint256"
        }
      ],
      "name": "royaltyPercentageOf",
      "outputs": [
        {
          "internalType": "uint256",
          "name": "",
          "type": "uint256"
        }
      ],
      "stateMutability": "view",
      "type": "function"
    },
    {
      "inputs": [
        {
          "internalType": "address",
          "name": "from",
          "type": "address"
        },
        {
          "internalType": "address",
          "name": "to",
          "type": "address"
        },
        {
          "internalType": "uint256",
          "name": "tokenId",
          "type": "uint256"
        }
      ],
      "name": "safeTransferFrom",
      "outputs": [],
      "stateMutability": "nonpayable",
      "type": "function"
    },
    {
      "inputs": [
        {
          "internalType": "address",
          "name": "from",
          "type": "address"
        },
        {
          "internalType": "address",
          "name": "to",
          "type": "address"
        },
        {
          "internalType": "uint256",
          "name": "tokenId",
          "type": "uint256"
        },
        {
          "internalType": "bytes",
          "name": "data",
          "type": "bytes"
        }
      ],
      "name": "safeTransferFrom",
      "outputs": [],
      "stateMutability": "nonpayable",
      "type": "function"
    },
    {
      "inputs": [
        {
          "internalType": "address",
          "name": "operator",
          "type": "address"
        },
        {
          "internalType": "bool",
          "name": "approved",
          "type": "bool"
        }
      ],
      "name": "setApprovalForAll",
      "outputs": [],
      "stateMutability": "nonpayable",
      "type": "function"
    },
    {
      "inputs": [
        {
          "internalType": "bytes4",
          "name": "interfaceId",
          "type": "bytes4"
        }
      ],
      "name": "supportsInterface",
      "outputs": [
        {
          "internalType": "bool",
          "name": "",
          "type": "bool"
        }
      ],
      "stateMutability": "view",
      "type": "function"
    },
    {
      "inputs": [],
      "name": "symbol",
      "outputs": [
        {
          "internalType": "string",
          "name": "",
          "type": "string"
        }
      ],
      "stateMutability": "view",
      "type": "function"
    },
    {
      "inputs": [
        {
          "internalType": "uint256",
          "name": "tokenId",
          "type": "uint256"
        }
      ],
      "name": "tokenURI",
      "outputs": [
        {
          "internalType": "string",
          "name": "",
          "type": "string"
        }
      ],
      "stateMutability": "view",
      "type": "function"
    },
    {
      "inputs": [
        {
          "internalType": "address",
          "name": "from",
          "type": "address"
        },
        {
          "internalType": "address",
          "name": "to",
          "type": "address"
        },
        {
          "internalType": "uint256",
          "name": "tokenId",
          "type": "uint256"
        }
      ],
      "name": "transferFrom",
      "outputs": [],
      "stateMutability": "nonpayable",
      "type": "function"
    }
  ],
  "bytecode": "0x608060405260016009553480156200001657600080fd5b506040518060400160405280601681526020017f47726561746573742053686f77204f6e204561727468000000000000000000008152506040518060400160405280600481526020017f47534f45000000000000000000000000000000000000000000000000000000008152508160009081620000949190620004e9565b508060019081620000a69190620004e9565b505050620000be6000801b33620000f860201b60201c565b50620000f17f9f2df0fed2c77648de5860a4cc508cd0818c85b8b8a1ab4ceeef8d981c8956a633620000f860201b60201c565b50620005d0565b60006200010c8383620001fc60201b60201c565b620001f15760016007600085815260200190815260200160002060000160008473ffffffffffffffffffffffffffffffffffffffff1673ffffffffffffffffffffffffffffffffffffffff16815260200190815260200160002060006101000a81548160ff0219169083151502179055506200018d6200026760201b60201c565b73ffffffffffffffffffffffffffffffffffffffff168273ffffffffffffffffffffffffffffffffffffffff16847f2f8788117e7eff1d82e926ec794901d17c78024a50270940304540a733656f0d60405160405180910390a460019050620001f6565b600090505b92915050565b60006007600084815260200190815260200160002060000160008373ffffffffffffffffffffffffffffffffffffffff1673ffffffffffffffffffffffffffffffffffffffff16815260200190815260200160002060009054906101000a900460ff16905092915050565b600033905090565b600081519050919050565b7f4e487b7100000000000000000000000000000000000000000000000000000000600052604160045260246000fd5b7f4e487b7100000000000000000000000000000000000000000000000000000000600052602260045260246000fd5b60006002820490506001821680620002f157607f821691505b602082108103620003075762000306620002a9565b5b50919050565b60008190508160005260206000209050919050565b60006020601f8301049050919050565b600082821b905092915050565b600060088302620003717fffffffffffffffffffffffffffffffffffffffffffffffffffffffffffffffff8262000332565b6200037d868362000332565b95508019841693508086168417925050509392505050565b6000819050919050565b6000819050919050565b6000620003ca620003c4620003be8462000395565b6200039f565b62000395565b9050919050565b6000819050919050565b620003e683620003a9565b620003fe620003f582620003d1565b8484546200033f565b825550505050565b600090565b6200041562000406565b62000422818484620003db565b505050565b5b818110156200044a576200043e6000826200040b565b60018101905062000428565b5050565b601f821115620004995762000463816200030d565b6200046e8462000322565b810160208510156200047e578190505b620004966200048d8562000322565b83018262000427565b50505b505050565b600082821c905092915050565b6000620004be600019846008026200049e565b1980831691505092915050565b6000620004d98383620004ab565b9150826002028217905092915050565b620004f4826200026f565b67ffffffffffffffff81111562000510576200050f6200027a565b5b6200051c8254620002d8565b620005298282856200044e565b600060209050601f8311600181146200056157600084156200054c578287015190505b620005588582620004cb565b865550620005c8565b601f19841662000571866200030d565b60005b828110156200059b5784890151825560018201915060208501945060208101905062000574565b86831015620005bb5784890151620005b7601f891682620004ab565b8355505b6001600288020188555050505b505050505050565b61327780620005e06000396000f3fe608060405234801561001057600080fd5b50600436106101c45760003560e01c806370a08231116100f9578063a6064ab011610097578063d539139311610071578063d53913931461058a578063d547741f146105a8578063e985e9c5146105c4578063f48fa80b146105f4576101c4565b8063a6064ab01461050e578063b88d4fde1461053e578063c87b56dd1461055a576101c4565b806391d14854116100d357806391d148541461048657806395d89b41146104b6578063a217fddf146104d4578063a22cb465146104f2576101c4565b806370a08231146103f357806378d3bcf1146104235780638c7a63ae14610453576101c4565b806336568abe116101665780634f558e79116101405780634f558e7914610333578063589a1743146103635780636352211e146103935780636d74e2bd146103c3576101c4565b806336568abe146102cb5780633f023d07146102e757806342842e0e14610317576101c4565b8063095ea7b3116101a2578063095ea7b31461024757806323b872dd14610263578063248a9ca31461027f5780632f2ff15d146102af576101c4565b806301ffc9a7146101c957806306fdde03146101f9578063081812fc14610217575b600080fd5b6101e360048036038101906101de91906122f8565b610612565b6040516101f09190612340565b60405180910390f35b610201610624565b60405161020e91906123eb565b60405180910390f35b610231600480360381019061022c9190612443565b6106b6565b60405161023e91906124b1565b60405180910390f35b610261600480360381019061025c91906124f8565b6106d2565b005b61027d60048036038101906102789190612538565b6106e8565b005b610299600480360381019061029491906125c1565b6107ea565b6040516102a691906125fd565b60405180910390f35b6102c960048036038101906102c49190612618565b61080a565b005b6102e560048036038101906102e09190612618565b61082c565b005b61030160048036038101906102fc9190612443565b6108a7565b60405161030e9190612667565b60405180910390f35b610331600480360381019061032c9190612538565b6108bf565b005b61034d60048036038101906103489190612443565b6108df565b60405161035a9190612340565b60405180910390f35b61037d60048036038101906103789190612443565b610920565b60405161038a91906124b1565b60405180910390f35b6103ad60048036038101906103a89190612443565b610953565b6040516103ba91906124b1565b60405180910390f35b6103dd60048036038101906103d891906127b7565b610965565b6040516103ea91906128f8565b60405180910390f35b61040d6004803603810190610408919061291a565b610be6565b60405161041a9190612667565b60405180910390f35b61043d60048036038101906104389190612443565b610ca0565b60405161044a9190612667565b60405180910390f35b61046d60048036038101906104689190612443565b610cb8565b60405161047d9493929190612947565b60405180910390f35b6104a0600480360381019061049b9190612618565b610d3d565b6040516104ad9190612340565b60405180910390f35b6104be610da8565b6040516104cb91906123eb565b60405180910390f35b6104dc610e3a565b6040516104e991906125fd565b60405180910390f35b61050c600480360381019061050791906129b8565b610e41565b005b61052860048036038101906105239190612443565b610e57565b6040516105359190612667565b60405180910390f35b61055860048036038101906105539190612a99565b610e6f565b005b610574600480360381019061056f9190612443565b610e8c565b60405161058191906123eb565b60405180910390f35b610592610f9f565b60405161059f91906125fd565b60405180910390f35b6105c260048036038101906105bd9190612618565b610fc3565b005b6105de60048036038101906105d99190612b1c565b610fe5565b6040516105eb9190612340565b60405180910390f35b6105fc611079565b6040516106099190612667565b60405180910390f35b600061061d8261107f565b9050919050565b60606000805461063390612b8b565b80601f016020809104026020016040519081016040528092919081815260200182805461065f90612b8b565b80156106ac5780601f10610681576101008083540402835291602001916106ac565b820191906000526020600020905b81548152906001019060200180831161068f57829003601f168201915b5050505050905090565b60006106c1826110f9565b506106cb82611181565b9050919050565b6106e482826106df6111be565b6111c6565b5050565b600073ffffffffffffffffffffffffffffffffffffffff168273ffffffffffffffffffffffffffffffffffffffff160361075a5760006040517f64a0ae9200000000000000000000000000000000000000000000000000000000815260040161075191906124b1565b60405180910390fd5b600061076e83836107696111be565b6111d8565b90508373ffffffffffffffffffffffffffffffffffffffff168173ffffffffffffffffffffffffffffffffffffffff16146107e4578382826040517f64283d7b0000000000000000000000000000000000000000000000000000000081526004016107db93929190612bbc565b60405180910390fd5b50505050565b600060076000838152602001908152602001600020600101549050919050565b610813826107ea565b61081c816113f2565b6108268383611406565b50505050565b6108346111be565b73ffffffffffffffffffffffffffffffffffffffff168173ffffffffffffffffffffffffffffffffffffffff1614610898576040517f6697b23200000000000000000000000000000000000000000000000000000000815260040160405180910390fd5b6108a282826114f8565b505050565b600b6020528060005260406000206000915090505481565b6108da83838360405180602001604052806000815250610e6f565b505050565b60008073ffffffffffffffffffffffffffffffffffffffff16610901836115eb565b73ffffffffffffffffffffffffffffffffffffffff1614159050919050565b600d6020528060005260406000206000915054906101000a900473ffffffffffffffffffffffffffffffffffffffff1681565b600061095e826110f9565b9050919050565b60607f9f2df0fed2c77648de5860a4cc508cd0818c85b8b8a1ab4ceeef8d981c8956a6610991816113f2565b600084116109d4576040517f08c379a00000000000000000000000000000000000000000000000000000000081526004016109cb90612c3f565b60405180910390fd5b6064831115610a18576040517f08c379a0000000000000000000000000000000000000000000000000000000008152600401610a0f90612cab565b60405180910390fd5b60008467ffffffffffffffff811115610a3457610a3361268c565b5b604051908082528060200260200182016040528015610a625781602001602082028036833780820191505090505b50905060005b85811015610b7f5760086000815480929190610a8390612cfa565b919050555060006008549050610a998982611628565b610aa38189611721565b85600c600083815260200190815260200160002081905550600182610ac89190612d42565b600b600083815260200190815260200160002081905550600954600a60008381526020019081526020016000208190555088600d600083815260200190815260200160002060006101000a81548173ffffffffffffffffffffffffffffffffffffffff021916908373ffffffffffffffffffffffffffffffffffffffff16021790555080838381518110610b5f57610b5e612d76565b5b602002602001018181525050508080610b7790612cfa565b915050610a68565b507f083b715635bb4a3650434ba1eaa5a10bf104dd7d2d3354af8078572703c4a53d6009548883878b604051610bb9959493929190612da5565b60405180910390a160096000815480929190610bd490612cfa565b91905055508092505050949350505050565b60008073ffffffffffffffffffffffffffffffffffffffff168273ffffffffffffffffffffffffffffffffffffffff1603610c595760006040517f89c62b64000000000000000000000000000000000000000000000000000000008152600401610c5091906124b1565b60405180910390fd5b600360008373ffffffffffffffffffffffffffffffffffffffff1673ffffffffffffffffffffffffffffffffffffffff168152602001908152602001600020549050919050565b600c6020528060005260406000206000915090505481565b600080600080600a600086815260200190815260200160002054600b600087815260200190815260200160002054600c600088815260200190815260200160002054600d600089815260200190815260200160002060009054906101000a900473ffffffffffffffffffffffffffffffffffffffff1693509350935093509193509193565b60006007600084815260200190815260200160002060000160008373ffffffffffffffffffffffffffffffffffffffff1673ffffffffffffffffffffffffffffffffffffffff16815260200190815260200160002060009054906101000a900460ff16905092915050565b606060018054610db790612b8b565b80601f0160208091040260200160405190810160405280929190818152602001828054610de390612b8b565b8015610e305780601f10610e0557610100808354040283529160200191610e30565b820191906000526020600020905b815481529060010190602001808311610e1357829003601f168201915b5050505050905090565b6000801b81565b610e53610e4c6111be565b838361177d565b5050565b600a6020528060005260406000206000915090505481565b610e7a8484846106e8565b610e86848484846118ec565b50505050565b6060610e97826110f9565b506000600660008481526020019081526020016000208054610eb890612b8b565b80601f0160208091040260200160405190810160405280929190818152602001828054610ee490612b8b565b8015610f315780601f10610f0657610100808354040283529160200191610f31565b820191906000526020600020905b815481529060010190602001808311610f1457829003601f168201915b505050505090506000610f42611aa3565b90506000815103610f57578192505050610f9a565b600082511115610f8c578082604051602001610f74929190612e3b565b60405160208183030381529060405292505050610f9a565b610f9584611aba565b925050505b919050565b7f9f2df0fed2c77648de5860a4cc508cd0818c85b8b8a1ab4ceeef8d981c8956a681565b610fcc826107ea565b610fd5816113f2565b610fdf83836114f8565b50505050565b6000600560008473ffffffffffffffffffffffffffffffffffffffff1673ffffffffffffffffffffffffffffffffffffffff16815260200190815260200160002060008373ffffffffffffffffffffffffffffffffffffffff1673ffffffffffffffffffffffffffffffffffffffff16815260200190815260200160002060009054906101000a900460ff16905092915050565b60095481565b60007f7965db0b000000000000000000000000000000000000000000000000000000007bffffffffffffffffffffffffffffffffffffffffffffffffffffffff1916827bffffffffffffffffffffffffffffffffffffffffffffffffffffffff191614806110f257506110f182611b23565b5b9050919050565b600080611105836115eb565b9050600073ffffffffffffffffffffffffffffffffffffffff168173ffffffffffffffffffffffffffffffffffffffff160361117857826040517f7e27328900000000000000000000000000000000000000000000000000000000815260040161116f9190612667565b60405180910390fd5b80915050919050565b60006004600083815260200190815260200160002060009054906101000a900473ffffffffffffffffffffffffffffffffffffffff169050919050565b600033905090565b6111d38383836001611b84565b505050565b6000806111e4846115eb565b9050600073ffffffffffffffffffffffffffffffffffffffff168373ffffffffffffffffffffffffffffffffffffffff161461122657611225818486611d49565b5b600073ffffffffffffffffffffffffffffffffffffffff168173ffffffffffffffffffffffffffffffffffffffff16146112b757611268600085600080611b84565b6001600360008373ffffffffffffffffffffffffffffffffffffffff1673ffffffffffffffffffffffffffffffffffffffff168152602001908152602001600020600082825403925050819055505b600073ffffffffffffffffffffffffffffffffffffffff168573ffffffffffffffffffffffffffffffffffffffff161461133a576001600360008773ffffffffffffffffffffffffffffffffffffffff1673ffffffffffffffffffffffffffffffffffffffff168152602001908152602001600020600082825401925050819055505b846002600086815260200190815260200160002060006101000a81548173ffffffffffffffffffffffffffffffffffffffff021916908373ffffffffffffffffffffffffffffffffffffffff160217905550838573ffffffffffffffffffffffffffffffffffffffff168273ffffffffffffffffffffffffffffffffffffffff167fddf252ad1be2c89b69c2b068fc378daa952ba7f163c4a11628f55a4df523b3ef60405160405180910390a4809150509392505050565b611403816113fe6111be565b611e0d565b50565b60006114128383610d3d565b6114ed5760016007600085815260200190815260200160002060000160008473ffffffffffffffffffffffffffffffffffffffff1673ffffffffffffffffffffffffffffffffffffffff16815260200190815260200160002060006101000a81548160ff02191690831515021790555061148a6111be565b73ffffffffffffffffffffffffffffffffffffffff168273ffffffffffffffffffffffffffffffffffffffff16847f2f8788117e7eff1d82e926ec794901d17c78024a50270940304540a733656f0d60405160405180910390a4600190506114f2565b600090505b92915050565b60006115048383610d3d565b156115e05760006007600085815260200190815260200160002060000160008473ffffffffffffffffffffffffffffffffffffffff1673ffffffffffffffffffffffffffffffffffffffff16815260200190815260200160002060006101000a81548160ff02191690831515021790555061157d6111be565b73ffffffffffffffffffffffffffffffffffffffff168273ffffffffffffffffffffffffffffffffffffffff16847ff6391f5c32d9c69d2a47ea670b442974b53935d1edc7fd64eb21e047a839171b60405160405180910390a4600190506115e5565b600090505b92915050565b60006002600083815260200190815260200160002060009054906101000a900473ffffffffffffffffffffffffffffffffffffffff169050919050565b600073ffffffffffffffffffffffffffffffffffffffff168273ffffffffffffffffffffffffffffffffffffffff160361169a5760006040517f64a0ae9200000000000000000000000000000000000000000000000000000000815260040161169191906124b1565b60405180910390fd5b60006116a8838360006111d8565b9050600073ffffffffffffffffffffffffffffffffffffffff168173ffffffffffffffffffffffffffffffffffffffff161461171c5760006040517f73c6ac6e00000000000000000000000000000000000000000000000000000000815260040161171391906124b1565b60405180910390fd5b505050565b80600660008481526020019081526020016000209081611741919061300b565b507ff8e1a15aba9398e019f0b49df1a4fde98ee17ae345cb5f6b5e2c27f5033e8ce7826040516117719190612667565b60405180910390a15050565b600073ffffffffffffffffffffffffffffffffffffffff168273ffffffffffffffffffffffffffffffffffffffff16036117ee57816040517f5b08ba180000000000000000000000000000000000000000000000000000000081526004016117e591906124b1565b60405180910390fd5b80600560008573ffffffffffffffffffffffffffffffffffffffff1673ffffffffffffffffffffffffffffffffffffffff16815260200190815260200160002060008473ffffffffffffffffffffffffffffffffffffffff1673ffffffffffffffffffffffffffffffffffffffff16815260200190815260200160002060006101000a81548160ff0219169083151502179055508173ffffffffffffffffffffffffffffffffffffffff168373ffffffffffffffffffffffffffffffffffffffff167f17307eab39ab6107e8899845ad3d59bd9653f200f220920489ca2b5937696c31836040516118df9190612340565b60405180910390a3505050565b60008373ffffffffffffffffffffffffffffffffffffffff163b1115611a9d578273ffffffffffffffffffffffffffffffffffffffff1663150b7a026119306111be565b8685856040518563ffffffff1660e01b81526004016119529493929190613132565b6020604051808303816000875af192505050801561198e57506040513d601f19601f8201168201806040525081019061198b9190613193565b60015b611a12573d80600081146119be576040519150601f19603f3d011682016040523d82523d6000602084013e6119c3565b606091505b506000815103611a0a57836040517f64a0ae92000000000000000000000000000000000000000000000000000000008152600401611a0191906124b1565b60405180910390fd5b805181602001fd5b63150b7a0260e01b7bffffffffffffffffffffffffffffffffffffffffffffffffffffffff1916817bffffffffffffffffffffffffffffffffffffffffffffffffffffffff191614611a9b57836040517f64a0ae92000000000000000000000000000000000000000000000000000000008152600401611a9291906124b1565b60405180910390fd5b505b50505050565b606060405180602001604052806000815250905090565b6060611ac5826110f9565b506000611ad0611aa3565b90506000815111611af05760405180602001604052806000815250611b1b565b80611afa84611e5e565b604051602001611b0b929190612e3b565b6040516020818303038152906040525b915050919050565b6000634906490660e01b7bffffffffffffffffffffffffffffffffffffffffffffffffffffffff1916827bffffffffffffffffffffffffffffffffffffffffffffffffffffffff19161480611b7d5750611b7c82611f2c565b5b9050919050565b8080611bbd5750600073ffffffffffffffffffffffffffffffffffffffff168273ffffffffffffffffffffffffffffffffffffffff1614155b15611cf1576000611bcd846110f9565b9050600073ffffffffffffffffffffffffffffffffffffffff168373ffffffffffffffffffffffffffffffffffffffff1614158015611c3857508273ffffffffffffffffffffffffffffffffffffffff168173ffffffffffffffffffffffffffffffffffffffff1614155b8015611c4b5750611c498184610fe5565b155b15611c8d57826040517fa9fbf51f000000000000000000000000000000000000000000000000000000008152600401611c8491906124b1565b60405180910390fd5b8115611cef57838573ffffffffffffffffffffffffffffffffffffffff168273ffffffffffffffffffffffffffffffffffffffff167f8c5be1e5ebec7d5bd14f71427d1e84f3dd0314c0f7b2291e5b200ac8c7c3b92560405160405180910390a45b505b836004600085815260200190815260200160002060006101000a81548173ffffffffffffffffffffffffffffffffffffffff021916908373ffffffffffffffffffffffffffffffffffffffff16021790555050505050565b611d5483838361200e565b611e0857600073ffffffffffffffffffffffffffffffffffffffff168373ffffffffffffffffffffffffffffffffffffffff1603611dc957806040517f7e273289000000000000000000000000000000000000000000000000000000008152600401611dc09190612667565b60405180910390fd5b81816040517f177e802f000000000000000000000000000000000000000000000000000000008152600401611dff9291906131c0565b60405180910390fd5b505050565b611e178282610d3d565b611e5a5780826040517fe2517d3f000000000000000000000000000000000000000000000000000000008152600401611e519291906131e9565b60405180910390fd5b5050565b606060006001611e6d846120cf565b01905060008167ffffffffffffffff811115611e8c57611e8b61268c565b5b6040519080825280601f01601f191660200182016040528015611ebe5781602001600182028036833780820191505090505b509050600082602001820190505b600115611f21578080600190039150507f3031323334353637383961626364656600000000000000000000000000000000600a86061a8153600a8581611f1557611f14613212565b5b04945060008503611ecc575b819350505050919050565b60007f80ac58cd000000000000000000000000000000000000000000000000000000007bffffffffffffffffffffffffffffffffffffffffffffffffffffffff1916827bffffffffffffffffffffffffffffffffffffffffffffffffffffffff19161480611ff757507f5b5e139f000000000000000000000000000000000000000000000000000000007bffffffffffffffffffffffffffffffffffffffffffffffffffffffff1916827bffffffffffffffffffffffffffffffffffffffffffffffffffffffff1916145b80612007575061200682612222565b5b9050919050565b60008073ffffffffffffffffffffffffffffffffffffffff168373ffffffffffffffffffffffffffffffffffffffff16141580156120c657508273ffffffffffffffffffffffffffffffffffffffff168473ffffffffffffffffffffffffffffffffffffffff16148061208757506120868484610fe5565b5b806120c557508273ffffffffffffffffffffffffffffffffffffffff166120ad83611181565b73ffffffffffffffffffffffffffffffffffffffff16145b5b90509392505050565b600080600090507a184f03e93ff9f4daa797ed6e38ed64bf6a1f010000000000000000831061212d577a184f03e93ff9f4daa797ed6e38ed64bf6a1f010000000000000000838161212357612122613212565b5b0492506040810190505b6d04ee2d6d415b85acef8100000000831061216a576d04ee2d6d415b85acef810000000083816121605761215f613212565b5b0492506020810190505b662386f26fc10000831061219957662386f26fc10000838161218f5761218e613212565b5b0492506010810190505b6305f5e10083106121c2576305f5e10083816121b8576121b7613212565b5b0492506008810190505b61271083106121e75761271083816121dd576121dc613212565b5b0492506004810190505b6064831061220a5760648381612200576121ff613212565b5b0492506002810190505b600a8310612219576001810190505b80915050919050565b60007f01ffc9a7000000000000000000000000000000000000000000000000000000007bffffffffffffffffffffffffffffffffffffffffffffffffffffffff1916827bffffffffffffffffffffffffffffffffffffffffffffffffffffffff1916149050919050565b6000604051905090565b600080fd5b600080fd5b60007fffffffff0000000000000000000000000000000000000000000000000000000082169050919050565b6122d5816122a0565b81146122e057600080fd5b50565b6000813590506122f2816122cc565b92915050565b60006020828403121561230e5761230d612296565b5b600061231c848285016122e3565b91505092915050565b60008115159050919050565b61233a81612325565b82525050565b60006020820190506123556000830184612331565b92915050565b600081519050919050565b600082825260208201905092915050565b60005b8381101561239557808201518184015260208101905061237a565b60008484015250505050565b6000601f19601f8301169050919050565b60006123bd8261235b565b6123c78185612366565b93506123d7818560208601612377565b6123e0816123a1565b840191505092915050565b6000602082019050818103600083015261240581846123b2565b905092915050565b6000819050919050565b6124208161240d565b811461242b57600080fd5b50565b60008135905061243d81612417565b92915050565b60006020828403121561245957612458612296565b5b60006124678482850161242e565b91505092915050565b600073ffffffffffffffffffffffffffffffffffffffff82169050919050565b600061249b82612470565b9050919050565b6124ab81612490565b82525050565b60006020820190506124c660008301846124a2565b92915050565b6124d581612490565b81146124e057600080fd5b50565b6000813590506124f2816124cc565b92915050565b6000806040838503121561250f5761250e612296565b5b600061251d858286016124e3565b925050602061252e8582860161242e565b9150509250929050565b60008060006060848603121561255157612550612296565b5b600061255f868287016124e3565b9350506020612570868287016124e3565b92505060406125818682870161242e565b9150509250925092565b6000819050919050565b61259e8161258b565b81146125a957600080fd5b50565b6000813590506125bb81612595565b92915050565b6000602082840312156125d7576125d6612296565b5b60006125e5848285016125ac565b91505092915050565b6125f78161258b565b82525050565b600060208201905061261260008301846125ee565b92915050565b6000806040838503121561262f5761262e612296565b5b600061263d858286016125ac565b925050602061264e858286016124e3565b9150509250929050565b6126618161240d565b82525050565b600060208201905061267c6000830184612658565b92915050565b600080fd5b600080fd5b7f4e487b7100000000000000000000000000000000000000000000000000000000600052604160045260246000fd5b6126c4826123a1565b810181811067ffffffffffffffff821117156126e3576126e261268c565b5b80604052505050565b60006126f661228c565b905061270282826126bb565b919050565b600067ffffffffffffffff8211156127225761272161268c565b5b61272b826123a1565b9050602081019050919050565b82818337600083830152505050565b600061275a61275584612707565b6126ec565b90508281526020810184848401111561277657612775612687565b5b612781848285612738565b509392505050565b600082601f83011261279e5761279d612682565b5b81356127ae848260208601612747565b91505092915050565b600080600080608085870312156127d1576127d0612296565b5b60006127df878288016124e3565b945050602085013567ffffffffffffffff811115612800576127ff61229b565b5b61280c87828801612789565b935050604061281d8782880161242e565b925050606061282e8782880161242e565b91505092959194509250565b600081519050919050565b600082825260208201905092915050565b6000819050602082019050919050565b61286f8161240d565b82525050565b60006128818383612866565b60208301905092915050565b6000602082019050919050565b60006128a58261283a565b6128af8185612845565b93506128ba83612856565b8060005b838110156128eb5781516128d28882612875565b97506128dd8361288d565b9250506001810190506128be565b5085935050505092915050565b60006020820190508181036000830152612912818461289a565b905092915050565b6000602082840312156129305761292f612296565b5b600061293e848285016124e3565b91505092915050565b600060808201905061295c6000830187612658565b6129696020830186612658565b6129766040830185612658565b61298360608301846124a2565b95945050505050565b61299581612325565b81146129a057600080fd5b50565b6000813590506129b28161298c565b92915050565b600080604083850312156129cf576129ce612296565b5b60006129dd858286016124e3565b92505060206129ee858286016129a3565b9150509250929050565b600067ffffffffffffffff821115612a1357612a1261268c565b5b612a1c826123a1565b9050602081019050919050565b6000612a3c612a37846129f8565b6126ec565b905082815260208101848484011115612a5857612a57612687565b5b612a63848285612738565b509392505050565b600082601f830112612a8057612a7f612682565b5b8135612a90848260208601612a29565b91505092915050565b60008060008060808587031215612ab357612ab2612296565b5b6000612ac1878288016124e3565b9450506020612ad2878288016124e3565b9350506040612ae38782880161242e565b925050606085013567ffffffffffffffff811115612b0457612b0361229b565b5b612b1087828801612a6b565b91505092959194509250565b60008060408385031215612b3357612b32612296565b5b6000612b41858286016124e3565b9250506020612b52858286016124e3565b9150509250929050565b7f4e487b7100000000000000000000000000000000000000000000000000000000600052602260045260246000fd5b60006002820490506001821680612ba357607f821691505b602082108103612bb657612bb5612b5c565b5b50919050565b6000606082019050612bd160008301866124a2565b612bde6020830185612658565b612beb60408301846124a2565b949350505050565b7f5175616e74697479206d757374206265206174206c6561737420310000000000600082015250565b6000612c29601b83612366565b9150612c3482612bf3565b602082019050919050565b60006020820190508181036000830152612c5881612c1c565b9050919050565b7f526f79616c747920746f6f206869676800000000000000000000000000000000600082015250565b6000612c95601083612366565b9150612ca082612c5f565b602082019050919050565b60006020820190508181036000830152612cc481612c88565b9050919050565b7f4e487b7100000000000000000000000000000000000000000000000000000000600052601160045260246000fd5b6000612d058261240d565b91507fffffffffffffffffffffffffffffffffffffffffffffffffffffffffffffffff8203612d3757612d36612ccb565b5b600182019050919050565b6000612d4d8261240d565b9150612d588361240d565b9250828201905080821115612d7057612d6f612ccb565b5b92915050565b7f4e487b7100000000000000000000000000000000000000000000000000000000600052603260045260246000fd5b600060a082019050612dba6000830188612658565b612dc760208301876124a2565b8181036040830152612dd9818661289a565b9050612de86060830185612658565b612df560808301846124a2565b9695505050505050565b600081905092915050565b6000612e158261235b565b612e1f8185612dff565b9350612e2f818560208601612377565b80840191505092915050565b6000612e478285612e0a565b9150612e538284612e0a565b91508190509392505050565b60008190508160005260206000209050919050565b60006020601f8301049050919050565b600082821b905092915050565b600060088302612ec17fffffffffffffffffffffffffffffffffffffffffffffffffffffffffffffffff82612e84565b612ecb8683612e84565b95508019841693508086168417925050509392505050565b6000819050919050565b6000612f08612f03612efe8461240d565b612ee3565b61240d565b9050919050565b6000819050919050565b612f2283612eed565b612f36612f2e82612f0f565b848454612e91565b825550505050565b600090565b612f4b612f3e565b612f56818484612f19565b505050565b5b81811015612f7a57612f6f600082612f43565b600181019050612f5c565b5050565b601f821115612fbf57612f9081612e5f565b612f9984612e74565b81016020851015612fa8578190505b612fbc612fb485612e74565b830182612f5b565b50505b505050565b600082821c905092915050565b6000612fe260001984600802612fc4565b1980831691505092915050565b6000612ffb8383612fd1565b9150826002028217905092915050565b6130148261235b565b67ffffffffffffffff81111561302d5761302c61268c565b5b6130378254612b8b565b613042828285612f7e565b600060209050601f8311600181146130755760008415613063578287015190505b61306d8582612fef565b8655506130d5565b601f19841661308386612e5f565b60005b828110156130ab57848901518255600182019150602085019450602081019050613086565b868310156130c857848901516130c4601f891682612fd1565b8355505b6001600288020188555050505b505050505050565b600081519050919050565b600082825260208201905092915050565b6000613104826130dd565b61310e81856130e8565b935061311e818560208601612377565b613127816123a1565b840191505092915050565b600060808201905061314760008301876124a2565b61315460208301866124a2565b6131616040830185612658565b818103606083015261317381846130f9565b905095945050505050565b60008151905061318d816122cc565b92915050565b6000602082840312156131a9576131a8612296565b5b60006131b78482850161317e565b91505092915050565b60006040820190506131d560008301856124a2565b6131e26020830184612658565b9392505050565b60006040820190506131fe60008301856124a2565b61320b60208301846125ee565b9392505050565b7f4e487b7100000000000000000000000000000000000000000000000000000000600052601260045260246000fdfea2646970667358221220d4e72b0fb10e85725d0ede4d28c8c4be7529c4ac0707b4d424ab0dcaa105577564736f6c63430008140033",
  "linkReferences": {},
  "deployedLinkReferences": {}
}