{
  "_format": "hh-sol-artifact-1",
  "contractName": "GSOEToken",
  "sourceName": "contracts/GSOE.sol",
  "abi": [
    {
      "inputs": [],
      "stateMutability": "nonpayable",
      "type": "constructor"
    },
    {
      "anonymous": false,
      "inputs": [
        {
          "indexed": true,
          "internalType": "address",
          "name": "owner",
          "type": "address"
        },
        {
          "indexed": true,
          "internalType": "address",
          "name": "approved",
          "type": "address"
        },
        {
          "indexed": true,
          "internalType": "uint256",
          "name": "tokenId",
          "type": "uint256"
        }
      ],
      "name": "Approval",
      "type": "event"
    },
    {
      "anonymous": false,
      "inputs": [
        {
          "indexed": true,
          "internalType": "address",
          "name": "owner",
          "type": "address"
        },
        {
          "indexed": true,
          "internalType": "address",
          "name": "operator",
          "type": "address"
        },
        {
          "indexed": false,
          "internalType": "bool",
          "name": "approved",
          "type": "bool"
        }
      ],
      "name": "ApprovalForAll",
      "type": "event"
    },
    {
      "anonymous": false,
      "inputs": [
        {
          "indexed": false,
          "internalType": "uint256",
          "name": "_fromTokenId",
          "type": "uint256"
        },
        {
          "indexed": false,
          "internalType": "uint256",
          "name": "_toTokenId",
          "type": "uint256"
        }
      ],
      "name": "BatchMetadataUpdate",
      "type": "event"
    },
    {
      "anonymous": false,
      "inputs": [
        {
          "indexed": false,
          "internalType": "uint256",
          "name": "batchNumber",
          "type": "uint256"
        },
        {
          "indexed": false,
          "internalType": "address",
          "name": "to",
          "type": "address"
        },
        {
          "indexed": false,
          "internalType": "uint256[]",
          "name": "tokenIds",
          "type": "uint256[]"
        },
        {
          "indexed": false,
          "internalType": "uint256",
          "name": "royaltyPercentage",
          "type": "uint256"
        },
        {
          "indexed": false,
          "internalType": "address",
          "name": "creator",
          "type": "address"
        }
      ],
      "name": "BatchMinted",
      "type": "event"
    },
    {
      "anonymous": false,
      "inputs": [
        {
          "indexed": false,
          "internalType": "uint256",
          "name": "_tokenId",
          "type": "uint256"
        }
      ],
      "name": "MetadataUpdate",
      "type": "event"
    },
    {
      "anonymous": false,
      "inputs": [
        {
          "indexed": true,
          "internalType": "bytes32",
          "name": "role",
          "type": "bytes32"
        },
        {
          "indexed": true,
          "internalType": "bytes32",
          "name": "previousAdminRole",
          "type": "bytes32"
        },
        {
          "indexed": true,
          "internalType": "bytes32",
          "name": "newAdminRole",
          "type": "bytes32"
        }
      ],
      "name": "RoleAdminChanged",
      "type": "event"
    },
    {
      "anonymous": false,
      "inputs": [
        {
          "indexed": true,
          "internalType": "bytes32",
          "name": "role",
          "type": "bytes32"
        },
        {
          "indexed": true,
          "internalType": "address",
          "name": "account",
          "type": "address"
        },
        {
          "indexed": true,
          "internalType": "address",
          "name": "sender",
          "type": "address"
        }
      ],
      "name": "RoleGranted",
      "type": "event"
    },
    {
      "anonymous": false,
      "inputs": [
        {
          "indexed": true,
          "internalType": "bytes32",
          "name": "role",
          "type": "bytes32"
        },
        {
          "indexed": true,
          "internalType": "address",
          "name": "account",
          "type": "address"
        },
        {
          "indexed": true,
          "internalType": "address",
          "name": "sender",
          "type": "address"
        }
      ],
      "name": "RoleRevoked",
      "type": "event"
    },
    {
      "anonymous": false,
      "inputs": [
        {
          "indexed": true,
          "internalType": "address",
          "name": "from",
          "type": "address"
        },
        {
          "indexed": true,
          "internalType": "address",
          "name": "to",
          "type": "address"
        },
        {
          "indexed": true,
          "internalType": "uint256",
          "name": "tokenId",
          "type": "uint256"
        }
      ],
      "name": "Transfer",
      "type": "event"
    },
    {
      "inputs": [],
      "name": "DEFAULT_ADMIN_ROLE",
      "outputs": [
        {
          "internalType": "bytes32",
          "name": "",
          "type": "bytes32"
        }
      ],
      "stateMutability": "view",
      "type": "function"
    },
    {
      "inputs": [],
      "name": "MINTER_ROLE",
      "outputs": [
        {
          "internalType": "bytes32",
          "name": "",
          "type": "bytes32"
        }
      ],
      "stateMutability": "view",
      "type": "function"
    },
    {
      "inputs": [
        {
          "internalType": "address",
          "name": "to",
          "type": "address"
        },
        {
          "internalType": "uint256",
          "name": "tokenId",
          "type": "uint256"
        }
      ],
      "name": "approve",
      "outputs": [],
      "stateMutability": "nonpayable",
      "type": "function"
    },
    {
      "inputs": [
        {
          "internalType": "address",
          "name": "owner",
          "type": "address"
        }
      ],
      "name": "balanceOf",
      "outputs": [
        {
          "internalType": "uint256",
          "name": "",
          "type": "uint256"
        }
      ],
      "stateMutability": "view",
      "type": "function"
    },
    {
      "inputs": [
        {
          "internalType": "uint256",
          "name": "",
          "type": "uint256"
        }
      ],
      "name": "batchNumberOf",
      "outputs": [
        {
          "internalType": "uint256",
          "name": "",
          "type": "uint256"
        }
      ],
      "stateMutability": "view",
      "type": "function"
    },
    {
      "inputs": [
        {
          "internalType": "uint256",
          "name": "",
          "type": "uint256"
        }
      ],
      "name": "batchSpecificIdOf",
      "outputs": [
        {
          "internalType": "uint256",
          "name": "",
          "type": "uint256"
        }
      ],
      "stateMutability": "view",
      "type": "function"
    },
    {
      "inputs": [
        {
          "internalType": "uint256",
          "name": "",
          "type": "uint256"
        }
      ],
      "name": "creatorOf",
      "outputs": [
        {
          "internalType": "address",
          "name": "",
          "type": "address"
        }
      ],
      "stateMutability": "view",
      "type": "function"
    },
    {
      "inputs": [],
      "name": "currentBatchNumber",
      "outputs": [
        {
          "internalType": "uint256",
          "name": "",
          "type": "uint256"
        }
      ],
      "stateMutability": "view",
      "type": "function"
    },
    {
      "inputs": [
        {
          "internalType": "uint256",
          "name": "tokenId",
          "type": "uint256"
        }
      ],
      "name": "exists",
      "outputs": [
        {
          "internalType": "bool",
          "name": "",
          "type": "bool"
        }
      ],
      "stateMutability": "view",
      "type": "function"
    },
    {
      "inputs": [
        {
          "internalType": "uint256",
          "name": "tokenId",
          "type": "uint256"
        }
      ],
      "name": "getApproved",
      "outputs": [
        {
          "internalType": "address",
          "name": "",
          "type": "address"
        }
      ],
      "stateMutability": "view",
      "type": "function"
    },
    {
      "inputs": [
        {
          "internalType": "bytes32",
          "name": "role",
          "type": "bytes32"
        }
      ],
      "name": "getRoleAdmin",
      "outputs": [
        {
          "internalType": "bytes32",
          "name": "",
          "type": "bytes32"
        }
      ],
      "stateMutability": "view",
      "type": "function"
    },
    {
      "inputs": [
        {
          "internalType": "uint256",
          "name": "tokenId",
          "type": "uint256"
        }
      ],
      "name": "getTokenInfo",
      "outputs": [
        {
          "internalType": "uint256",
          "name": "batchNumber",
          "type": "uint256"
        },
        {
          "internalType": "uint256",
          "name": "batchSpecificId",
          "type": "uint256"
        },
        {
          "internalType": "uint256",
          "name": "royaltyPercentage",
          "type": "uint256"
        },
        {
          "internalType": "address",
          "name": "creator",
          "type": "address"
        }
      ],
      "stateMutability": "view",
      "type": "function"
    },
    {
      "inputs": [
        {
          "internalType": "bytes32",
          "name": "role",
          "type": "bytes32"
        },
        {
          "internalType": "address",
          "name": "account",
          "type": "address"
        }
      ],
      "name": "grantRole",
      "outputs": [],
      "stateMutability": "nonpayable",
      "type": "function"
    },
    {
      "inputs": [
        {
          "internalType": "bytes32",
          "name": "role",
          "type": "bytes32"
        },
        {
          "internalType": "address",
          "name": "account",
          "type": "address"
        }
      ],
      "name": "hasRole",
      "outputs": [
        {
          "internalType": "bool",
          "name": "",
          "type": "bool"
        }
      ],
      "stateMutability": "view",
      "type": "function"
    },
    {
      "inputs": [
        {
          "internalType": "address",
          "name": "owner",
          "type": "address"
        },
        {
          "internalType": "address",
          "name": "operator",
          "type": "address"
        }
      ],
      "name": "isApprovedForAll",
      "outputs": [
        {
          "internalType": "bool",
          "name": "",
          "type": "bool"
        }
      ],
      "stateMutability": "view",
      "type": "function"
    },
    {
      "inputs": [
        {
          "internalType": "address",
          "name": "to",
          "type": "address"
        },
        {
          "internalType": "string",
          "name": "tokenURI",
          "type": "string"
        },
        {
          "internalType": "uint256",
          "name": "quantity",
          "type": "uint256"
        },
        {
          "internalType": "uint256",
          "name": "royaltyPercentage",
          "type": "uint256"
        }
      ],
      "name": "mintBatch",
      "outputs": [
        {
          "internalType": "uint256[]",
          "name": "",
          "type": "uint256[]"
        }
      ],
      "stateMutability": "nonpayable",
      "type": "function"
    },
    {
      "inputs": [],
      "name": "name",
      "outputs": [
        {
          "internalType": "string",
          "name": "",
          "type": "string"
        }
      ],
      "stateMutability": "view",
      "type": "function"
    },
    {
      "inputs": [
        {
          "internalType": "uint256",
          "name": "tokenId",
          "type": "uint256"
        }
      ],
      "name": "ownerOf",
      "outputs": [
        {
          "internalType": "address",
          "name": "",
          "type": "address"
        }
      ],
      "stateMutability": "view",
      "type": "function"
    },
    {
      "inputs": [
        {
          "internalType": "bytes32",
          "name": "role",
          "type": "bytes32"
        },
        {
          "internalType": "address",
          "name": "account",
          "type": "address"
        }
      ],
      "name": "renounceRole",
      "outputs": [],
      "stateMutability": "nonpayable",
      "type": "function"
    },
    {
      "inputs": [
        {
          "internalType": "bytes32",
          "name": "role",
          "type": "bytes32"
        },
        {
          "internalType": "address",
          "name": "account",
          "type": "address"
        }
      ],
      "name": "revokeRole",
      "outputs": [],
      "stateMutability": "nonpayable",
      "type": "function"
    },
    {
      "inputs": [
        {
          "internalType": "uint256",
          "name": "",
          "type": "uint256"
        }
      ],
      "name": "royaltyPercentageOf",
      "outputs": [
        {
          "internalType": "uint256",
          "name": "",
          "type": "uint256"
        }
      ],
      "stateMutability": "view",
      "type": "function"
    },
    {
      "inputs": [
        {
          "internalType": "address",
          "name": "from",
          "type": "address"
        },
        {
          "internalType": "address",
          "name": "to",
          "type": "address"
        },
        {
          "internalType": "uint256",
          "name": "tokenId",
          "type": "uint256"
        }
      ],
      "name": "safeTransferFrom",
      "outputs": [],
      "stateMutability": "nonpayable",
      "type": "function"
    },
    {
      "inputs": [
        {
          "internalType": "address",
          "name": "from",
          "type": "address"
        },
        {
          "internalType": "address",
          "name": "to",
          "type": "address"
        },
        {
          "internalType": "uint256",
          "name": "tokenId",
          "type": "uint256"
        },
        {
          "internalType": "bytes",
          "name": "data",
          "type": "bytes"
        }
      ],
      "name": "safeTransferFrom",
      "outputs": [],
      "stateMutability": "nonpayable",
      "type": "function"
    },
    {
      "inputs": [
        {
          "internalType": "address",
          "name": "operator",
          "type": "address"
        },
        {
          "internalType": "bool",
          "name": "approved",
          "type": "bool"
        }
      ],
      "name": "setApprovalForAll",
      "outputs": [],
      "stateMutability": "nonpayable",
      "type": "function"
    },
    {
      "inputs": [
        {
          "internalType": "bytes4",
          "name": "interfaceId",
          "type": "bytes4"
        }
      ],
      "name": "supportsInterface",
      "outputs": [
        {
          "internalType": "bool",
          "name": "",
          "type": "bool"
        }
      ],
      "stateMutability": "view",
      "type": "function"
    },
    {
      "inputs": [],
      "name": "symbol",
      "outputs": [
        {
          "internalType": "string",
          "name": "",
          "type": "string"
        }
      ],
      "stateMutability": "view",
      "type": "function"
    },
    {
      "inputs": [
        {
          "internalType": "uint256",
          "name": "tokenId",
          "type": "uint256"
        }
      ],
      "name": "tokenURI",
      "outputs": [
        {
          "internalType": "string",
          "name": "",
          "type": "string"
        }
      ],
      "stateMutability": "view",
      "type": "function"
    },
    {
      "inputs": [
        {
          "internalType": "address",
          "name": "from",
          "type": "address"
        },
        {
          "internalType": "address",
          "name": "to",
          "type": "address"
        },
        {
          "internalType": "uint256",
          "name": "tokenId",
          "type": "uint256"
        }
      ],
      "name": "transferFrom",
      "outputs": [],
      "stateMutability": "nonpayable",
      "type": "function"
    }
  ],
  "bytecode": "0x608060405260016009553480156200001657600080fd5b506040518060400160405280601681526020017f47726561746573742053686f77204f6e204561727468000000000000000000008152506040518060400160405280600481526020017f47534f45000000000000000000000000000000000000000000000000000000008152508160009081620000949190620004eb565b508060019081620000a69190620004eb565b505050620000be6000801b33620000f660201b60201c565b620000f07f9f2df0fed2c77648de5860a4cc508cd0818c85b8b8a1ab4ceeef8d981c8956a633620000f660201b60201c565b620005d2565b6200010882826200010c60201b60201c565b5050565b6200011e8282620001fe60201b60201c565b620001fa5760016007600084815260200190815260200160002060000160008373ffffffffffffffffffffffffffffffffffffffff1673ffffffffffffffffffffffffffffffffffffffff16815260200190815260200160002060006101000a81548160ff0219169083151502179055506200019f6200026960201b60201c565b73ffffffffffffffffffffffffffffffffffffffff168173ffffffffffffffffffffffffffffffffffffffff16837f2f8788117e7eff1d82e926ec794901d17c78024a50270940304540a733656f0d60405160405180910390a45b5050565b60006007600084815260200190815260200160002060000160008373ffffffffffffffffffffffffffffffffffffffff1673ffffffffffffffffffffffffffffffffffffffff16815260200190815260200160002060009054906101000a900460ff16905092915050565b600033905090565b600081519050919050565b7f4e487b7100000000000000000000000000000000000000000000000000000000600052604160045260246000fd5b7f4e487b7100000000000000000000000000000000000000000000000000000000600052602260045260246000fd5b60006002820490506001821680620002f357607f821691505b602082108103620003095762000308620002ab565b5b50919050565b60008190508160005260206000209050919050565b60006020601f8301049050919050565b600082821b905092915050565b600060088302620003737fffffffffffffffffffffffffffffffffffffffffffffffffffffffffffffffff8262000334565b6200037f868362000334565b95508019841693508086168417925050509392505050565b6000819050919050565b6000819050919050565b6000620003cc620003c6620003c08462000397565b620003a1565b62000397565b9050919050565b6000819050919050565b620003e883620003ab565b62000400620003f782620003d3565b84845462000341565b825550505050565b600090565b6200041762000408565b62000424818484620003dd565b505050565b5b818110156200044c57620004406000826200040d565b6001810190506200042a565b5050565b601f8211156200049b5762000465816200030f565b620004708462000324565b8101602085101562000480578190505b620004986200048f8562000324565b83018262000429565b50505b505050565b600082821c905092915050565b6000620004c060001984600802620004a0565b1980831691505092915050565b6000620004db8383620004ad565b9150826002028217905092915050565b620004f68262000271565b67ffffffffffffffff8111156200051257620005116200027c565b5b6200051e8254620002da565b6200052b82828562000450565b600060209050601f8311600181146200056357600084156200054e578287015190505b6200055a8582620004cd565b865550620005ca565b601f19841662000573866200030f565b60005b828110156200059d5784890151825560018201915060208501945060208101905062000576565b86831015620005bd5784890151620005b9601f891682620004ad565b8355505b6001600288020188555050505b505050505050565b613e5480620005e26000396000f3fe608060405234801561001057600080fd5b50600436106101c45760003560e01c806370a08231116100f9578063a6064ab011610097578063d539139311610071578063d53913931461058a578063d547741f146105a8578063e985e9c5146105c4578063f48fa80b146105f4576101c4565b8063a6064ab01461050e578063b88d4fde1461053e578063c87b56dd1461055a576101c4565b806391d14854116100d357806391d148541461048657806395d89b41146104b6578063a217fddf146104d4578063a22cb465146104f2576101c4565b806370a08231146103f357806378d3bcf1146104235780638c7a63ae14610453576101c4565b806336568abe116101665780634f558e79116101405780634f558e7914610333578063589a1743146103635780636352211e146103935780636d74e2bd146103c3576101c4565b806336568abe146102cb5780633f023d07146102e757806342842e0e14610317576101c4565b8063095ea7b3116101a2578063095ea7b31461024757806323b872dd14610263578063248a9ca31461027f5780632f2ff15d146102af576101c4565b806301ffc9a7146101c957806306fdde03146101f9578063081812fc14610217575b600080fd5b6101e360048036038101906101de91906126e3565b610612565b6040516101f0919061272b565b60405180910390f35b610201610624565b60405161020e91906127d6565b60405180910390f35b610231600480360381019061022c919061282e565b6106b6565b60405161023e919061289c565b60405180910390f35b610261600480360381019061025c91906128e3565b6106fc565b005b61027d60048036038101906102789190612923565b610813565b005b610299600480360381019061029491906129ac565b610873565b6040516102a691906129e8565b60405180910390f35b6102c960048036038101906102c49190612a03565b610893565b005b6102e560048036038101906102e09190612a03565b6108b4565b005b61030160048036038101906102fc919061282e565b610937565b60405161030e9190612a52565b60405180910390f35b610331600480360381019061032c9190612923565b61094f565b005b61034d6004803603810190610348919061282e565b61096f565b60405161035a919061272b565b60405180910390f35b61037d6004803603810190610378919061282e565b610981565b60405161038a919061289c565b60405180910390f35b6103ad60048036038101906103a8919061282e565b6109b4565b6040516103ba919061289c565b60405180910390f35b6103dd60048036038101906103d89190612ba2565b610a3a565b6040516103ea9190612ce3565b60405180910390f35b61040d60048036038101906104089190612d05565b610cbb565b60405161041a9190612a52565b60405180910390f35b61043d6004803603810190610438919061282e565b610d72565b60405161044a9190612a52565b60405180910390f35b61046d6004803603810190610468919061282e565b610d8a565b60405161047d9493929190612d32565b60405180910390f35b6104a0600480360381019061049b9190612a03565b610e0f565b6040516104ad919061272b565b60405180910390f35b6104be610e7a565b6040516104cb91906127d6565b60405180910390f35b6104dc610f0c565b6040516104e991906129e8565b60405180910390f35b61050c60048036038101906105079190612da3565b610f13565b005b6105286004803603810190610523919061282e565b610f29565b6040516105359190612a52565b60405180910390f35b61055860048036038101906105539190612e84565b610f41565b005b610574600480360381019061056f919061282e565b610fa3565b60405161058191906127d6565b60405180910390f35b6105926110b5565b60405161059f91906129e8565b60405180910390f35b6105c260048036038101906105bd9190612a03565b6110d9565b005b6105de60048036038101906105d99190612f07565b6110fa565b6040516105eb919061272b565b60405180910390f35b6105fc61118e565b6040516106099190612a52565b60405180910390f35b600061061d82611194565b9050919050565b60606000805461063390612f76565b80601f016020809104026020016040519081016040528092919081815260200182805461065f90612f76565b80156106ac5780601f10610681576101008083540402835291602001916106ac565b820191906000526020600020905b81548152906001019060200180831161068f57829003601f168201915b5050505050905090565b60006106c18261120e565b6004600083815260200190815260200160002060009054906101000a900473ffffffffffffffffffffffffffffffffffffffff169050919050565b6000610707826109b4565b90508073ffffffffffffffffffffffffffffffffffffffff168373ffffffffffffffffffffffffffffffffffffffff1603610777576040517f08c379a000000000000000000000000000000000000000000000000000000000815260040161076e90613019565b60405180910390fd5b8073ffffffffffffffffffffffffffffffffffffffff16610796611259565b73ffffffffffffffffffffffffffffffffffffffff1614806107c557506107c4816107bf611259565b6110fa565b5b610804576040517f08c379a00000000000000000000000000000000000000000000000000000000081526004016107fb906130ab565b60405180910390fd5b61080e8383611261565b505050565b61082461081e611259565b8261131a565b610863576040517f08c379a000000000000000000000000000000000000000000000000000000000815260040161085a9061313d565b60405180910390fd5b61086e8383836113af565b505050565b600060076000838152602001908152602001600020600101549050919050565b61089c82610873565b6108a5816116a8565b6108af83836116bc565b505050565b6108bc611259565b73ffffffffffffffffffffffffffffffffffffffff168173ffffffffffffffffffffffffffffffffffffffff1614610929576040517f08c379a0000000000000000000000000000000000000000000000000000000008152600401610920906131cf565b60405180910390fd5b610933828261179d565b5050565b600b6020528060005260406000206000915090505481565b61096a83838360405180602001604052806000815250610f41565b505050565b600061097a8261187f565b9050919050565b600d6020528060005260406000206000915054906101000a900473ffffffffffffffffffffffffffffffffffffffff1681565b6000806109c0836118c0565b9050600073ffffffffffffffffffffffffffffffffffffffff168173ffffffffffffffffffffffffffffffffffffffff1603610a31576040517f08c379a0000000000000000000000000000000000000000000000000000000008152600401610a289061323b565b60405180910390fd5b80915050919050565b60607f9f2df0fed2c77648de5860a4cc508cd0818c85b8b8a1ab4ceeef8d981c8956a6610a66816116a8565b60008411610aa9576040517f08c379a0000000000000000000000000000000000000000000000000000000008152600401610aa0906132a7565b60405180910390fd5b6064831115610aed576040517f08c379a0000000000000000000000000000000000000000000000000000000008152600401610ae490613313565b60405180910390fd5b60008467ffffffffffffffff811115610b0957610b08612a77565b5b604051908082528060200260200182016040528015610b375781602001602082028036833780820191505090505b50905060005b85811015610c545760086000815480929190610b5890613362565b919050555060006008549050610b6e89826118fd565b610b788189611b1a565b85600c600083815260200190815260200160002081905550600182610b9d91906133aa565b600b600083815260200190815260200160002081905550600954600a60008381526020019081526020016000208190555088600d600083815260200190815260200160002060006101000a81548173ffffffffffffffffffffffffffffffffffffffff021916908373ffffffffffffffffffffffffffffffffffffffff16021790555080838381518110610c3457610c336133de565b5b602002602001018181525050508080610c4c90613362565b915050610b3d565b507f083b715635bb4a3650434ba1eaa5a10bf104dd7d2d3354af8078572703c4a53d6009548883878b604051610c8e95949392919061340d565b60405180910390a160096000815480929190610ca990613362565b91905055508092505050949350505050565b60008073ffffffffffffffffffffffffffffffffffffffff168273ffffffffffffffffffffffffffffffffffffffff1603610d2b576040517f08c379a0000000000000000000000000000000000000000000000000000000008152600401610d22906134d9565b60405180910390fd5b600360008373ffffffffffffffffffffffffffffffffffffffff1673ffffffffffffffffffffffffffffffffffffffff168152602001908152602001600020549050919050565b600c6020528060005260406000206000915090505481565b600080600080600a600086815260200190815260200160002054600b600087815260200190815260200160002054600c600088815260200190815260200160002054600d600089815260200190815260200160002060009054906101000a900473ffffffffffffffffffffffffffffffffffffffff1693509350935093509193509193565b60006007600084815260200190815260200160002060000160008373ffffffffffffffffffffffffffffffffffffffff1673ffffffffffffffffffffffffffffffffffffffff16815260200190815260200160002060009054906101000a900460ff16905092915050565b606060018054610e8990612f76565b80601f0160208091040260200160405190810160405280929190818152602001828054610eb590612f76565b8015610f025780601f10610ed757610100808354040283529160200191610f02565b820191906000526020600020905b815481529060010190602001808311610ee557829003601f168201915b5050505050905090565b6000801b81565b610f25610f1e611259565b8383611bbe565b5050565b600a6020528060005260406000206000915090505481565b610f52610f4c611259565b8361131a565b610f91576040517f08c379a0000000000000000000000000000000000000000000000000000000008152600401610f889061313d565b60405180910390fd5b610f9d84848484611d2a565b50505050565b6060610fae8261120e565b6000600660008481526020019081526020016000208054610fce90612f76565b80601f0160208091040260200160405190810160405280929190818152602001828054610ffa90612f76565b80156110475780601f1061101c57610100808354040283529160200191611047565b820191906000526020600020905b81548152906001019060200180831161102a57829003601f168201915b505050505090506000611058611d86565b9050600081510361106d5781925050506110b0565b6000825111156110a257808260405160200161108a929190613535565b604051602081830303815290604052925050506110b0565b6110ab84611d9d565b925050505b919050565b7f9f2df0fed2c77648de5860a4cc508cd0818c85b8b8a1ab4ceeef8d981c8956a681565b6110e282610873565b6110eb816116a8565b6110f5838361179d565b505050565b6000600560008473ffffffffffffffffffffffffffffffffffffffff1673ffffffffffffffffffffffffffffffffffffffff16815260200190815260200160002060008373ffffffffffffffffffffffffffffffffffffffff1673ffffffffffffffffffffffffffffffffffffffff16815260200190815260200160002060009054906101000a900460ff16905092915050565b60095481565b60007f7965db0b000000000000000000000000000000000000000000000000000000007bffffffffffffffffffffffffffffffffffffffffffffffffffffffff1916827bffffffffffffffffffffffffffffffffffffffffffffffffffffffff19161480611207575061120682611e05565b5b9050919050565b6112178161187f565b611256576040517f08c379a000000000000000000000000000000000000000000000000000000000815260040161124d9061323b565b60405180910390fd5b50565b600033905090565b816004600083815260200190815260200160002060006101000a81548173ffffffffffffffffffffffffffffffffffffffff021916908373ffffffffffffffffffffffffffffffffffffffff160217905550808273ffffffffffffffffffffffffffffffffffffffff166112d4836109b4565b73ffffffffffffffffffffffffffffffffffffffff167f8c5be1e5ebec7d5bd14f71427d1e84f3dd0314c0f7b2291e5b200ac8c7c3b92560405160405180910390a45050565b600080611326836109b4565b90508073ffffffffffffffffffffffffffffffffffffffff168473ffffffffffffffffffffffffffffffffffffffff161480611368575061136781856110fa565b5b806113a657508373ffffffffffffffffffffffffffffffffffffffff1661138e846106b6565b73ffffffffffffffffffffffffffffffffffffffff16145b91505092915050565b8273ffffffffffffffffffffffffffffffffffffffff166113cf826109b4565b73ffffffffffffffffffffffffffffffffffffffff1614611425576040517f08c379a000000000000000000000000000000000000000000000000000000000815260040161141c906135cb565b60405180910390fd5b600073ffffffffffffffffffffffffffffffffffffffff168273ffffffffffffffffffffffffffffffffffffffff1603611494576040517f08c379a000000000000000000000000000000000000000000000000000000000815260040161148b9061365d565b60405180910390fd5b6114a18383836001611e66565b8273ffffffffffffffffffffffffffffffffffffffff166114c1826109b4565b73ffffffffffffffffffffffffffffffffffffffff1614611517576040517f08c379a000000000000000000000000000000000000000000000000000000000815260040161150e906135cb565b60405180910390fd5b6004600082815260200190815260200160002060006101000a81549073ffffffffffffffffffffffffffffffffffffffff02191690556001600360008573ffffffffffffffffffffffffffffffffffffffff1673ffffffffffffffffffffffffffffffffffffffff168152602001908152602001600020600082825403925050819055506001600360008473ffffffffffffffffffffffffffffffffffffffff1673ffffffffffffffffffffffffffffffffffffffff16815260200190815260200160002060008282540192505081905550816002600083815260200190815260200160002060006101000a81548173ffffffffffffffffffffffffffffffffffffffff021916908373ffffffffffffffffffffffffffffffffffffffff160217905550808273ffffffffffffffffffffffffffffffffffffffff168473ffffffffffffffffffffffffffffffffffffffff167fddf252ad1be2c89b69c2b068fc378daa952ba7f163c4a11628f55a4df523b3ef60405160405180910390a46116a38383836001611e6c565b505050565b6116b9816116b4611259565b611e72565b50565b6116c68282610e0f565b6117995760016007600084815260200190815260200160002060000160008373ffffffffffffffffffffffffffffffffffffffff1673ffffffffffffffffffffffffffffffffffffffff16815260200190815260200160002060006101000a81548160ff02191690831515021790555061173e611259565b73ffffffffffffffffffffffffffffffffffffffff168173ffffffffffffffffffffffffffffffffffffffff16837f2f8788117e7eff1d82e926ec794901d17c78024a50270940304540a733656f0d60405160405180910390a45b5050565b6117a78282610e0f565b1561187b5760006007600084815260200190815260200160002060000160008373ffffffffffffffffffffffffffffffffffffffff1673ffffffffffffffffffffffffffffffffffffffff16815260200190815260200160002060006101000a81548160ff021916908315150217905550611820611259565b73ffffffffffffffffffffffffffffffffffffffff168173ffffffffffffffffffffffffffffffffffffffff16837ff6391f5c32d9c69d2a47ea670b442974b53935d1edc7fd64eb21e047a839171b60405160405180910390a45b5050565b60008073ffffffffffffffffffffffffffffffffffffffff166118a1836118c0565b73ffffffffffffffffffffffffffffffffffffffff1614159050919050565b60006002600083815260200190815260200160002060009054906101000a900473ffffffffffffffffffffffffffffffffffffffff169050919050565b600073ffffffffffffffffffffffffffffffffffffffff168273ffffffffffffffffffffffffffffffffffffffff160361196c576040517f08c379a0000000000000000000000000000000000000000000000000000000008152600401611963906136c9565b60405180910390fd5b6119758161187f565b156119b5576040517f08c379a00000000000000000000000000000000000000000000000000000000081526004016119ac90613735565b60405180910390fd5b6119c3600083836001611e66565b6119cc8161187f565b15611a0c576040517f08c379a0000000000000000000000000000000000000000000000000000000008152600401611a0390613735565b60405180910390fd5b6001600360008473ffffffffffffffffffffffffffffffffffffffff1673ffffffffffffffffffffffffffffffffffffffff16815260200190815260200160002060008282540192505081905550816002600083815260200190815260200160002060006101000a81548173ffffffffffffffffffffffffffffffffffffffff021916908373ffffffffffffffffffffffffffffffffffffffff160217905550808273ffffffffffffffffffffffffffffffffffffffff16600073ffffffffffffffffffffffffffffffffffffffff167fddf252ad1be2c89b69c2b068fc378daa952ba7f163c4a11628f55a4df523b3ef60405160405180910390a4611b16600083836001611e6c565b5050565b611b238261187f565b611b62576040517f08c379a0000000000000000000000000000000000000000000000000000000008152600401611b59906137c7565b60405180910390fd5b80600660008481526020019081526020016000209081611b829190613993565b507ff8e1a15aba9398e019f0b49df1a4fde98ee17ae345cb5f6b5e2c27f5033e8ce782604051611bb29190612a52565b60405180910390a15050565b8173ffffffffffffffffffffffffffffffffffffffff168373ffffffffffffffffffffffffffffffffffffffff1603611c2c576040517f08c379a0000000000000000000000000000000000000000000000000000000008152600401611c2390613ab1565b60405180910390fd5b80600560008573ffffffffffffffffffffffffffffffffffffffff1673ffffffffffffffffffffffffffffffffffffffff16815260200190815260200160002060008473ffffffffffffffffffffffffffffffffffffffff1673ffffffffffffffffffffffffffffffffffffffff16815260200190815260200160002060006101000a81548160ff0219169083151502179055508173ffffffffffffffffffffffffffffffffffffffff168373ffffffffffffffffffffffffffffffffffffffff167f17307eab39ab6107e8899845ad3d59bd9653f200f220920489ca2b5937696c3183604051611d1d919061272b565b60405180910390a3505050565b611d358484846113af565b611d4184848484611ef7565b611d80576040517f08c379a0000000000000000000000000000000000000000000000000000000008152600401611d7790613b43565b60405180910390fd5b50505050565b606060405180602001604052806000815250905090565b6060611da88261120e565b6000611db2611d86565b90506000815111611dd25760405180602001604052806000815250611dfd565b80611ddc8461207e565b604051602001611ded929190613535565b6040516020818303038152906040525b915050919050565b6000634906490660e01b7bffffffffffffffffffffffffffffffffffffffffffffffffffffffff1916827bffffffffffffffffffffffffffffffffffffffffffffffffffffffff19161480611e5f5750611e5e8261214c565b5b9050919050565b50505050565b50505050565b611e7c8282610e0f565b611ef357611e898161222e565b611e978360001c602061225b565b604051602001611ea8929190613bfb565b6040516020818303038152906040526040517f08c379a0000000000000000000000000000000000000000000000000000000008152600401611eea91906127d6565b60405180910390fd5b5050565b6000611f188473ffffffffffffffffffffffffffffffffffffffff16612497565b15612071578373ffffffffffffffffffffffffffffffffffffffff1663150b7a02611f41611259565b8786866040518563ffffffff1660e01b8152600401611f639493929190613c8a565b6020604051808303816000875af1925050508015611f9f57506040513d601f19601f82011682018060405250810190611f9c9190613ceb565b60015b612021573d8060008114611fcf576040519150601f19603f3d011682016040523d82523d6000602084013e611fd4565b606091505b506000815103612019576040517f08c379a000000000000000000000000000000000000000000000000000000000815260040161201090613b43565b60405180910390fd5b805181602001fd5b63150b7a0260e01b7bffffffffffffffffffffffffffffffffffffffffffffffffffffffff1916817bffffffffffffffffffffffffffffffffffffffffffffffffffffffff191614915050612076565b600190505b949350505050565b60606000600161208d846124ba565b01905060008167ffffffffffffffff8111156120ac576120ab612a77565b5b6040519080825280601f01601f1916602001820160405280156120de5781602001600182028036833780820191505090505b509050600082602001820190505b600115612141578080600190039150507f3031323334353637383961626364656600000000000000000000000000000000600a86061a8153600a858161213557612134613d18565b5b049450600085036120ec575b819350505050919050565b60007f80ac58cd000000000000000000000000000000000000000000000000000000007bffffffffffffffffffffffffffffffffffffffffffffffffffffffff1916827bffffffffffffffffffffffffffffffffffffffffffffffffffffffff1916148061221757507f5b5e139f000000000000000000000000000000000000000000000000000000007bffffffffffffffffffffffffffffffffffffffffffffffffffffffff1916827bffffffffffffffffffffffffffffffffffffffffffffffffffffffff1916145b8061222757506122268261260d565b5b9050919050565b60606122548273ffffffffffffffffffffffffffffffffffffffff16601460ff1661225b565b9050919050565b60606000600283600261226e9190613d47565b61227891906133aa565b67ffffffffffffffff81111561229157612290612a77565b5b6040519080825280601f01601f1916602001820160405280156122c35781602001600182028036833780820191505090505b5090507f3000000000000000000000000000000000000000000000000000000000000000816000815181106122fb576122fa6133de565b5b60200101907effffffffffffffffffffffffffffffffffffffffffffffffffffffffffffff1916908160001a9053507f78000000000000000000000000000000000000000000000000000000000000008160018151811061235f5761235e6133de565b5b60200101907effffffffffffffffffffffffffffffffffffffffffffffffffffffffffffff1916908160001a9053506000600184600261239f9190613d47565b6123a991906133aa565b90505b6001811115612449577f3031323334353637383961626364656600000000000000000000000000000000600f8616601081106123eb576123ea6133de565b5b1a60f81b828281518110612402576124016133de565b5b60200101907effffffffffffffffffffffffffffffffffffffffffffffffffffffffffffff1916908160001a905350600485901c94508061244290613d89565b90506123ac565b506000841461248d576040517f08c379a000000000000000000000000000000000000000000000000000000000815260040161248490613dfe565b60405180910390fd5b8091505092915050565b6000808273ffffffffffffffffffffffffffffffffffffffff163b119050919050565b600080600090507a184f03e93ff9f4daa797ed6e38ed64bf6a1f0100000000000000008310612518577a184f03e93ff9f4daa797ed6e38ed64bf6a1f010000000000000000838161250e5761250d613d18565b5b0492506040810190505b6d04ee2d6d415b85acef81000000008310612555576d04ee2d6d415b85acef8100000000838161254b5761254a613d18565b5b0492506020810190505b662386f26fc10000831061258457662386f26fc10000838161257a57612579613d18565b5b0492506010810190505b6305f5e10083106125ad576305f5e10083816125a3576125a2613d18565b5b0492506008810190505b61271083106125d25761271083816125c8576125c7613d18565b5b0492506004810190505b606483106125f557606483816125eb576125ea613d18565b5b0492506002810190505b600a8310612604576001810190505b80915050919050565b60007f01ffc9a7000000000000000000000000000000000000000000000000000000007bffffffffffffffffffffffffffffffffffffffffffffffffffffffff1916827bffffffffffffffffffffffffffffffffffffffffffffffffffffffff1916149050919050565b6000604051905090565b600080fd5b600080fd5b60007fffffffff0000000000000000000000000000000000000000000000000000000082169050919050565b6126c08161268b565b81146126cb57600080fd5b50565b6000813590506126dd816126b7565b92915050565b6000602082840312156126f9576126f8612681565b5b6000612707848285016126ce565b91505092915050565b60008115159050919050565b61272581612710565b82525050565b6000602082019050612740600083018461271c565b92915050565b600081519050919050565b600082825260208201905092915050565b60005b83811015612780578082015181840152602081019050612765565b60008484015250505050565b6000601f19601f8301169050919050565b60006127a882612746565b6127b28185612751565b93506127c2818560208601612762565b6127cb8161278c565b840191505092915050565b600060208201905081810360008301526127f0818461279d565b905092915050565b6000819050919050565b61280b816127f8565b811461281657600080fd5b50565b60008135905061282881612802565b92915050565b60006020828403121561284457612843612681565b5b600061285284828501612819565b91505092915050565b600073ffffffffffffffffffffffffffffffffffffffff82169050919050565b60006128868261285b565b9050919050565b6128968161287b565b82525050565b60006020820190506128b1600083018461288d565b92915050565b6128c08161287b565b81146128cb57600080fd5b50565b6000813590506128dd816128b7565b92915050565b600080604083850312156128fa576128f9612681565b5b6000612908858286016128ce565b925050602061291985828601612819565b9150509250929050565b60008060006060848603121561293c5761293b612681565b5b600061294a868287016128ce565b935050602061295b868287016128ce565b925050604061296c86828701612819565b9150509250925092565b6000819050919050565b61298981612976565b811461299457600080fd5b50565b6000813590506129a681612980565b92915050565b6000602082840312156129c2576129c1612681565b5b60006129d084828501612997565b91505092915050565b6129e281612976565b82525050565b60006020820190506129fd60008301846129d9565b92915050565b60008060408385031215612a1a57612a19612681565b5b6000612a2885828601612997565b9250506020612a39858286016128ce565b9150509250929050565b612a4c816127f8565b82525050565b6000602082019050612a676000830184612a43565b92915050565b600080fd5b600080fd5b7f4e487b7100000000000000000000000000000000000000000000000000000000600052604160045260246000fd5b612aaf8261278c565b810181811067ffffffffffffffff82111715612ace57612acd612a77565b5b80604052505050565b6000612ae1612677565b9050612aed8282612aa6565b919050565b600067ffffffffffffffff821115612b0d57612b0c612a77565b5b612b168261278c565b9050602081019050919050565b82818337600083830152505050565b6000612b45612b4084612af2565b612ad7565b905082815260208101848484011115612b6157612b60612a72565b5b612b6c848285612b23565b509392505050565b600082601f830112612b8957612b88612a6d565b5b8135612b99848260208601612b32565b91505092915050565b60008060008060808587031215612bbc57612bbb612681565b5b6000612bca878288016128ce565b945050602085013567ffffffffffffffff811115612beb57612bea612686565b5b612bf787828801612b74565b9350506040612c0887828801612819565b9250506060612c1987828801612819565b91505092959194509250565b600081519050919050565b600082825260208201905092915050565b6000819050602082019050919050565b612c5a816127f8565b82525050565b6000612c6c8383612c51565b60208301905092915050565b6000602082019050919050565b6000612c9082612c25565b612c9a8185612c30565b9350612ca583612c41565b8060005b83811015612cd6578151612cbd8882612c60565b9750612cc883612c78565b925050600181019050612ca9565b5085935050505092915050565b60006020820190508181036000830152612cfd8184612c85565b905092915050565b600060208284031215612d1b57612d1a612681565b5b6000612d29848285016128ce565b91505092915050565b6000608082019050612d476000830187612a43565b612d546020830186612a43565b612d616040830185612a43565b612d6e606083018461288d565b95945050505050565b612d8081612710565b8114612d8b57600080fd5b50565b600081359050612d9d81612d77565b92915050565b60008060408385031215612dba57612db9612681565b5b6000612dc8858286016128ce565b9250506020612dd985828601612d8e565b9150509250929050565b600067ffffffffffffffff821115612dfe57612dfd612a77565b5b612e078261278c565b9050602081019050919050565b6000612e27612e2284612de3565b612ad7565b905082815260208101848484011115612e4357612e42612a72565b5b612e4e848285612b23565b509392505050565b600082601f830112612e6b57612e6a612a6d565b5b8135612e7b848260208601612e14565b91505092915050565b60008060008060808587031215612e9e57612e9d612681565b5b6000612eac878288016128ce565b9450506020612ebd878288016128ce565b9350506040612ece87828801612819565b925050606085013567ffffffffffffffff811115612eef57612eee612686565b5b612efb87828801612e56565b91505092959194509250565b60008060408385031215612f1e57612f1d612681565b5b6000612f2c858286016128ce565b9250506020612f3d858286016128ce565b9150509250929050565b7f4e487b7100000000000000000000000000000000000000000000000000000000600052602260045260246000fd5b60006002820490506001821680612f8e57607f821691505b602082108103612fa157612fa0612f47565b5b50919050565b7f4552433732313a20617070726f76616c20746f2063757272656e74206f776e6560008201527f7200000000000000000000000000000000000000000000000000000000000000602082015250565b6000613003602183612751565b915061300e82612fa7565b604082019050919050565b6000602082019050818103600083015261303281612ff6565b9050919050565b7f4552433732313a20617070726f76652063616c6c6572206973206e6f7420746f60008201527f6b656e206f776e6572206f7220617070726f76656420666f7220616c6c000000602082015250565b6000613095603d83612751565b91506130a082613039565b604082019050919050565b600060208201905081810360008301526130c481613088565b9050919050565b7f4552433732313a2063616c6c6572206973206e6f7420746f6b656e206f776e6560008201527f72206f7220617070726f76656400000000000000000000000000000000000000602082015250565b6000613127602d83612751565b9150613132826130cb565b604082019050919050565b600060208201905081810360008301526131568161311a565b9050919050565b7f416363657373436f6e74726f6c3a2063616e206f6e6c792072656e6f756e636560008201527f20726f6c657320666f722073656c660000000000000000000000000000000000602082015250565b60006131b9602f83612751565b91506131c48261315d565b604082019050919050565b600060208201905081810360008301526131e8816131ac565b9050919050565b7f4552433732313a20696e76616c696420746f6b656e2049440000000000000000600082015250565b6000613225601883612751565b9150613230826131ef565b602082019050919050565b6000602082019050818103600083015261325481613218565b9050919050565b7f5175616e74697479206d757374206265206174206c6561737420310000000000600082015250565b6000613291601b83612751565b915061329c8261325b565b602082019050919050565b600060208201905081810360008301526132c081613284565b9050919050565b7f526f79616c747920746f6f206869676800000000000000000000000000000000600082015250565b60006132fd601083612751565b9150613308826132c7565b602082019050919050565b6000602082019050818103600083015261332c816132f0565b9050919050565b7f4e487b7100000000000000000000000000000000000000000000000000000000600052601160045260246000fd5b600061336d826127f8565b91507fffffffffffffffffffffffffffffffffffffffffffffffffffffffffffffffff820361339f5761339e613333565b5b600182019050919050565b60006133b5826127f8565b91506133c0836127f8565b92508282019050808211156133d8576133d7613333565b5b92915050565b7f4e487b7100000000000000000000000000000000000000000000000000000000600052603260045260246000fd5b600060a0820190506134226000830188612a43565b61342f602083018761288d565b81810360408301526134418186612c85565b90506134506060830185612a43565b61345d608083018461288d565b9695505050505050565b7f4552433732313a2061646472657373207a65726f206973206e6f74206120766160008201527f6c6964206f776e65720000000000000000000000000000000000000000000000602082015250565b60006134c3602983612751565b91506134ce82613467565b604082019050919050565b600060208201905081810360008301526134f2816134b6565b9050919050565b600081905092915050565b600061350f82612746565b61351981856134f9565b9350613529818560208601612762565b80840191505092915050565b60006135418285613504565b915061354d8284613504565b91508190509392505050565b7f4552433732313a207472616e736665722066726f6d20696e636f72726563742060008201527f6f776e6572000000000000000000000000000000000000000000000000000000602082015250565b60006135b5602583612751565b91506135c082613559565b604082019050919050565b600060208201905081810360008301526135e4816135a8565b9050919050565b7f4552433732313a207472616e7366657220746f20746865207a65726f2061646460008201527f7265737300000000000000000000000000000000000000000000000000000000602082015250565b6000613647602483612751565b9150613652826135eb565b604082019050919050565b600060208201905081810360008301526136768161363a565b9050919050565b7f4552433732313a206d696e7420746f20746865207a65726f2061646472657373600082015250565b60006136b3602083612751565b91506136be8261367d565b602082019050919050565b600060208201905081810360008301526136e2816136a6565b9050919050565b7f4552433732313a20746f6b656e20616c7265616479206d696e74656400000000600082015250565b600061371f601c83612751565b915061372a826136e9565b602082019050919050565b6000602082019050818103600083015261374e81613712565b9050919050565b7f45524337323155524953746f726167653a2055524920736574206f66206e6f6e60008201527f6578697374656e7420746f6b656e000000000000000000000000000000000000602082015250565b60006137b1602e83612751565b91506137bc82613755565b604082019050919050565b600060208201905081810360008301526137e0816137a4565b9050919050565b60008190508160005260206000209050919050565b60006020601f8301049050919050565b600082821b905092915050565b6000600883026138497fffffffffffffffffffffffffffffffffffffffffffffffffffffffffffffffff8261380c565b613853868361380c565b95508019841693508086168417925050509392505050565b6000819050919050565b600061389061388b613886846127f8565b61386b565b6127f8565b9050919050565b6000819050919050565b6138aa83613875565b6138be6138b682613897565b848454613819565b825550505050565b600090565b6138d36138c6565b6138de8184846138a1565b505050565b5b81811015613902576138f76000826138cb565b6001810190506138e4565b5050565b601f82111561394757613918816137e7565b613921846137fc565b81016020851015613930578190505b61394461393c856137fc565b8301826138e3565b50505b505050565b600082821c905092915050565b600061396a6000198460080261394c565b1980831691505092915050565b60006139838383613959565b9150826002028217905092915050565b61399c82612746565b67ffffffffffffffff8111156139b5576139b4612a77565b5b6139bf8254612f76565b6139ca828285613906565b600060209050601f8311600181146139fd57600084156139eb578287015190505b6139f58582613977565b865550613a5d565b601f198416613a0b866137e7565b60005b82811015613a3357848901518255600182019150602085019450602081019050613a0e565b86831015613a505784890151613a4c601f891682613959565b8355505b6001600288020188555050505b505050505050565b7f4552433732313a20617070726f766520746f2063616c6c657200000000000000600082015250565b6000613a9b601983612751565b9150613aa682613a65565b602082019050919050565b60006020820190508181036000830152613aca81613a8e565b9050919050565b7f4552433732313a207472616e7366657220746f206e6f6e20455243373231526560008201527f63656976657220696d706c656d656e7465720000000000000000000000000000602082015250565b6000613b2d603283612751565b9150613b3882613ad1565b604082019050919050565b60006020820190508181036000830152613b5c81613b20565b9050919050565b7f416363657373436f6e74726f6c3a206163636f756e7420000000000000000000600082015250565b6000613b996017836134f9565b9150613ba482613b63565b601782019050919050565b7f206973206d697373696e6720726f6c6520000000000000000000000000000000600082015250565b6000613be56011836134f9565b9150613bf082613baf565b601182019050919050565b6000613c0682613b8c565b9150613c128285613504565b9150613c1d82613bd8565b9150613c298284613504565b91508190509392505050565b600081519050919050565b600082825260208201905092915050565b6000613c5c82613c35565b613c668185613c40565b9350613c76818560208601612762565b613c7f8161278c565b840191505092915050565b6000608082019050613c9f600083018761288d565b613cac602083018661288d565b613cb96040830185612a43565b8181036060830152613ccb8184613c51565b905095945050505050565b600081519050613ce5816126b7565b92915050565b600060208284031215613d0157613d00612681565b5b6000613d0f84828501613cd6565b91505092915050565b7f4e487b7100000000000000000000000000000000000000000000000000000000600052601260045260246000fd5b6000613d52826127f8565b9150613d5d836127f8565b9250828202613d6b816127f8565b91508282048414831517613d8257613d81613333565b5b5092915050565b6000613d94826127f8565b915060008203613da757613da6613333565b5b600182039050919050565b7f537472696e67733a20686578206c656e67746820696e73756666696369656e74600082015250565b6000613de8602083612751565b9150613df382613db2565b602082019050919050565b60006020820190508181036000830152613e1781613ddb565b905091905056fea26469706673582212206f0b03f86adc6b18ec8a39fb406c9c7241b5bafa05c8e7b76471f7f3e6abfdb364736f6c63430008120033",
  "linkReferences": {},
  "deployedLinkReferences": {}
}