{
  "_format": "hh-sol-artifact-1",
  "contractName": "NFTMarketplace",
  "sourceName": "contracts/NFTMarketplace.sol",
  "abi": [
    {
      "inputs": [
        {
          "internalType": "address",
          "name": "nftAddress",
          "type": "address"
        }
      ],
      "stateMutability": "nonpayable",
      "type": "constructor"
    },
    {
      "inputs": [],
      "name": "EnforcedPause",
      "type": "error"
    },
    {
      "inputs": [],
      "name": "ExpectedPause",
      "type": "error"
    },
    {
      "inputs": [
        {
          "internalType": "address",
          "name": "owner",
          "type": "address"
        }
      ],
      "name": "OwnableInvalidOwner",
      "type": "error"
    },
    {
      "inputs": [
        {
          "internalType": "address",
          "name": "account",
          "type": "address"
        }
      ],
      "name": "OwnableUnauthorizedAccount",
      "type": "error"
    },
    {
      "inputs": [],
      "name": "ReentrancyGuardReentrantCall",
      "type": "error"
    },
    {
      "anonymous": false,
      "inputs": [
        {
          "indexed": true,
          "internalType": "uint256",
          "name": "listingId",
          "type": "uint256"
        },
        {
          "indexed": true,
          "internalType": "uint256",
          "name": "tokenId",
          "type": "uint256"
        },
        {
          "indexed": true,
          "internalType": "address",
          "name": "seller",
          "type": "address"
        },
        {
          "indexed": false,
          "internalType": "uint256",
          "name": "price",
          "type": "uint256"
        }
      ],
      "name": "MarketItemCreated",
      "type": "event"
    },
    {
      "anonymous": false,
      "inputs": [
        {
          "indexed": true,
          "internalType": "uint256",
          "name": "listingId",
          "type": "uint256"
        },
        {
          "indexed": true,
          "internalType": "uint256",
          "name": "tokenId",
          "type": "uint256"
        },
        {
          "indexed": true,
          "internalType": "address",
          "name": "seller",
          "type": "address"
        }
      ],
      "name": "MarketItemDelisted",
      "type": "event"
    },
    {
      "anonymous": false,
      "inputs": [
        {
          "indexed": true,
          "internalType": "uint256",
          "name": "listingId",
          "type": "uint256"
        },
        {
          "indexed": true,
          "internalType": "uint256",
          "name": "tokenId",
          "type": "uint256"
        },
        {
          "indexed": true,
          "internalType": "address",
          "name": "buyer",
          "type": "address"
        },
        {
          "indexed": false,
          "internalType": "uint256",
          "name": "price",
          "type": "uint256"
        }
      ],
      "name": "MarketItemSold",
      "type": "event"
    },
    {
      "anonymous": false,
      "inputs": [
        {
          "indexed": true,
          "internalType": "address",
          "name": "previousOwner",
          "type": "address"
        },
        {
          "indexed": true,
          "internalType": "address",
          "name": "newOwner",
          "type": "address"
        }
      ],
      "name": "OwnershipTransferred",
      "type": "event"
    },
    {
      "anonymous": false,
      "inputs": [
        {
          "indexed": false,
          "internalType": "address",
          "name": "account",
          "type": "address"
        }
      ],
      "name": "Paused",
      "type": "event"
    },
    {
      "anonymous": false,
      "inputs": [
        {
          "indexed": false,
          "internalType": "address",
          "name": "account",
          "type": "address"
        }
      ],
      "name": "Unpaused",
      "type": "event"
    },
    {
      "inputs": [
        {
          "internalType": "uint256",
          "name": "listingId",
          "type": "uint256"
        }
      ],
      "name": "buyItem",
      "outputs": [],
      "stateMutability": "payable",
      "type": "function"
    },
    {
      "inputs": [
        {
          "internalType": "uint256",
          "name": "listingId",
          "type": "uint256"
        }
      ],
      "name": "delistItem",
      "outputs": [],
      "stateMutability": "nonpayable",
      "type": "function"
    },
    {
      "inputs": [],
      "name": "fetchItemsListed",
      "outputs": [
        {
          "components": [
            {
              "internalType": "uint256",
              "name": "listingId",
              "type": "uint256"
            },
            {
              "internalType": "uint256",
              "name": "tokenId",
              "type": "uint256"
            },
            {
              "internalType": "address payable",
              "name": "seller",
              "type": "address"
            },
            {
              "internalType": "address payable",
              "name": "creator",
              "type": "address"
            },
            {
              "internalType": "address",
              "name": "owner",
              "type": "address"
            },
            {
              "internalType": "uint256",
              "name": "price",
              "type": "uint256"
            },
            {
              "internalType": "uint256",
              "name": "royaltyPercentage",
              "type": "uint256"
            },
            {
              "internalType": "bool",
              "name": "sold",
              "type": "bool"
            },
            {
              "internalType": "uint256",
              "name": "batchNumber",
              "type": "uint256"
            },
            {
              "internalType": "uint256",
              "name": "batchSpecificId",
              "type": "uint256"
            }
          ],
          "internalType": "struct NFTMarketplace.MarketItem[]",
          "name": "",
          "type": "tuple[]"
        }
      ],
      "stateMutability": "view",
      "type": "function"
    },
    {
      "inputs": [],
      "name": "fetchMarketItems",
      "outputs": [
        {
          "components": [
            {
              "internalType": "uint256",
              "name": "listingId",
              "type": "uint256"
            },
            {
              "internalType": "uint256",
              "name": "tokenId",
              "type": "uint256"
            },
            {
              "internalType": "address payable",
              "name": "seller",
              "type": "address"
            },
            {
              "internalType": "address payable",
              "name": "creator",
              "type": "address"
            },
            {
              "internalType": "address",
              "name": "owner",
              "type": "address"
            },
            {
              "internalType": "uint256",
              "name": "price",
              "type": "uint256"
            },
            {
              "internalType": "uint256",
              "name": "royaltyPercentage",
              "type": "uint256"
            },
            {
              "internalType": "bool",
              "name": "sold",
              "type": "bool"
            },
            {
              "internalType": "uint256",
              "name": "batchNumber",
              "type": "uint256"
            },
            {
              "internalType": "uint256",
              "name": "batchSpecificId",
              "type": "uint256"
            }
          ],
          "internalType": "struct NFTMarketplace.MarketItem[]",
          "name": "",
          "type": "tuple[]"
        }
      ],
      "stateMutability": "view",
      "type": "function"
    },
    {
      "inputs": [],
      "name": "fetchMyNFTs",
      "outputs": [
        {
          "components": [
            {
              "internalType": "uint256",
              "name": "listingId",
              "type": "uint256"
            },
            {
              "internalType": "uint256",
              "name": "tokenId",
              "type": "uint256"
            },
            {
              "internalType": "address payable",
              "name": "seller",
              "type": "address"
            },
            {
              "internalType": "address payable",
              "name": "creator",
              "type": "address"
            },
            {
              "internalType": "address",
              "name": "owner",
              "type": "address"
            },
            {
              "internalType": "uint256",
              "name": "price",
              "type": "uint256"
            },
            {
              "internalType": "uint256",
              "name": "royaltyPercentage",
              "type": "uint256"
            },
            {
              "internalType": "bool",
              "name": "sold",
              "type": "bool"
            },
            {
              "internalType": "uint256",
              "name": "batchNumber",
              "type": "uint256"
            },
            {
              "internalType": "uint256",
              "name": "batchSpecificId",
              "type": "uint256"
            }
          ],
          "internalType": "struct NFTMarketplace.MarketItem[]",
          "name": "",
          "type": "tuple[]"
        }
      ],
      "stateMutability": "view",
      "type": "function"
    },
    {
      "inputs": [],
      "name": "getFees",
      "outputs": [
        {
          "internalType": "uint256",
          "name": "",
          "type": "uint256"
        },
        {
          "internalType": "uint256",
          "name": "",
          "type": "uint256"
        }
      ],
      "stateMutability": "view",
      "type": "function"
    },
    {
      "inputs": [],
      "name": "getMarketplaceEarnings",
      "outputs": [
        {
          "internalType": "uint256",
          "name": "",
          "type": "uint256"
        }
      ],
      "stateMutability": "view",
      "type": "function"
    },
    {
      "inputs": [
        {
          "internalType": "uint256",
          "name": "",
          "type": "uint256"
        }
      ],
      "name": "idToMarketItem",
      "outputs": [
        {
          "internalType": "uint256",
          "name": "listingId",
          "type": "uint256"
        },
        {
          "internalType": "uint256",
          "name": "tokenId",
          "type": "uint256"
        },
        {
          "internalType": "address payable",
          "name": "seller",
          "type": "address"
        },
        {
          "internalType": "address payable",
          "name": "creator",
          "type": "address"
        },
        {
          "internalType": "address",
          "name": "owner",
          "type": "address"
        },
        {
          "internalType": "uint256",
          "name": "price",
          "type": "uint256"
        },
        {
          "internalType": "uint256",
          "name": "royaltyPercentage",
          "type": "uint256"
        },
        {
          "internalType": "bool",
          "name": "sold",
          "type": "bool"
        },
        {
          "internalType": "uint256",
          "name": "batchNumber",
          "type": "uint256"
        },
        {
          "internalType": "uint256",
          "name": "batchSpecificId",
          "type": "uint256"
        }
      ],
      "stateMutability": "view",
      "type": "function"
    },
    {
      "inputs": [
        {
          "internalType": "uint256",
          "name": "tokenId",
          "type": "uint256"
        },
        {
          "internalType": "uint256",
          "name": "price",
          "type": "uint256"
        }
      ],
      "name": "listItem",
      "outputs": [],
      "stateMutability": "payable",
      "type": "function"
    },
    {
      "inputs": [],
      "name": "listingPrice",
      "outputs": [
        {
          "internalType": "uint256",
          "name": "",
          "type": "uint256"
        }
      ],
      "stateMutability": "view",
      "type": "function"
    },
    {
      "inputs": [
        {
          "internalType": "uint256",
          "name": "",
          "type": "uint256"
        }
      ],
      "name": "marketListingIds",
      "outputs": [
        {
          "internalType": "uint256",
          "name": "",
          "type": "uint256"
        }
      ],
      "stateMutability": "view",
      "type": "function"
    },
    {
      "inputs": [
        {
          "internalType": "string",
          "name": "tokenURI",
          "type": "string"
        },
        {
          "internalType": "uint256",
          "name": "price",
          "type": "uint256"
        },
        {
          "internalType": "uint256",
          "name": "royaltyPercentage",
          "type": "uint256"
        },
        {
          "internalType": "uint256",
          "name": "quantity",
          "type": "uint256"
        }
      ],
      "name": "mintAndList",
      "outputs": [],
      "stateMutability": "payable",
      "type": "function"
    },
    {
      "inputs": [],
      "name": "newListingId",
      "outputs": [
        {
          "internalType": "uint256",
          "name": "",
          "type": "uint256"
        }
      ],
      "stateMutability": "view",
      "type": "function"
    },
    {
      "inputs": [],
      "name": "nftContract",
      "outputs": [
        {
          "internalType": "contract INFT",
          "name": "",
          "type": "address"
        }
      ],
      "stateMutability": "view",
      "type": "function"
    },
    {
      "inputs": [
        {
          "internalType": "address",
          "name": "",
          "type": "address"
        },
        {
          "internalType": "address",
          "name": "",
          "type": "address"
        },
        {
          "internalType": "uint256",
          "name": "",
          "type": "uint256"
        },
        {
          "internalType": "bytes",
          "name": "",
          "type": "bytes"
        }
      ],
      "name": "onERC721Received",
      "outputs": [
        {
          "internalType": "bytes4",
          "name": "",
          "type": "bytes4"
        }
      ],
      "stateMutability": "pure",
      "type": "function"
    },
    {
      "inputs": [],
      "name": "owner",
      "outputs": [
        {
          "internalType": "address",
          "name": "",
          "type": "address"
        }
      ],
      "stateMutability": "view",
      "type": "function"
    },
    {
      "inputs": [],
      "name": "pause",
      "outputs": [],
      "stateMutability": "nonpayable",
      "type": "function"
    },
    {
      "inputs": [],
      "name": "paused",
      "outputs": [
        {
          "internalType": "bool",
          "name": "",
          "type": "bool"
        }
      ],
      "stateMutability": "view",
      "type": "function"
    },
    {
      "inputs": [
        {
          "internalType": "address",
          "name": "",
          "type": "address"
        }
      ],
      "name": "pendingWithdrawals",
      "outputs": [
        {
          "internalType": "uint256",
          "name": "",
          "type": "uint256"
        }
      ],
      "stateMutability": "view",
      "type": "function"
    },
    {
      "inputs": [],
      "name": "renounceOwnership",
      "outputs": [],
      "stateMutability": "nonpayable",
      "type": "function"
    },
    {
      "inputs": [
        {
          "internalType": "uint256",
          "name": "",
          "type": "uint256"
        },
        {
          "internalType": "uint256",
          "name": "",
          "type": "uint256"
        }
      ],
      "name": "tokenIdToListings",
      "outputs": [
        {
          "internalType": "uint256",
          "name": "",
          "type": "uint256"
        }
      ],
      "stateMutability": "view",
      "type": "function"
    },
    {
      "inputs": [],
      "name": "totalMarketplaceEarnings",
      "outputs": [
        {
          "internalType": "uint256",
          "name": "",
          "type": "uint256"
        }
      ],
      "stateMutability": "view",
      "type": "function"
    },
    {
      "inputs": [],
      "name": "transferFee",
      "outputs": [
        {
          "internalType": "uint256",
          "name": "",
          "type": "uint256"
        }
      ],
      "stateMutability": "view",
      "type": "function"
    },
    {
      "inputs": [
        {
          "internalType": "address",
          "name": "newOwner",
          "type": "address"
        }
      ],
      "name": "transferOwnership",
      "outputs": [],
      "stateMutability": "nonpayable",
      "type": "function"
    },
    {
      "inputs": [],
      "name": "unpause",
      "outputs": [],
      "stateMutability": "nonpayable",
      "type": "function"
    },
    {
      "inputs": [
        {
          "internalType": "uint256",
          "name": "_listingPrice",
          "type": "uint256"
        },
        {
          "internalType": "uint256",
          "name": "_transferFee",
          "type": "uint256"
        }
      ],
      "name": "updateFees",
      "outputs": [],
      "stateMutability": "nonpayable",
      "type": "function"
    },
    {
      "inputs": [],
      "name": "withdraw",
      "outputs": [],
      "stateMutability": "nonpayable",
      "type": "function"
    }
  ],
  "bytecode": "0x60806040526658d15e1762800060045560026005553480156200002157600080fd5b5060405162003aab38038062003aab833981810160405281019062000047919062000267565b3360016000819055506000600160006101000a81548160ff021916908315150217905550600073ffffffffffffffffffffffffffffffffffffffff168173ffffffffffffffffffffffffffffffffffffffff1603620000e05760006040517f1e4fbdf7000000000000000000000000000000000000000000000000000000008152600401620000d79190620002aa565b60405180910390fd5b620000f1816200013a60201b60201c565b5080600260006101000a81548173ffffffffffffffffffffffffffffffffffffffff021916908373ffffffffffffffffffffffffffffffffffffffff16021790555050620002c7565b600060018054906101000a900473ffffffffffffffffffffffffffffffffffffffff169050816001806101000a81548173ffffffffffffffffffffffffffffffffffffffff021916908373ffffffffffffffffffffffffffffffffffffffff1602179055508173ffffffffffffffffffffffffffffffffffffffff168173ffffffffffffffffffffffffffffffffffffffff167f8be0079c531659141344cd1fd0a4f28419497f9722a3daafe3b4186f6b6457e060405160405180910390a35050565b600080fd5b600073ffffffffffffffffffffffffffffffffffffffff82169050919050565b60006200022f8262000202565b9050919050565b620002418162000222565b81146200024d57600080fd5b50565b600081519050620002618162000236565b92915050565b60006020828403121562000280576200027f620001fd565b5b6000620002908482850162000250565b91505092915050565b620002a48162000222565b82525050565b6000602082019050620002c1600083018462000299565b92915050565b6137d480620002d76000396000f3fe60806040526004361061019c5760003560e01c8063883efa67116100ec578063d56d229d1161008a578063e61a70c011610064578063e61a70c014610543578063e7fb74c714610589578063f2fde38b146105a5578063f3f43703146105ce5761019c565b8063d56d229d146104c1578063db8d55f1146104ec578063e1f4e727146105185761019c565b8063a995bb19116100c6578063a995bb1914610403578063acb2ad6f1461042e578063c0944da714610459578063c78f19f9146104965761019c565b8063883efa671461037f5780638da5cb5b1461039b5780639fcf1bd0146103c65761019c565b80633f4ba83a116101595780635d9fe0ff116101335780635d9fe0ff146102fd5780636db7943714610328578063715018a6146103515780638456cb59146103685761019c565b80633f4ba83a1461029057806345f8fa80146102a75780635c975abb146102d25761019c565b80630f08efe0146101a157806310061631146101cc578063150b7a02146101f5578063202e37401461023257806320e6d9b71461025d5780633ccfd60b14610279575b600080fd5b3480156101ad57600080fd5b506101b661060b565b6040516101c391906128a9565b60405180910390f35b3480156101d857600080fd5b506101f360048036038101906101ee919061290b565b6108fe565b005b34801561020157600080fd5b5061021c600480360381019061021791906129c9565b610bc2565b6040516102299190612a8c565b60405180910390f35b34801561023e57600080fd5b50610247610bd7565b60405161025491906128a9565b60405180910390f35b61027760048036038101906102729190612be8565b6110a2565b005b34801561028557600080fd5b5061028e61124e565b005b34801561029c57600080fd5b506102a56113ca565b005b3480156102b357600080fd5b506102bc6113dc565b6040516102c991906128a9565b60405180910390f35b3480156102de57600080fd5b506102e7611751565b6040516102f49190612c7a565b60405180910390f35b34801561030957600080fd5b50610312611768565b60405161031f9190612ca4565b60405180910390f35b34801561033457600080fd5b5061034f600480360381019061034a9190612cbf565b61176e565b005b34801561035d57600080fd5b50610366611788565b005b34801561037457600080fd5b5061037d61179c565b005b61039960048036038101906103949190612cbf565b6117ae565b005b3480156103a757600080fd5b506103b061195d565b6040516103bd9190612d0e565b60405180910390f35b3480156103d257600080fd5b506103ed60048036038101906103e89190612cbf565b611985565b6040516103fa9190612ca4565b60405180910390f35b34801561040f57600080fd5b506104186119b6565b6040516104259190612ca4565b60405180910390f35b34801561043a57600080fd5b506104436119c0565b6040516104509190612ca4565b60405180910390f35b34801561046557600080fd5b50610480600480360381019061047b919061290b565b6119c6565b60405161048d9190612ca4565b60405180910390f35b3480156104a257600080fd5b506104ab6119ea565b6040516104b89190612ca4565b60405180910390f35b3480156104cd57600080fd5b506104d66119f0565b6040516104e39190612d88565b60405180910390f35b3480156104f857600080fd5b50610501611a16565b60405161050f929190612da3565b60405180910390f35b34801561052457600080fd5b5061052d611a27565b60405161053a9190612ca4565b60405180910390f35b34801561054f57600080fd5b5061056a6004803603810190610565919061290b565b611a2d565b6040516105809a99989796959493929190612ddb565b60405180910390f35b6105a3600480360381019061059e919061290b565b611aee565b005b3480156105b157600080fd5b506105cc60048036038101906105c79190612e77565b611ed8565b005b3480156105da57600080fd5b506105f560048036038101906105f09190612e77565b611f5e565b6040516106029190612ca4565b60405180910390f35b60606000805b60078054905081101561068657600860006007838154811061063657610635612ea4565b5b9060005260206000200154815260200190815260200160002060070160009054906101000a900460ff1661067357818061066f90612f02565b9250505b808061067e90612f02565b915050610611565b5060008167ffffffffffffffff8111156106a3576106a2612abd565b5b6040519080825280602002602001820160405280156106dc57816020015b6106c9612600565b8152602001906001900390816106c15790505b5090506000805b6007805490508110156108f45760006007828154811061070657610705612ea4565b5b906000526020600020015490506008600082815260200190815260200160002060070160009054906101000a900460ff166108e057600860008281526020019081526020016000206040518061014001604052908160008201548152602001600182015481526020016002820160009054906101000a900473ffffffffffffffffffffffffffffffffffffffff1673ffffffffffffffffffffffffffffffffffffffff1673ffffffffffffffffffffffffffffffffffffffff1681526020016003820160009054906101000a900473ffffffffffffffffffffffffffffffffffffffff1673ffffffffffffffffffffffffffffffffffffffff1673ffffffffffffffffffffffffffffffffffffffff1681526020016004820160009054906101000a900473ffffffffffffffffffffffffffffffffffffffff1673ffffffffffffffffffffffffffffffffffffffff1673ffffffffffffffffffffffffffffffffffffffff16815260200160058201548152602001600682015481526020016007820160009054906101000a900460ff16151515158152602001600882015481526020016009820154815250508484815181106108c6576108c5612ea4565b5b602002602001018190525082806108dc90612f02565b9350505b5080806108ec90612f02565b9150506106e3565b5081935050505090565b610906611f76565b61090e611fbc565b60006008600083815260200190815260200160002090503373ffffffffffffffffffffffffffffffffffffffff168160020160009054906101000a900473ffffffffffffffffffffffffffffffffffffffff1673ffffffffffffffffffffffffffffffffffffffff16146109b7576040517f08c379a00000000000000000000000000000000000000000000000000000000081526004016109ae90612fa7565b60405180910390fd5b8060070160009054906101000a900460ff1615610a09576040517f08c379a0000000000000000000000000000000000000000000000000000000008152600401610a0090613013565b60405180910390fd5b600260009054906101000a900473ffffffffffffffffffffffffffffffffffffffff1673ffffffffffffffffffffffffffffffffffffffff166342842e0e303384600101546040518463ffffffff1660e01b8152600401610a6c93929190613033565b600060405180830381600087803b158015610a8657600080fd5b505af1158015610a9a573d6000803e3d6000fd5b505050506008600083815260200190815260200160002060008082016000905560018201600090556002820160006101000a81549073ffffffffffffffffffffffffffffffffffffffff02191690556003820160006101000a81549073ffffffffffffffffffffffffffffffffffffffff02191690556004820160006101000a81549073ffffffffffffffffffffffffffffffffffffffff0219169055600582016000905560068201600090556007820160006101000a81549060ff02191690556008820160009055600982016000905550503373ffffffffffffffffffffffffffffffffffffffff168160010154837fa71d01673ab40fa9e9c5091cf1b356ee673b9eccca541b0e12319a6e1ce7360c60405160405180910390a450610bbf611ffd565b50565b600063150b7a0260e01b905095945050505050565b60606000805b600780549050811015610d4157600060078281548110610c0057610bff612ea4565b5b906000526020600020015490506008600082815260200190815260200160002060070160009054906101000a900460ff168015610d1957503373ffffffffffffffffffffffffffffffffffffffff16600260009054906101000a900473ffffffffffffffffffffffffffffffffffffffff1673ffffffffffffffffffffffffffffffffffffffff16636352211e60086000858152602001908152602001600020600101546040518263ffffffff1660e01b8152600401610cc09190612ca4565b602060405180830381865afa158015610cdd573d6000803e3d6000fd5b505050506040513d601f19601f82011682018060405250810190610d01919061307f565b73ffffffffffffffffffffffffffffffffffffffff16145b15610d2d578280610d2990612f02565b9350505b508080610d3990612f02565b915050610bdd565b5060008167ffffffffffffffff811115610d5e57610d5d612abd565b5b604051908082528060200260200182016040528015610d9757816020015b610d84612600565b815260200190600190039081610d7c5790505b5090506000805b60078054905081101561109857600060078281548110610dc157610dc0612ea4565b5b906000526020600020015490506008600082815260200190815260200160002060070160009054906101000a900460ff168015610eda57503373ffffffffffffffffffffffffffffffffffffffff16600260009054906101000a900473ffffffffffffffffffffffffffffffffffffffff1673ffffffffffffffffffffffffffffffffffffffff16636352211e60086000858152602001908152602001600020600101546040518263ffffffff1660e01b8152600401610e819190612ca4565b602060405180830381865afa158015610e9e573d6000803e3d6000fd5b505050506040513d601f19601f82011682018060405250810190610ec2919061307f565b73ffffffffffffffffffffffffffffffffffffffff16145b1561108457600860008281526020019081526020016000206040518061014001604052908160008201548152602001600182015481526020016002820160009054906101000a900473ffffffffffffffffffffffffffffffffffffffff1673ffffffffffffffffffffffffffffffffffffffff1673ffffffffffffffffffffffffffffffffffffffff1681526020016003820160009054906101000a900473ffffffffffffffffffffffffffffffffffffffff1673ffffffffffffffffffffffffffffffffffffffff1673ffffffffffffffffffffffffffffffffffffffff1681526020016004820160009054906101000a900473ffffffffffffffffffffffffffffffffffffffff1673ffffffffffffffffffffffffffffffffffffffff1673ffffffffffffffffffffffffffffffffffffffff16815260200160058201548152602001600682015481526020016007820160009054906101000a900460ff161515151581526020016008820154815260200160098201548152505084848151811061106a57611069612ea4565b5b6020026020010181905250828061108090612f02565b9350505b50808061109090612f02565b915050610d9e565b5081935050505090565b6110aa611f76565b6110b2611fbc565b600081116110f5576040517f08c379a00000000000000000000000000000000000000000000000000000000081526004016110ec906130f8565b60405180910390fd5b60008311611138576040517f08c379a000000000000000000000000000000000000000000000000000000000815260040161112f90613164565b60405180910390fd5b806004546111469190613184565b3414611187576040517f08c379a000000000000000000000000000000000000000000000000000000000815260040161117e90613212565b60405180910390fd5b6000600260009054906101000a900473ffffffffffffffffffffffffffffffffffffffff1673ffffffffffffffffffffffffffffffffffffffff16636d74e2bd308785876040518563ffffffff1660e01b81526004016111ea94939291906132a0565b6000604051808303816000875af1158015611209573d6000803e3d6000fd5b505050506040513d6000823e3d601f19601f8201168201806040525081019061123291906133c4565b905061123f818533612007565b50611248611ffd565b50505050565b6000600a60003373ffffffffffffffffffffffffffffffffffffffff1673ffffffffffffffffffffffffffffffffffffffff168152602001908152602001600020549050600081116112d5576040517f08c379a00000000000000000000000000000000000000000000000000000000081526004016112cc90613459565b60405180910390fd5b6000600a60003373ffffffffffffffffffffffffffffffffffffffff1673ffffffffffffffffffffffffffffffffffffffff1681526020019081526020016000208190555060003373ffffffffffffffffffffffffffffffffffffffff1682604051611340906134aa565b60006040518083038185875af1925050503d806000811461137d576040519150601f19603f3d011682016040523d82523d6000602084013e611382565b606091505b50509050806113c6576040517f08c379a00000000000000000000000000000000000000000000000000000000081526004016113bd9061350b565b60405180910390fd5b5050565b6113d26123a9565b6113da612430565b565b60606000805b600780549050811015611498573373ffffffffffffffffffffffffffffffffffffffff16600860006007848154811061141e5761141d612ea4565b5b9060005260206000200154815260200190815260200160002060020160009054906101000a900473ffffffffffffffffffffffffffffffffffffffff1673ffffffffffffffffffffffffffffffffffffffff160361148557818061148190612f02565b9250505b808061149090612f02565b9150506113e2565b5060008167ffffffffffffffff8111156114b5576114b4612abd565b5b6040519080825280602002602001820160405280156114ee57816020015b6114db612600565b8152602001906001900390816114d35790505b5090506000805b6007805490508110156117475760006007828154811061151857611517612ea4565b5b906000526020600020015490503373ffffffffffffffffffffffffffffffffffffffff166008600083815260200190815260200160002060020160009054906101000a900473ffffffffffffffffffffffffffffffffffffffff1673ffffffffffffffffffffffffffffffffffffffff160361173357600860008281526020019081526020016000206040518061014001604052908160008201548152602001600182015481526020016002820160009054906101000a900473ffffffffffffffffffffffffffffffffffffffff1673ffffffffffffffffffffffffffffffffffffffff1673ffffffffffffffffffffffffffffffffffffffff1681526020016003820160009054906101000a900473ffffffffffffffffffffffffffffffffffffffff1673ffffffffffffffffffffffffffffffffffffffff1673ffffffffffffffffffffffffffffffffffffffff1681526020016004820160009054906101000a900473ffffffffffffffffffffffffffffffffffffffff1673ffffffffffffffffffffffffffffffffffffffff1673ffffffffffffffffffffffffffffffffffffffff16815260200160058201548152602001600682015481526020016007820160009054906101000a900460ff161515151581526020016008820154815260200160098201548152505084848151811061171957611718612ea4565b5b6020026020010181905250828061172f90612f02565b9350505b50808061173f90612f02565b9150506114f5565b5081935050505090565b6000600160009054906101000a900460ff16905090565b60035481565b6117766123a9565b81600481905550806005819055505050565b6117906123a9565b61179a6000612493565b565b6117a46123a9565b6117ac612556565b565b6117b6611f76565b6117be611fbc565b60008111611801576040517f08c379a00000000000000000000000000000000000000000000000000000000081526004016117f890613164565b60405180910390fd5b6004543414611845576040517f08c379a000000000000000000000000000000000000000000000000000000000815260040161183c90613577565b60405180910390fd5b600260009054906101000a900473ffffffffffffffffffffffffffffffffffffffff1673ffffffffffffffffffffffffffffffffffffffff166342842e0e3330856040518463ffffffff1660e01b81526004016118a493929190613033565b600060405180830381600087803b1580156118be57600080fd5b505af11580156118d2573d6000803e3d6000fd5b505050506000600167ffffffffffffffff8111156118f3576118f2612abd565b5b6040519080825280602002602001820160405280156119215781602001602082028036833780820191505090505b509050828160008151811061193957611938612ea4565b5b602002602001018181525050611950818333612007565b50611959611ffd565b5050565b600060018054906101000a900473ffffffffffffffffffffffffffffffffffffffff16905090565b600960205281600052604060002081815481106119a157600080fd5b90600052602060002001600091509150505481565b6000600654905090565b60055481565b600781815481106119d657600080fd5b906000526020600020016000915090505481565b60045481565b600260009054906101000a900473ffffffffffffffffffffffffffffffffffffffff1681565b600080600454600554915091509091565b60065481565b60086020528060005260406000206000915090508060000154908060010154908060020160009054906101000a900473ffffffffffffffffffffffffffffffffffffffff16908060030160009054906101000a900473ffffffffffffffffffffffffffffffffffffffff16908060040160009054906101000a900473ffffffffffffffffffffffffffffffffffffffff16908060050154908060060154908060070160009054906101000a900460ff1690806008015490806009015490508a565b611af6611f76565b611afe611fbc565b60006008600083815260200190815260200160002090508060070160009054906101000a900460ff1615611b67576040517f08c379a0000000000000000000000000000000000000000000000000000000008152600401611b5e906135e3565b60405180910390fd5b80600501543414611bad576040517f08c379a0000000000000000000000000000000000000000000000000000000008152600401611ba49061364f565b60405180910390fd5b600060646005548360050154611bc39190613184565b611bcd919061369e565b90506000606483600601548460050154611be79190613184565b611bf1919061369e565b9050600081838560050154611c0691906136cf565b611c1091906136cf565b90508260066000828254611c249190613703565b9250508190555080600a60008660020160009054906101000a900473ffffffffffffffffffffffffffffffffffffffff1673ffffffffffffffffffffffffffffffffffffffff1673ffffffffffffffffffffffffffffffffffffffff1681526020019081526020016000206000828254611c9e9190613703565b9250508190555081600a60008660030160009054906101000a900473ffffffffffffffffffffffffffffffffffffffff1673ffffffffffffffffffffffffffffffffffffffff1673ffffffffffffffffffffffffffffffffffffffff1681526020019081526020016000206000828254611d189190613703565b9250508190555082600a6000611d2c61195d565b73ffffffffffffffffffffffffffffffffffffffff1673ffffffffffffffffffffffffffffffffffffffff1681526020019081526020016000206000828254611d759190613703565b9250508190555060018460070160006101000a81548160ff021916908315150217905550338460040160006101000a81548173ffffffffffffffffffffffffffffffffffffffff021916908373ffffffffffffffffffffffffffffffffffffffff160217905550600260009054906101000a900473ffffffffffffffffffffffffffffffffffffffff1673ffffffffffffffffffffffffffffffffffffffff166342842e0e303387600101546040518463ffffffff1660e01b8152600401611e3f93929190613033565b600060405180830381600087803b158015611e5957600080fd5b505af1158015611e6d573d6000803e3d6000fd5b505050503373ffffffffffffffffffffffffffffffffffffffff168460010154867f3b483ea77abd0ead8c58acb73bbf9cf17cbbccc839b9f29a697171edc986a0838760050154604051611ec19190612ca4565b60405180910390a450505050611ed5611ffd565b50565b611ee06123a9565b600073ffffffffffffffffffffffffffffffffffffffff168173ffffffffffffffffffffffffffffffffffffffff1603611f525760006040517f1e4fbdf7000000000000000000000000000000000000000000000000000000008152600401611f499190612d0e565b60405180910390fd5b611f5b81612493565b50565b600a6020528060005260406000206000915090505481565b600260005403611fb2576040517f3ee5aeb500000000000000000000000000000000000000000000000000000000815260040160405180910390fd5b6002600081905550565b611fc4611751565b15611ffb576040517fd93c066500000000000000000000000000000000000000000000000000000000815260040160405180910390fd5b565b6001600081905550565b60005b83518110156123a357600084828151811061202857612027612ea4565b5b60200260200101519050600080600080600260009054906101000a900473ffffffffffffffffffffffffffffffffffffffff1673ffffffffffffffffffffffffffffffffffffffff16638c7a63ae866040518263ffffffff1660e01b81526004016120939190612ca4565b608060405180830381865afa1580156120b0573d6000803e3d6000fd5b505050506040513d601f19601f820116820180604052508101906120d49190613737565b9350935093509350600360008154809291906120ef90612f02565b9190505550600060405180610140016040528060035481526020018781526020018973ffffffffffffffffffffffffffffffffffffffff1681526020018373ffffffffffffffffffffffffffffffffffffffff1681526020013073ffffffffffffffffffffffffffffffffffffffff1681526020018a815260200184815260200160001515815260200186815260200185815250905080600860006003548152602001908152602001600020600082015181600001556020820151816001015560408201518160020160006101000a81548173ffffffffffffffffffffffffffffffffffffffff021916908373ffffffffffffffffffffffffffffffffffffffff16021790555060608201518160030160006101000a81548173ffffffffffffffffffffffffffffffffffffffff021916908373ffffffffffffffffffffffffffffffffffffffff16021790555060808201518160040160006101000a81548173ffffffffffffffffffffffffffffffffffffffff021916908373ffffffffffffffffffffffffffffffffffffffff16021790555060a0820151816005015560c0820151816006015560e08201518160070160006101000a81548160ff02191690831515021790555061010082015181600801556101208201518160090155905050600960008781526020019081526020016000206003549080600181540180825580915050600190039060005260206000200160009091909190915055600760035490806001815401808255809150506001900390600052602060002001600090919091909150558773ffffffffffffffffffffffffffffffffffffffff16866003547fdc9d79b0fe2198ceff7f76af9e05e2eacb3af07f0d4c913397475ab8bac771b88c6040516123829190612ca4565b60405180910390a4505050505050808061239b90612f02565b91505061200a565b50505050565b6123b16125b8565b73ffffffffffffffffffffffffffffffffffffffff166123cf61195d565b73ffffffffffffffffffffffffffffffffffffffff161461242e576123f26125b8565b6040517f118cdaa70000000000000000000000000000000000000000000000000000000081526004016124259190612d0e565b60405180910390fd5b565b6124386125c0565b6000600160006101000a81548160ff0219169083151502179055507f5db9ee0a495bf2e6ff9c91a7834c1ba4fdd244a5e8aa4e537bd38aeae4b073aa61247c6125b8565b6040516124899190612d0e565b60405180910390a1565b600060018054906101000a900473ffffffffffffffffffffffffffffffffffffffff169050816001806101000a81548173ffffffffffffffffffffffffffffffffffffffff021916908373ffffffffffffffffffffffffffffffffffffffff1602179055508173ffffffffffffffffffffffffffffffffffffffff168173ffffffffffffffffffffffffffffffffffffffff167f8be0079c531659141344cd1fd0a4f28419497f9722a3daafe3b4186f6b6457e060405160405180910390a35050565b61255e611fbc565b60018060006101000a81548160ff0219169083151502179055507f62e78cea01bee320cd4e420270b5ea74000d11b0c9f74754ebdbfc544b05a2586125a16125b8565b6040516125ae9190612d0e565b60405180910390a1565b600033905090565b6125c8611751565b6125fe576040517f8dfc202b00000000000000000000000000000000000000000000000000000000815260040160405180910390fd5b565b6040518061014001604052806000815260200160008152602001600073ffffffffffffffffffffffffffffffffffffffff168152602001600073ffffffffffffffffffffffffffffffffffffffff168152602001600073ffffffffffffffffffffffffffffffffffffffff168152602001600081526020016000815260200160001515815260200160008152602001600081525090565b600081519050919050565b600082825260208201905092915050565b6000819050602082019050919050565b6000819050919050565b6126d6816126c3565b82525050565b600073ffffffffffffffffffffffffffffffffffffffff82169050919050565b6000612707826126dc565b9050919050565b612717816126fc565b82525050565b6000612728826126dc565b9050919050565b6127388161271d565b82525050565b60008115159050919050565b6127538161273e565b82525050565b6101408201600082015161277060008501826126cd565b50602082015161278360208501826126cd565b506040820151612796604085018261270e565b5060608201516127a9606085018261270e565b5060808201516127bc608085018261272f565b5060a08201516127cf60a08501826126cd565b5060c08201516127e260c08501826126cd565b5060e08201516127f560e085018261274a565b5061010082015161280a6101008501826126cd565b5061012082015161281f6101208501826126cd565b50505050565b60006128318383612759565b6101408301905092915050565b6000602082019050919050565b600061285682612697565b61286081856126a2565b935061286b836126b3565b8060005b8381101561289c5781516128838882612825565b975061288e8361283e565b92505060018101905061286f565b5085935050505092915050565b600060208201905081810360008301526128c3818461284b565b905092915050565b6000604051905090565b600080fd5b600080fd5b6128e8816126c3565b81146128f357600080fd5b50565b600081359050612905816128df565b92915050565b600060208284031215612921576129206128d5565b5b600061292f848285016128f6565b91505092915050565b6129418161271d565b811461294c57600080fd5b50565b60008135905061295e81612938565b92915050565b600080fd5b600080fd5b600080fd5b60008083601f84011261298957612988612964565b5b8235905067ffffffffffffffff8111156129a6576129a5612969565b5b6020830191508360018202830111156129c2576129c161296e565b5b9250929050565b6000806000806000608086880312156129e5576129e46128d5565b5b60006129f38882890161294f565b9550506020612a048882890161294f565b9450506040612a15888289016128f6565b935050606086013567ffffffffffffffff811115612a3657612a356128da565b5b612a4288828901612973565b92509250509295509295909350565b60007fffffffff0000000000000000000000000000000000000000000000000000000082169050919050565b612a8681612a51565b82525050565b6000602082019050612aa16000830184612a7d565b92915050565b600080fd5b6000601f19601f8301169050919050565b7f4e487b7100000000000000000000000000000000000000000000000000000000600052604160045260246000fd5b612af582612aac565b810181811067ffffffffffffffff82111715612b1457612b13612abd565b5b80604052505050565b6000612b276128cb565b9050612b338282612aec565b919050565b600067ffffffffffffffff821115612b5357612b52612abd565b5b612b5c82612aac565b9050602081019050919050565b82818337600083830152505050565b6000612b8b612b8684612b38565b612b1d565b905082815260208101848484011115612ba757612ba6612aa7565b5b612bb2848285612b69565b509392505050565b600082601f830112612bcf57612bce612964565b5b8135612bdf848260208601612b78565b91505092915050565b60008060008060808587031215612c0257612c016128d5565b5b600085013567ffffffffffffffff811115612c2057612c1f6128da565b5b612c2c87828801612bba565b9450506020612c3d878288016128f6565b9350506040612c4e878288016128f6565b9250506060612c5f878288016128f6565b91505092959194509250565b612c748161273e565b82525050565b6000602082019050612c8f6000830184612c6b565b92915050565b612c9e816126c3565b82525050565b6000602082019050612cb96000830184612c95565b92915050565b60008060408385031215612cd657612cd56128d5565b5b6000612ce4858286016128f6565b9250506020612cf5858286016128f6565b9150509250929050565b612d088161271d565b82525050565b6000602082019050612d236000830184612cff565b92915050565b6000819050919050565b6000612d4e612d49612d44846126dc565b612d29565b6126dc565b9050919050565b6000612d6082612d33565b9050919050565b6000612d7282612d55565b9050919050565b612d8281612d67565b82525050565b6000602082019050612d9d6000830184612d79565b92915050565b6000604082019050612db86000830185612c95565b612dc56020830184612c95565b9392505050565b612dd5816126fc565b82525050565b600061014082019050612df1600083018d612c95565b612dfe602083018c612c95565b612e0b604083018b612dcc565b612e18606083018a612dcc565b612e256080830189612cff565b612e3260a0830188612c95565b612e3f60c0830187612c95565b612e4c60e0830186612c6b565b612e5a610100830185612c95565b612e68610120830184612c95565b9b9a5050505050505050505050565b600060208284031215612e8d57612e8c6128d5565b5b6000612e9b8482850161294f565b91505092915050565b7f4e487b7100000000000000000000000000000000000000000000000000000000600052603260045260246000fd5b7f4e487b7100000000000000000000000000000000000000000000000000000000600052601160045260246000fd5b6000612f0d826126c3565b91507fffffffffffffffffffffffffffffffffffffffffffffffffffffffffffffffff8203612f3f57612f3e612ed3565b5b600182019050919050565b600082825260208201905092915050565b7f4f6e6c792073656c6c65722063616e2064656c69737400000000000000000000600082015250565b6000612f91601683612f4a565b9150612f9c82612f5b565b602082019050919050565b60006020820190508181036000830152612fc081612f84565b9050919050565b7f416c726561647920736f6c640000000000000000000000000000000000000000600082015250565b6000612ffd600c83612f4a565b915061300882612fc7565b602082019050919050565b6000602082019050818103600083015261302c81612ff0565b9050919050565b60006060820190506130486000830186612cff565b6130556020830185612cff565b6130626040830184612c95565b949350505050565b60008151905061307981612938565b92915050565b600060208284031215613095576130946128d5565b5b60006130a38482850161306a565b91505092915050565b7f5175616e74697479206d757374206265206174206c6561737420310000000000600082015250565b60006130e2601b83612f4a565b91506130ed826130ac565b602082019050919050565b60006020820190508181036000830152613111816130d5565b9050919050565b7f5072696365206d757374206265203e2030000000000000000000000000000000600082015250565b600061314e601183612f4a565b915061315982613118565b602082019050919050565b6000602082019050818103600083015261317d81613141565b9050919050565b600061318f826126c3565b915061319a836126c3565b92508282026131a8816126c3565b915082820484148315176131bf576131be612ed3565b5b5092915050565b7f496e636f727265637420746f74616c206c697374696e67206665650000000000600082015250565b60006131fc601b83612f4a565b9150613207826131c6565b602082019050919050565b6000602082019050818103600083015261322b816131ef565b9050919050565b600081519050919050565b60005b8381101561325b578082015181840152602081019050613240565b60008484015250505050565b600061327282613232565b61327c8185612f4a565b935061328c81856020860161323d565b61329581612aac565b840191505092915050565b60006080820190506132b56000830187612cff565b81810360208301526132c78186613267565b90506132d66040830185612c95565b6132e36060830184612c95565b95945050505050565b600067ffffffffffffffff82111561330757613306612abd565b5b602082029050602081019050919050565b600081519050613327816128df565b92915050565b600061334061333b846132ec565b612b1d565b905080838252602082019050602084028301858111156133635761336261296e565b5b835b8181101561338c57806133788882613318565b845260208401935050602081019050613365565b5050509392505050565b600082601f8301126133ab576133aa612964565b5b81516133bb84826020860161332d565b91505092915050565b6000602082840312156133da576133d96128d5565b5b600082015167ffffffffffffffff8111156133f8576133f76128da565b5b61340484828501613396565b91505092915050565b7f4e6f7468696e6720746f20776974686472617700000000000000000000000000600082015250565b6000613443601383612f4a565b915061344e8261340d565b602082019050919050565b6000602082019050818103600083015261347281613436565b9050919050565b600081905092915050565b50565b6000613494600083613479565b915061349f82613484565b600082019050919050565b60006134b582613487565b9150819050919050565b7f5769746864726177206661696c65640000000000000000000000000000000000600082015250565b60006134f5600f83612f4a565b9150613500826134bf565b602082019050919050565b60006020820190508181036000830152613524816134e8565b9050919050565b7f4c697374696e6720666565207265717569726564000000000000000000000000600082015250565b6000613561601483612f4a565b915061356c8261352b565b602082019050919050565b6000602082019050818103600083015261359081613554565b9050919050565b7f4974656d20616c726561647920736f6c64000000000000000000000000000000600082015250565b60006135cd601183612f4a565b91506135d882613597565b602082019050919050565b600060208201905081810360008301526135fc816135c0565b9050919050565b7f57726f6e672045544820616d6f756e7400000000000000000000000000000000600082015250565b6000613639601083612f4a565b915061364482613603565b602082019050919050565b600060208201905081810360008301526136688161362c565b9050919050565b7f4e487b7100000000000000000000000000000000000000000000000000000000600052601260045260246000fd5b60006136a9826126c3565b91506136b4836126c3565b9250826136c4576136c361366f565b5b828204905092915050565b60006136da826126c3565b91506136e5836126c3565b92508282039050818111156136fd576136fc612ed3565b5b92915050565b600061370e826126c3565b9150613719836126c3565b925082820190508082111561373157613730612ed3565b5b92915050565b60008060008060808587031215613751576137506128d5565b5b600061375f87828801613318565b945050602061377087828801613318565b935050604061378187828801613318565b92505060606137928782880161306a565b9150509295919450925056fea264697066735822122081fc28b7c7d4e6defd5812e0d05039a6a0b84ee0a315e921412e6cce081e00c664736f6c63430008140033",
  "linkReferences": {},
  "deployedLinkReferences": {}
}