{
  "_format": "hh-sol-artifact-1",
  "contractName": "NFTMarketplace",
  "sourceName": "contracts/NFTMarketplace.sol",
  "abi": [
    {
      "inputs": [
        {
          "internalType": "address",
          "name": "nftAddress",
          "type": "address"
        }
      ],
      "stateMutability": "nonpayable",
      "type": "constructor"
    },
    {
      "inputs": [],
      "name": "EnforcedPause",
      "type": "error"
    },
    {
      "inputs": [],
      "name": "ExpectedPause",
      "type": "error"
    },
    {
      "inputs": [
        {
          "internalType": "address",
          "name": "owner",
          "type": "address"
        }
      ],
      "name": "OwnableInvalidOwner",
      "type": "error"
    },
    {
      "inputs": [
        {
          "internalType": "address",
          "name": "account",
          "type": "address"
        }
      ],
      "name": "OwnableUnauthorizedAccount",
      "type": "error"
    },
    {
      "inputs": [],
      "name": "ReentrancyGuardReentrantCall",
      "type": "error"
    },
    {
      "anonymous": false,
      "inputs": [
        {
          "indexed": true,
          "internalType": "uint256",
          "name": "listingId",
          "type": "uint256"
        },
        {
          "indexed": true,
          "internalType": "uint256",
          "name": "tokenId",
          "type": "uint256"
        },
        {
          "indexed": true,
          "internalType": "address",
          "name": "seller",
          "type": "address"
        },
        {
          "indexed": false,
          "internalType": "uint256",
          "name": "price",
          "type": "uint256"
        }
      ],
      "name": "MarketItemCreated",
      "type": "event"
    },
    {
      "anonymous": false,
      "inputs": [
        {
          "indexed": true,
          "internalType": "uint256",
          "name": "listingId",
          "type": "uint256"
        },
        {
          "indexed": true,
          "internalType": "uint256",
          "name": "tokenId",
          "type": "uint256"
        },
        {
          "indexed": true,
          "internalType": "address",
          "name": "seller",
          "type": "address"
        }
      ],
      "name": "MarketItemDelisted",
      "type": "event"
    },
    {
      "anonymous": false,
      "inputs": [
        {
          "indexed": true,
          "internalType": "uint256",
          "name": "listingId",
          "type": "uint256"
        },
        {
          "indexed": true,
          "internalType": "uint256",
          "name": "tokenId",
          "type": "uint256"
        },
        {
          "indexed": true,
          "internalType": "address",
          "name": "buyer",
          "type": "address"
        },
        {
          "indexed": false,
          "internalType": "uint256",
          "name": "price",
          "type": "uint256"
        }
      ],
      "name": "MarketItemSold",
      "type": "event"
    },
    {
      "anonymous": false,
      "inputs": [
        {
          "indexed": true,
          "internalType": "address",
          "name": "previousOwner",
          "type": "address"
        },
        {
          "indexed": true,
          "internalType": "address",
          "name": "newOwner",
          "type": "address"
        }
      ],
      "name": "OwnershipTransferred",
      "type": "event"
    },
    {
      "anonymous": false,
      "inputs": [
        {
          "indexed": false,
          "internalType": "address",
          "name": "account",
          "type": "address"
        }
      ],
      "name": "Paused",
      "type": "event"
    },
    {
      "anonymous": false,
      "inputs": [
        {
          "indexed": false,
          "internalType": "address",
          "name": "account",
          "type": "address"
        }
      ],
      "name": "Unpaused",
      "type": "event"
    },
    {
      "anonymous": false,
      "inputs": [
        {
          "indexed": true,
          "internalType": "address",
          "name": "user",
          "type": "address"
        },
        {
          "indexed": false,
          "internalType": "uint256",
          "name": "amount",
          "type": "uint256"
        }
      ],
      "name": "Withdraw",
      "type": "event"
    },
    {
      "inputs": [
        {
          "internalType": "uint256",
          "name": "listingId",
          "type": "uint256"
        }
      ],
      "name": "buyItem",
      "outputs": [],
      "stateMutability": "payable",
      "type": "function"
    },
    {
      "inputs": [
        {
          "internalType": "uint256",
          "name": "listingId",
          "type": "uint256"
        }
      ],
      "name": "delistItem",
      "outputs": [],
      "stateMutability": "nonpayable",
      "type": "function"
    },
    {
      "inputs": [],
      "name": "fetchItemsListed",
      "outputs": [
        {
          "components": [
            {
              "internalType": "uint256",
              "name": "listingId",
              "type": "uint256"
            },
            {
              "internalType": "uint256",
              "name": "tokenId",
              "type": "uint256"
            },
            {
              "internalType": "address payable",
              "name": "seller",
              "type": "address"
            },
            {
              "internalType": "address payable",
              "name": "creator",
              "type": "address"
            },
            {
              "internalType": "address",
              "name": "owner",
              "type": "address"
            },
            {
              "internalType": "uint256",
              "name": "price",
              "type": "uint256"
            },
            {
              "internalType": "uint256",
              "name": "royaltyPercentage",
              "type": "uint256"
            },
            {
              "internalType": "bool",
              "name": "sold",
              "type": "bool"
            },
            {
              "internalType": "uint256",
              "name": "batchNumber",
              "type": "uint256"
            },
            {
              "internalType": "uint256",
              "name": "batchSpecificId",
              "type": "uint256"
            }
          ],
          "internalType": "struct NFTMarketplace.MarketItem[]",
          "name": "",
          "type": "tuple[]"
        }
      ],
      "stateMutability": "view",
      "type": "function"
    },
    {
      "inputs": [],
      "name": "fetchMarketItems",
      "outputs": [
        {
          "components": [
            {
              "internalType": "uint256",
              "name": "listingId",
              "type": "uint256"
            },
            {
              "internalType": "uint256",
              "name": "tokenId",
              "type": "uint256"
            },
            {
              "internalType": "address payable",
              "name": "seller",
              "type": "address"
            },
            {
              "internalType": "address payable",
              "name": "creator",
              "type": "address"
            },
            {
              "internalType": "address",
              "name": "owner",
              "type": "address"
            },
            {
              "internalType": "uint256",
              "name": "price",
              "type": "uint256"
            },
            {
              "internalType": "uint256",
              "name": "royaltyPercentage",
              "type": "uint256"
            },
            {
              "internalType": "bool",
              "name": "sold",
              "type": "bool"
            },
            {
              "internalType": "uint256",
              "name": "batchNumber",
              "type": "uint256"
            },
            {
              "internalType": "uint256",
              "name": "batchSpecificId",
              "type": "uint256"
            }
          ],
          "internalType": "struct NFTMarketplace.MarketItem[]",
          "name": "",
          "type": "tuple[]"
        }
      ],
      "stateMutability": "view",
      "type": "function"
    },
    {
      "inputs": [],
      "name": "fetchMyNFTs",
      "outputs": [
        {
          "components": [
            {
              "internalType": "uint256",
              "name": "listingId",
              "type": "uint256"
            },
            {
              "internalType": "uint256",
              "name": "tokenId",
              "type": "uint256"
            },
            {
              "internalType": "address payable",
              "name": "seller",
              "type": "address"
            },
            {
              "internalType": "address payable",
              "name": "creator",
              "type": "address"
            },
            {
              "internalType": "address",
              "name": "owner",
              "type": "address"
            },
            {
              "internalType": "uint256",
              "name": "price",
              "type": "uint256"
            },
            {
              "internalType": "uint256",
              "name": "royaltyPercentage",
              "type": "uint256"
            },
            {
              "internalType": "bool",
              "name": "sold",
              "type": "bool"
            },
            {
              "internalType": "uint256",
              "name": "batchNumber",
              "type": "uint256"
            },
            {
              "internalType": "uint256",
              "name": "batchSpecificId",
              "type": "uint256"
            }
          ],
          "internalType": "struct NFTMarketplace.MarketItem[]",
          "name": "",
          "type": "tuple[]"
        }
      ],
      "stateMutability": "view",
      "type": "function"
    },
    {
      "inputs": [],
      "name": "getFees",
      "outputs": [
        {
          "internalType": "uint256",
          "name": "",
          "type": "uint256"
        },
        {
          "internalType": "uint256",
          "name": "",
          "type": "uint256"
        }
      ],
      "stateMutability": "view",
      "type": "function"
    },
    {
      "inputs": [],
      "name": "getMarketplaceEarnings",
      "outputs": [
        {
          "internalType": "uint256",
          "name": "",
          "type": "uint256"
        }
      ],
      "stateMutability": "view",
      "type": "function"
    },
    {
      "inputs": [
        {
          "internalType": "uint256",
          "name": "",
          "type": "uint256"
        }
      ],
      "name": "idToMarketItem",
      "outputs": [
        {
          "internalType": "uint256",
          "name": "listingId",
          "type": "uint256"
        },
        {
          "internalType": "uint256",
          "name": "tokenId",
          "type": "uint256"
        },
        {
          "internalType": "address payable",
          "name": "seller",
          "type": "address"
        },
        {
          "internalType": "address payable",
          "name": "creator",
          "type": "address"
        },
        {
          "internalType": "address",
          "name": "owner",
          "type": "address"
        },
        {
          "internalType": "uint256",
          "name": "price",
          "type": "uint256"
        },
        {
          "internalType": "uint256",
          "name": "royaltyPercentage",
          "type": "uint256"
        },
        {
          "internalType": "bool",
          "name": "sold",
          "type": "bool"
        },
        {
          "internalType": "uint256",
          "name": "batchNumber",
          "type": "uint256"
        },
        {
          "internalType": "uint256",
          "name": "batchSpecificId",
          "type": "uint256"
        }
      ],
      "stateMutability": "view",
      "type": "function"
    },
    {
      "inputs": [
        {
          "internalType": "uint256",
          "name": "tokenId",
          "type": "uint256"
        },
        {
          "internalType": "uint256",
          "name": "price",
          "type": "uint256"
        }
      ],
      "name": "listItem",
      "outputs": [],
      "stateMutability": "payable",
      "type": "function"
    },
    {
      "inputs": [],
      "name": "listingPrice",
      "outputs": [
        {
          "internalType": "uint256",
          "name": "",
          "type": "uint256"
        }
      ],
      "stateMutability": "view",
      "type": "function"
    },
    {
      "inputs": [
        {
          "internalType": "uint256",
          "name": "",
          "type": "uint256"
        }
      ],
      "name": "marketListingIds",
      "outputs": [
        {
          "internalType": "uint256",
          "name": "",
          "type": "uint256"
        }
      ],
      "stateMutability": "view",
      "type": "function"
    },
    {
      "inputs": [
        {
          "internalType": "string",
          "name": "tokenURI",
          "type": "string"
        },
        {
          "internalType": "uint256",
          "name": "price",
          "type": "uint256"
        },
        {
          "internalType": "uint256",
          "name": "royaltyPercentage",
          "type": "uint256"
        },
        {
          "internalType": "uint256",
          "name": "quantity",
          "type": "uint256"
        }
      ],
      "name": "mintAndList",
      "outputs": [],
      "stateMutability": "payable",
      "type": "function"
    },
    {
      "inputs": [],
      "name": "newListingId",
      "outputs": [
        {
          "internalType": "uint256",
          "name": "",
          "type": "uint256"
        }
      ],
      "stateMutability": "view",
      "type": "function"
    },
    {
      "inputs": [],
      "name": "nftContract",
      "outputs": [
        {
          "internalType": "contract INFT",
          "name": "",
          "type": "address"
        }
      ],
      "stateMutability": "view",
      "type": "function"
    },
    {
      "inputs": [
        {
          "internalType": "address",
          "name": "",
          "type": "address"
        },
        {
          "internalType": "address",
          "name": "",
          "type": "address"
        },
        {
          "internalType": "uint256",
          "name": "",
          "type": "uint256"
        },
        {
          "internalType": "bytes",
          "name": "",
          "type": "bytes"
        }
      ],
      "name": "onERC721Received",
      "outputs": [
        {
          "internalType": "bytes4",
          "name": "",
          "type": "bytes4"
        }
      ],
      "stateMutability": "pure",
      "type": "function"
    },
    {
      "inputs": [],
      "name": "owner",
      "outputs": [
        {
          "internalType": "address",
          "name": "",
          "type": "address"
        }
      ],
      "stateMutability": "view",
      "type": "function"
    },
    {
      "inputs": [],
      "name": "pause",
      "outputs": [],
      "stateMutability": "nonpayable",
      "type": "function"
    },
    {
      "inputs": [],
      "name": "paused",
      "outputs": [
        {
          "internalType": "bool",
          "name": "",
          "type": "bool"
        }
      ],
      "stateMutability": "view",
      "type": "function"
    },
    {
      "inputs": [
        {
          "internalType": "address",
          "name": "",
          "type": "address"
        }
      ],
      "name": "pendingWithdrawals",
      "outputs": [
        {
          "internalType": "uint256",
          "name": "",
          "type": "uint256"
        }
      ],
      "stateMutability": "view",
      "type": "function"
    },
    {
      "inputs": [],
      "name": "renounceOwnership",
      "outputs": [],
      "stateMutability": "nonpayable",
      "type": "function"
    },
    {
      "inputs": [
        {
          "internalType": "uint256",
          "name": "",
          "type": "uint256"
        },
        {
          "internalType": "uint256",
          "name": "",
          "type": "uint256"
        }
      ],
      "name": "tokenIdToListings",
      "outputs": [
        {
          "internalType": "uint256",
          "name": "",
          "type": "uint256"
        }
      ],
      "stateMutability": "view",
      "type": "function"
    },
    {
      "inputs": [],
      "name": "totalMarketplaceEarnings",
      "outputs": [
        {
          "internalType": "uint256",
          "name": "",
          "type": "uint256"
        }
      ],
      "stateMutability": "view",
      "type": "function"
    },
    {
      "inputs": [],
      "name": "transferFee",
      "outputs": [
        {
          "internalType": "uint256",
          "name": "",
          "type": "uint256"
        }
      ],
      "stateMutability": "view",
      "type": "function"
    },
    {
      "inputs": [
        {
          "internalType": "address",
          "name": "newOwner",
          "type": "address"
        }
      ],
      "name": "transferOwnership",
      "outputs": [],
      "stateMutability": "nonpayable",
      "type": "function"
    },
    {
      "inputs": [],
      "name": "unpause",
      "outputs": [],
      "stateMutability": "nonpayable",
      "type": "function"
    },
    {
      "inputs": [
        {
          "internalType": "uint256",
          "name": "_listingPrice",
          "type": "uint256"
        },
        {
          "internalType": "uint256",
          "name": "_transferFee",
          "type": "uint256"
        }
      ],
      "name": "updateFees",
      "outputs": [],
      "stateMutability": "nonpayable",
      "type": "function"
    },
    {
      "inputs": [],
      "name": "withdraw",
      "outputs": [],
      "stateMutability": "nonpayable",
      "type": "function"
    }
  ],
  "bytecode": "0x60806040526658d15e1762800060045560026005553480156200002157600080fd5b5060405162003af938038062003af9833981810160405281019062000047919062000267565b3360016000819055506000600160006101000a81548160ff021916908315150217905550600073ffffffffffffffffffffffffffffffffffffffff168173ffffffffffffffffffffffffffffffffffffffff1603620000e05760006040517f1e4fbdf7000000000000000000000000000000000000000000000000000000008152600401620000d79190620002aa565b60405180910390fd5b620000f1816200013a60201b60201c565b5080600260006101000a81548173ffffffffffffffffffffffffffffffffffffffff021916908373ffffffffffffffffffffffffffffffffffffffff16021790555050620002c7565b600060018054906101000a900473ffffffffffffffffffffffffffffffffffffffff169050816001806101000a81548173ffffffffffffffffffffffffffffffffffffffff021916908373ffffffffffffffffffffffffffffffffffffffff1602179055508173ffffffffffffffffffffffffffffffffffffffff168173ffffffffffffffffffffffffffffffffffffffff167f8be0079c531659141344cd1fd0a4f28419497f9722a3daafe3b4186f6b6457e060405160405180910390a35050565b600080fd5b600073ffffffffffffffffffffffffffffffffffffffff82169050919050565b60006200022f8262000202565b9050919050565b620002418162000222565b81146200024d57600080fd5b50565b600081519050620002618162000236565b92915050565b60006020828403121562000280576200027f620001fd565b5b6000620002908482850162000250565b91505092915050565b620002a48162000222565b82525050565b6000602082019050620002c1600083018462000299565b92915050565b61382280620002d76000396000f3fe60806040526004361061019c5760003560e01c8063883efa67116100ec578063d56d229d1161008a578063e61a70c011610064578063e61a70c014610543578063e7fb74c714610589578063f2fde38b146105a5578063f3f43703146105ce5761019c565b8063d56d229d146104c1578063db8d55f1146104ec578063e1f4e727146105185761019c565b8063a995bb19116100c6578063a995bb1914610403578063acb2ad6f1461042e578063c0944da714610459578063c78f19f9146104965761019c565b8063883efa671461037f5780638da5cb5b1461039b5780639fcf1bd0146103c65761019c565b80633f4ba83a116101595780635d9fe0ff116101335780635d9fe0ff146102fd5780636db7943714610328578063715018a6146103515780638456cb59146103685761019c565b80633f4ba83a1461029057806345f8fa80146102a75780635c975abb146102d25761019c565b80630f08efe0146101a157806310061631146101cc578063150b7a02146101f5578063202e37401461023257806320e6d9b71461025d5780633ccfd60b14610279575b600080fd5b3480156101ad57600080fd5b506101b661060b565b6040516101c391906128f7565b60405180910390f35b3480156101d857600080fd5b506101f360048036038101906101ee9190612959565b6108fe565b005b34801561020157600080fd5b5061021c60048036038101906102179190612a17565b610bc2565b6040516102299190612ada565b60405180910390f35b34801561023e57600080fd5b50610247610bd7565b60405161025491906128f7565b60405180910390f35b61027760048036038101906102729190612c36565b6110a2565b005b34801561028557600080fd5b5061028e61124e565b005b34801561029c57600080fd5b506102a5611418565b005b3480156102b357600080fd5b506102bc61142a565b6040516102c991906128f7565b60405180910390f35b3480156102de57600080fd5b506102e761179f565b6040516102f49190612cc8565b60405180910390f35b34801561030957600080fd5b506103126117b6565b60405161031f9190612cf2565b60405180910390f35b34801561033457600080fd5b5061034f600480360381019061034a9190612d0d565b6117bc565b005b34801561035d57600080fd5b506103666117d6565b005b34801561037457600080fd5b5061037d6117ea565b005b61039960048036038101906103949190612d0d565b6117fc565b005b3480156103a757600080fd5b506103b06119ab565b6040516103bd9190612d5c565b60405180910390f35b3480156103d257600080fd5b506103ed60048036038101906103e89190612d0d565b6119d3565b6040516103fa9190612cf2565b60405180910390f35b34801561040f57600080fd5b50610418611a04565b6040516104259190612cf2565b60405180910390f35b34801561043a57600080fd5b50610443611a0e565b6040516104509190612cf2565b60405180910390f35b34801561046557600080fd5b50610480600480360381019061047b9190612959565b611a14565b60405161048d9190612cf2565b60405180910390f35b3480156104a257600080fd5b506104ab611a38565b6040516104b89190612cf2565b60405180910390f35b3480156104cd57600080fd5b506104d6611a3e565b6040516104e39190612dd6565b60405180910390f35b3480156104f857600080fd5b50610501611a64565b60405161050f929190612df1565b60405180910390f35b34801561052457600080fd5b5061052d611a75565b60405161053a9190612cf2565b60405180910390f35b34801561054f57600080fd5b5061056a60048036038101906105659190612959565b611a7b565b6040516105809a99989796959493929190612e29565b60405180910390f35b6105a3600480360381019061059e9190612959565b611b3c565b005b3480156105b157600080fd5b506105cc60048036038101906105c79190612ec5565b611f26565b005b3480156105da57600080fd5b506105f560048036038101906105f09190612ec5565b611fac565b6040516106029190612cf2565b60405180910390f35b60606000805b60078054905081101561068657600860006007838154811061063657610635612ef2565b5b9060005260206000200154815260200190815260200160002060070160009054906101000a900460ff1661067357818061066f90612f50565b9250505b808061067e90612f50565b915050610611565b5060008167ffffffffffffffff8111156106a3576106a2612b0b565b5b6040519080825280602002602001820160405280156106dc57816020015b6106c961264e565b8152602001906001900390816106c15790505b5090506000805b6007805490508110156108f45760006007828154811061070657610705612ef2565b5b906000526020600020015490506008600082815260200190815260200160002060070160009054906101000a900460ff166108e057600860008281526020019081526020016000206040518061014001604052908160008201548152602001600182015481526020016002820160009054906101000a900473ffffffffffffffffffffffffffffffffffffffff1673ffffffffffffffffffffffffffffffffffffffff1673ffffffffffffffffffffffffffffffffffffffff1681526020016003820160009054906101000a900473ffffffffffffffffffffffffffffffffffffffff1673ffffffffffffffffffffffffffffffffffffffff1673ffffffffffffffffffffffffffffffffffffffff1681526020016004820160009054906101000a900473ffffffffffffffffffffffffffffffffffffffff1673ffffffffffffffffffffffffffffffffffffffff1673ffffffffffffffffffffffffffffffffffffffff16815260200160058201548152602001600682015481526020016007820160009054906101000a900460ff16151515158152602001600882015481526020016009820154815250508484815181106108c6576108c5612ef2565b5b602002602001018190525082806108dc90612f50565b9350505b5080806108ec90612f50565b9150506106e3565b5081935050505090565b610906611fc4565b61090e61200a565b60006008600083815260200190815260200160002090503373ffffffffffffffffffffffffffffffffffffffff168160020160009054906101000a900473ffffffffffffffffffffffffffffffffffffffff1673ffffffffffffffffffffffffffffffffffffffff16146109b7576040517f08c379a00000000000000000000000000000000000000000000000000000000081526004016109ae90612ff5565b60405180910390fd5b8060070160009054906101000a900460ff1615610a09576040517f08c379a0000000000000000000000000000000000000000000000000000000008152600401610a0090613061565b60405180910390fd5b600260009054906101000a900473ffffffffffffffffffffffffffffffffffffffff1673ffffffffffffffffffffffffffffffffffffffff166342842e0e303384600101546040518463ffffffff1660e01b8152600401610a6c93929190613081565b600060405180830381600087803b158015610a8657600080fd5b505af1158015610a9a573d6000803e3d6000fd5b505050506008600083815260200190815260200160002060008082016000905560018201600090556002820160006101000a81549073ffffffffffffffffffffffffffffffffffffffff02191690556003820160006101000a81549073ffffffffffffffffffffffffffffffffffffffff02191690556004820160006101000a81549073ffffffffffffffffffffffffffffffffffffffff0219169055600582016000905560068201600090556007820160006101000a81549060ff02191690556008820160009055600982016000905550503373ffffffffffffffffffffffffffffffffffffffff168160010154837fa71d01673ab40fa9e9c5091cf1b356ee673b9eccca541b0e12319a6e1ce7360c60405160405180910390a450610bbf61204b565b50565b600063150b7a0260e01b905095945050505050565b60606000805b600780549050811015610d4157600060078281548110610c0057610bff612ef2565b5b906000526020600020015490506008600082815260200190815260200160002060070160009054906101000a900460ff168015610d1957503373ffffffffffffffffffffffffffffffffffffffff16600260009054906101000a900473ffffffffffffffffffffffffffffffffffffffff1673ffffffffffffffffffffffffffffffffffffffff16636352211e60086000858152602001908152602001600020600101546040518263ffffffff1660e01b8152600401610cc09190612cf2565b602060405180830381865afa158015610cdd573d6000803e3d6000fd5b505050506040513d601f19601f82011682018060405250810190610d0191906130cd565b73ffffffffffffffffffffffffffffffffffffffff16145b15610d2d578280610d2990612f50565b9350505b508080610d3990612f50565b915050610bdd565b5060008167ffffffffffffffff811115610d5e57610d5d612b0b565b5b604051908082528060200260200182016040528015610d9757816020015b610d8461264e565b815260200190600190039081610d7c5790505b5090506000805b60078054905081101561109857600060078281548110610dc157610dc0612ef2565b5b906000526020600020015490506008600082815260200190815260200160002060070160009054906101000a900460ff168015610eda57503373ffffffffffffffffffffffffffffffffffffffff16600260009054906101000a900473ffffffffffffffffffffffffffffffffffffffff1673ffffffffffffffffffffffffffffffffffffffff16636352211e60086000858152602001908152602001600020600101546040518263ffffffff1660e01b8152600401610e819190612cf2565b602060405180830381865afa158015610e9e573d6000803e3d6000fd5b505050506040513d601f19601f82011682018060405250810190610ec291906130cd565b73ffffffffffffffffffffffffffffffffffffffff16145b1561108457600860008281526020019081526020016000206040518061014001604052908160008201548152602001600182015481526020016002820160009054906101000a900473ffffffffffffffffffffffffffffffffffffffff1673ffffffffffffffffffffffffffffffffffffffff1673ffffffffffffffffffffffffffffffffffffffff1681526020016003820160009054906101000a900473ffffffffffffffffffffffffffffffffffffffff1673ffffffffffffffffffffffffffffffffffffffff1673ffffffffffffffffffffffffffffffffffffffff1681526020016004820160009054906101000a900473ffffffffffffffffffffffffffffffffffffffff1673ffffffffffffffffffffffffffffffffffffffff1673ffffffffffffffffffffffffffffffffffffffff16815260200160058201548152602001600682015481526020016007820160009054906101000a900460ff161515151581526020016008820154815260200160098201548152505084848151811061106a57611069612ef2565b5b6020026020010181905250828061108090612f50565b9350505b50808061109090612f50565b915050610d9e565b5081935050505090565b6110aa611fc4565b6110b261200a565b600081116110f5576040517f08c379a00000000000000000000000000000000000000000000000000000000081526004016110ec90613146565b60405180910390fd5b60008311611138576040517f08c379a000000000000000000000000000000000000000000000000000000000815260040161112f906131b2565b60405180910390fd5b8060045461114691906131d2565b3414611187576040517f08c379a000000000000000000000000000000000000000000000000000000000815260040161117e90613260565b60405180910390fd5b6000600260009054906101000a900473ffffffffffffffffffffffffffffffffffffffff1673ffffffffffffffffffffffffffffffffffffffff16636d74e2bd308785876040518563ffffffff1660e01b81526004016111ea94939291906132ee565b6000604051808303816000875af1158015611209573d6000803e3d6000fd5b505050506040513d6000823e3d601f19601f820116820180604052508101906112329190613412565b905061123f818533612055565b5061124861204b565b50505050565b6000600a60003373ffffffffffffffffffffffffffffffffffffffff1673ffffffffffffffffffffffffffffffffffffffff168152602001908152602001600020549050600081116112d5576040517f08c379a00000000000000000000000000000000000000000000000000000000081526004016112cc906134a7565b60405180910390fd5b6000600a60003373ffffffffffffffffffffffffffffffffffffffff1673ffffffffffffffffffffffffffffffffffffffff1681526020019081526020016000208190555060003373ffffffffffffffffffffffffffffffffffffffff1682604051611340906134f8565b60006040518083038185875af1925050503d806000811461137d576040519150601f19603f3d011682016040523d82523d6000602084013e611382565b606091505b50509050806113c6576040517f08c379a00000000000000000000000000000000000000000000000000000000081526004016113bd90613559565b60405180910390fd5b3373ffffffffffffffffffffffffffffffffffffffff167f884edad9ce6fa2440d8a54cc123490eb96d2768479d49ff9c7366125a94243648360405161140c9190612cf2565b60405180910390a25050565b6114206123f7565b61142861247e565b565b60606000805b6007805490508110156114e6573373ffffffffffffffffffffffffffffffffffffffff16600860006007848154811061146c5761146b612ef2565b5b9060005260206000200154815260200190815260200160002060020160009054906101000a900473ffffffffffffffffffffffffffffffffffffffff1673ffffffffffffffffffffffffffffffffffffffff16036114d35781806114cf90612f50565b9250505b80806114de90612f50565b915050611430565b5060008167ffffffffffffffff81111561150357611502612b0b565b5b60405190808252806020026020018201604052801561153c57816020015b61152961264e565b8152602001906001900390816115215790505b5090506000805b6007805490508110156117955760006007828154811061156657611565612ef2565b5b906000526020600020015490503373ffffffffffffffffffffffffffffffffffffffff166008600083815260200190815260200160002060020160009054906101000a900473ffffffffffffffffffffffffffffffffffffffff1673ffffffffffffffffffffffffffffffffffffffff160361178157600860008281526020019081526020016000206040518061014001604052908160008201548152602001600182015481526020016002820160009054906101000a900473ffffffffffffffffffffffffffffffffffffffff1673ffffffffffffffffffffffffffffffffffffffff1673ffffffffffffffffffffffffffffffffffffffff1681526020016003820160009054906101000a900473ffffffffffffffffffffffffffffffffffffffff1673ffffffffffffffffffffffffffffffffffffffff1673ffffffffffffffffffffffffffffffffffffffff1681526020016004820160009054906101000a900473ffffffffffffffffffffffffffffffffffffffff1673ffffffffffffffffffffffffffffffffffffffff1673ffffffffffffffffffffffffffffffffffffffff16815260200160058201548152602001600682015481526020016007820160009054906101000a900460ff161515151581526020016008820154815260200160098201548152505084848151811061176757611766612ef2565b5b6020026020010181905250828061177d90612f50565b9350505b50808061178d90612f50565b915050611543565b5081935050505090565b6000600160009054906101000a900460ff16905090565b60035481565b6117c46123f7565b81600481905550806005819055505050565b6117de6123f7565b6117e860006124e1565b565b6117f26123f7565b6117fa6125a4565b565b611804611fc4565b61180c61200a565b6000811161184f576040517f08c379a0000000000000000000000000000000000000000000000000000000008152600401611846906131b2565b60405180910390fd5b6004543414611893576040517f08c379a000000000000000000000000000000000000000000000000000000000815260040161188a906135c5565b60405180910390fd5b600260009054906101000a900473ffffffffffffffffffffffffffffffffffffffff1673ffffffffffffffffffffffffffffffffffffffff166342842e0e3330856040518463ffffffff1660e01b81526004016118f293929190613081565b600060405180830381600087803b15801561190c57600080fd5b505af1158015611920573d6000803e3d6000fd5b505050506000600167ffffffffffffffff81111561194157611940612b0b565b5b60405190808252806020026020018201604052801561196f5781602001602082028036833780820191505090505b509050828160008151811061198757611986612ef2565b5b60200260200101818152505061199e818333612055565b506119a761204b565b5050565b600060018054906101000a900473ffffffffffffffffffffffffffffffffffffffff16905090565b600960205281600052604060002081815481106119ef57600080fd5b90600052602060002001600091509150505481565b6000600654905090565b60055481565b60078181548110611a2457600080fd5b906000526020600020016000915090505481565b60045481565b600260009054906101000a900473ffffffffffffffffffffffffffffffffffffffff1681565b600080600454600554915091509091565b60065481565b60086020528060005260406000206000915090508060000154908060010154908060020160009054906101000a900473ffffffffffffffffffffffffffffffffffffffff16908060030160009054906101000a900473ffffffffffffffffffffffffffffffffffffffff16908060040160009054906101000a900473ffffffffffffffffffffffffffffffffffffffff16908060050154908060060154908060070160009054906101000a900460ff1690806008015490806009015490508a565b611b44611fc4565b611b4c61200a565b60006008600083815260200190815260200160002090508060070160009054906101000a900460ff1615611bb5576040517f08c379a0000000000000000000000000000000000000000000000000000000008152600401611bac90613631565b60405180910390fd5b80600501543414611bfb576040517f08c379a0000000000000000000000000000000000000000000000000000000008152600401611bf29061369d565b60405180910390fd5b600060646005548360050154611c1191906131d2565b611c1b91906136ec565b90506000606483600601548460050154611c3591906131d2565b611c3f91906136ec565b9050600081838560050154611c54919061371d565b611c5e919061371d565b90508260066000828254611c729190613751565b9250508190555080600a60008660020160009054906101000a900473ffffffffffffffffffffffffffffffffffffffff1673ffffffffffffffffffffffffffffffffffffffff1673ffffffffffffffffffffffffffffffffffffffff1681526020019081526020016000206000828254611cec9190613751565b9250508190555081600a60008660030160009054906101000a900473ffffffffffffffffffffffffffffffffffffffff1673ffffffffffffffffffffffffffffffffffffffff1673ffffffffffffffffffffffffffffffffffffffff1681526020019081526020016000206000828254611d669190613751565b9250508190555082600a6000611d7a6119ab565b73ffffffffffffffffffffffffffffffffffffffff1673ffffffffffffffffffffffffffffffffffffffff1681526020019081526020016000206000828254611dc39190613751565b9250508190555060018460070160006101000a81548160ff021916908315150217905550338460040160006101000a81548173ffffffffffffffffffffffffffffffffffffffff021916908373ffffffffffffffffffffffffffffffffffffffff160217905550600260009054906101000a900473ffffffffffffffffffffffffffffffffffffffff1673ffffffffffffffffffffffffffffffffffffffff166342842e0e303387600101546040518463ffffffff1660e01b8152600401611e8d93929190613081565b600060405180830381600087803b158015611ea757600080fd5b505af1158015611ebb573d6000803e3d6000fd5b505050503373ffffffffffffffffffffffffffffffffffffffff168460010154867f3b483ea77abd0ead8c58acb73bbf9cf17cbbccc839b9f29a697171edc986a0838760050154604051611f0f9190612cf2565b60405180910390a450505050611f2361204b565b50565b611f2e6123f7565b600073ffffffffffffffffffffffffffffffffffffffff168173ffffffffffffffffffffffffffffffffffffffff1603611fa05760006040517f1e4fbdf7000000000000000000000000000000000000000000000000000000008152600401611f979190612d5c565b60405180910390fd5b611fa9816124e1565b50565b600a6020528060005260406000206000915090505481565b600260005403612000576040517f3ee5aeb500000000000000000000000000000000000000000000000000000000815260040160405180910390fd5b6002600081905550565b61201261179f565b15612049576040517fd93c066500000000000000000000000000000000000000000000000000000000815260040160405180910390fd5b565b6001600081905550565b60005b83518110156123f157600084828151811061207657612075612ef2565b5b60200260200101519050600080600080600260009054906101000a900473ffffffffffffffffffffffffffffffffffffffff1673ffffffffffffffffffffffffffffffffffffffff16638c7a63ae866040518263ffffffff1660e01b81526004016120e19190612cf2565b608060405180830381865afa1580156120fe573d6000803e3d6000fd5b505050506040513d601f19601f820116820180604052508101906121229190613785565b93509350935093506003600081548092919061213d90612f50565b9190505550600060405180610140016040528060035481526020018781526020018973ffffffffffffffffffffffffffffffffffffffff1681526020018373ffffffffffffffffffffffffffffffffffffffff1681526020013073ffffffffffffffffffffffffffffffffffffffff1681526020018a815260200184815260200160001515815260200186815260200185815250905080600860006003548152602001908152602001600020600082015181600001556020820151816001015560408201518160020160006101000a81548173ffffffffffffffffffffffffffffffffffffffff021916908373ffffffffffffffffffffffffffffffffffffffff16021790555060608201518160030160006101000a81548173ffffffffffffffffffffffffffffffffffffffff021916908373ffffffffffffffffffffffffffffffffffffffff16021790555060808201518160040160006101000a81548173ffffffffffffffffffffffffffffffffffffffff021916908373ffffffffffffffffffffffffffffffffffffffff16021790555060a0820151816005015560c0820151816006015560e08201518160070160006101000a81548160ff02191690831515021790555061010082015181600801556101208201518160090155905050600960008781526020019081526020016000206003549080600181540180825580915050600190039060005260206000200160009091909190915055600760035490806001815401808255809150506001900390600052602060002001600090919091909150558773ffffffffffffffffffffffffffffffffffffffff16866003547fdc9d79b0fe2198ceff7f76af9e05e2eacb3af07f0d4c913397475ab8bac771b88c6040516123d09190612cf2565b60405180910390a450505050505080806123e990612f50565b915050612058565b50505050565b6123ff612606565b73ffffffffffffffffffffffffffffffffffffffff1661241d6119ab565b73ffffffffffffffffffffffffffffffffffffffff161461247c57612440612606565b6040517f118cdaa70000000000000000000000000000000000000000000000000000000081526004016124739190612d5c565b60405180910390fd5b565b61248661260e565b6000600160006101000a81548160ff0219169083151502179055507f5db9ee0a495bf2e6ff9c91a7834c1ba4fdd244a5e8aa4e537bd38aeae4b073aa6124ca612606565b6040516124d79190612d5c565b60405180910390a1565b600060018054906101000a900473ffffffffffffffffffffffffffffffffffffffff169050816001806101000a81548173ffffffffffffffffffffffffffffffffffffffff021916908373ffffffffffffffffffffffffffffffffffffffff1602179055508173ffffffffffffffffffffffffffffffffffffffff168173ffffffffffffffffffffffffffffffffffffffff167f8be0079c531659141344cd1fd0a4f28419497f9722a3daafe3b4186f6b6457e060405160405180910390a35050565b6125ac61200a565b60018060006101000a81548160ff0219169083151502179055507f62e78cea01bee320cd4e420270b5ea74000d11b0c9f74754ebdbfc544b05a2586125ef612606565b6040516125fc9190612d5c565b60405180910390a1565b600033905090565b61261661179f565b61264c576040517f8dfc202b00000000000000000000000000000000000000000000000000000000815260040160405180910390fd5b565b6040518061014001604052806000815260200160008152602001600073ffffffffffffffffffffffffffffffffffffffff168152602001600073ffffffffffffffffffffffffffffffffffffffff168152602001600073ffffffffffffffffffffffffffffffffffffffff168152602001600081526020016000815260200160001515815260200160008152602001600081525090565b600081519050919050565b600082825260208201905092915050565b6000819050602082019050919050565b6000819050919050565b61272481612711565b82525050565b600073ffffffffffffffffffffffffffffffffffffffff82169050919050565b60006127558261272a565b9050919050565b6127658161274a565b82525050565b60006127768261272a565b9050919050565b6127868161276b565b82525050565b60008115159050919050565b6127a18161278c565b82525050565b610140820160008201516127be600085018261271b565b5060208201516127d1602085018261271b565b5060408201516127e4604085018261275c565b5060608201516127f7606085018261275c565b50608082015161280a608085018261277d565b5060a082015161281d60a085018261271b565b5060c082015161283060c085018261271b565b5060e082015161284360e0850182612798565b5061010082015161285861010085018261271b565b5061012082015161286d61012085018261271b565b50505050565b600061287f83836127a7565b6101408301905092915050565b6000602082019050919050565b60006128a4826126e5565b6128ae81856126f0565b93506128b983612701565b8060005b838110156128ea5781516128d18882612873565b97506128dc8361288c565b9250506001810190506128bd565b5085935050505092915050565b600060208201905081810360008301526129118184612899565b905092915050565b6000604051905090565b600080fd5b600080fd5b61293681612711565b811461294157600080fd5b50565b6000813590506129538161292d565b92915050565b60006020828403121561296f5761296e612923565b5b600061297d84828501612944565b91505092915050565b61298f8161276b565b811461299a57600080fd5b50565b6000813590506129ac81612986565b92915050565b600080fd5b600080fd5b600080fd5b60008083601f8401126129d7576129d66129b2565b5b8235905067ffffffffffffffff8111156129f4576129f36129b7565b5b602083019150836001820283011115612a1057612a0f6129bc565b5b9250929050565b600080600080600060808688031215612a3357612a32612923565b5b6000612a418882890161299d565b9550506020612a528882890161299d565b9450506040612a6388828901612944565b935050606086013567ffffffffffffffff811115612a8457612a83612928565b5b612a90888289016129c1565b92509250509295509295909350565b60007fffffffff0000000000000000000000000000000000000000000000000000000082169050919050565b612ad481612a9f565b82525050565b6000602082019050612aef6000830184612acb565b92915050565b600080fd5b6000601f19601f8301169050919050565b7f4e487b7100000000000000000000000000000000000000000000000000000000600052604160045260246000fd5b612b4382612afa565b810181811067ffffffffffffffff82111715612b6257612b61612b0b565b5b80604052505050565b6000612b75612919565b9050612b818282612b3a565b919050565b600067ffffffffffffffff821115612ba157612ba0612b0b565b5b612baa82612afa565b9050602081019050919050565b82818337600083830152505050565b6000612bd9612bd484612b86565b612b6b565b905082815260208101848484011115612bf557612bf4612af5565b5b612c00848285612bb7565b509392505050565b600082601f830112612c1d57612c1c6129b2565b5b8135612c2d848260208601612bc6565b91505092915050565b60008060008060808587031215612c5057612c4f612923565b5b600085013567ffffffffffffffff811115612c6e57612c6d612928565b5b612c7a87828801612c08565b9450506020612c8b87828801612944565b9350506040612c9c87828801612944565b9250506060612cad87828801612944565b91505092959194509250565b612cc28161278c565b82525050565b6000602082019050612cdd6000830184612cb9565b92915050565b612cec81612711565b82525050565b6000602082019050612d076000830184612ce3565b92915050565b60008060408385031215612d2457612d23612923565b5b6000612d3285828601612944565b9250506020612d4385828601612944565b9150509250929050565b612d568161276b565b82525050565b6000602082019050612d716000830184612d4d565b92915050565b6000819050919050565b6000612d9c612d97612d928461272a565b612d77565b61272a565b9050919050565b6000612dae82612d81565b9050919050565b6000612dc082612da3565b9050919050565b612dd081612db5565b82525050565b6000602082019050612deb6000830184612dc7565b92915050565b6000604082019050612e066000830185612ce3565b612e136020830184612ce3565b9392505050565b612e238161274a565b82525050565b600061014082019050612e3f600083018d612ce3565b612e4c602083018c612ce3565b612e59604083018b612e1a565b612e66606083018a612e1a565b612e736080830189612d4d565b612e8060a0830188612ce3565b612e8d60c0830187612ce3565b612e9a60e0830186612cb9565b612ea8610100830185612ce3565b612eb6610120830184612ce3565b9b9a5050505050505050505050565b600060208284031215612edb57612eda612923565b5b6000612ee98482850161299d565b91505092915050565b7f4e487b7100000000000000000000000000000000000000000000000000000000600052603260045260246000fd5b7f4e487b7100000000000000000000000000000000000000000000000000000000600052601160045260246000fd5b6000612f5b82612711565b91507fffffffffffffffffffffffffffffffffffffffffffffffffffffffffffffffff8203612f8d57612f8c612f21565b5b600182019050919050565b600082825260208201905092915050565b7f4f6e6c792073656c6c65722063616e2064656c69737400000000000000000000600082015250565b6000612fdf601683612f98565b9150612fea82612fa9565b602082019050919050565b6000602082019050818103600083015261300e81612fd2565b9050919050565b7f416c726561647920736f6c640000000000000000000000000000000000000000600082015250565b600061304b600c83612f98565b915061305682613015565b602082019050919050565b6000602082019050818103600083015261307a8161303e565b9050919050565b60006060820190506130966000830186612d4d565b6130a36020830185612d4d565b6130b06040830184612ce3565b949350505050565b6000815190506130c781612986565b92915050565b6000602082840312156130e3576130e2612923565b5b60006130f1848285016130b8565b91505092915050565b7f5175616e74697479206d757374206265206174206c6561737420310000000000600082015250565b6000613130601b83612f98565b915061313b826130fa565b602082019050919050565b6000602082019050818103600083015261315f81613123565b9050919050565b7f5072696365206d757374206265203e2030000000000000000000000000000000600082015250565b600061319c601183612f98565b91506131a782613166565b602082019050919050565b600060208201905081810360008301526131cb8161318f565b9050919050565b60006131dd82612711565b91506131e883612711565b92508282026131f681612711565b9150828204841483151761320d5761320c612f21565b5b5092915050565b7f496e636f727265637420746f74616c206c697374696e67206665650000000000600082015250565b600061324a601b83612f98565b915061325582613214565b602082019050919050565b600060208201905081810360008301526132798161323d565b9050919050565b600081519050919050565b60005b838110156132a957808201518184015260208101905061328e565b60008484015250505050565b60006132c082613280565b6132ca8185612f98565b93506132da81856020860161328b565b6132e381612afa565b840191505092915050565b60006080820190506133036000830187612d4d565b818103602083015261331581866132b5565b90506133246040830185612ce3565b6133316060830184612ce3565b95945050505050565b600067ffffffffffffffff82111561335557613354612b0b565b5b602082029050602081019050919050565b6000815190506133758161292d565b92915050565b600061338e6133898461333a565b612b6b565b905080838252602082019050602084028301858111156133b1576133b06129bc565b5b835b818110156133da57806133c68882613366565b8452602084019350506020810190506133b3565b5050509392505050565b600082601f8301126133f9576133f86129b2565b5b815161340984826020860161337b565b91505092915050565b60006020828403121561342857613427612923565b5b600082015167ffffffffffffffff81111561344657613445612928565b5b613452848285016133e4565b91505092915050565b7f4e6f7468696e6720746f20776974686472617700000000000000000000000000600082015250565b6000613491601383612f98565b915061349c8261345b565b602082019050919050565b600060208201905081810360008301526134c081613484565b9050919050565b600081905092915050565b50565b60006134e26000836134c7565b91506134ed826134d2565b600082019050919050565b6000613503826134d5565b9150819050919050565b7f5769746864726177206661696c65640000000000000000000000000000000000600082015250565b6000613543600f83612f98565b915061354e8261350d565b602082019050919050565b6000602082019050818103600083015261357281613536565b9050919050565b7f4c697374696e6720666565207265717569726564000000000000000000000000600082015250565b60006135af601483612f98565b91506135ba82613579565b602082019050919050565b600060208201905081810360008301526135de816135a2565b9050919050565b7f4974656d20616c726561647920736f6c64000000000000000000000000000000600082015250565b600061361b601183612f98565b9150613626826135e5565b602082019050919050565b6000602082019050818103600083015261364a8161360e565b9050919050565b7f57726f6e672045544820616d6f756e7400000000000000000000000000000000600082015250565b6000613687601083612f98565b915061369282613651565b602082019050919050565b600060208201905081810360008301526136b68161367a565b9050919050565b7f4e487b7100000000000000000000000000000000000000000000000000000000600052601260045260246000fd5b60006136f782612711565b915061370283612711565b925082613712576137116136bd565b5b828204905092915050565b600061372882612711565b915061373383612711565b925082820390508181111561374b5761374a612f21565b5b92915050565b600061375c82612711565b915061376783612711565b925082820190508082111561377f5761377e612f21565b5b92915050565b6000806000806080858703121561379f5761379e612923565b5b60006137ad87828801613366565b94505060206137be87828801613366565b93505060406137cf87828801613366565b92505060606137e0878288016130b8565b9150509295919450925056fea264697066735822122084fd61ae5b079198d6a0185a2676b009993a7927a4a8e1e430a8cedb0ca0f00564736f6c63430008140033",
  "linkReferences": {},
  "deployedLinkReferences": {}
}