{
  "_format": "hh-sol-artifact-1",
  "contractName": "NFTMarketplace",
  "sourceName": "contracts/NFTMarketplace.sol",
  "abi": [
    {
      "inputs": [
        {
          "internalType": "address",
          "name": "nftAddress",
          "type": "address"
        }
      ],
      "stateMutability": "nonpayable",
      "type": "constructor"
    },
    {
      "anonymous": false,
      "inputs": [
        {
          "indexed": true,
          "internalType": "uint256",
          "name": "tokenId",
          "type": "uint256"
        },
        {
          "indexed": true,
          "internalType": "address",
          "name": "seller",
          "type": "address"
        },
        {
          "indexed": false,
          "internalType": "uint256",
          "name": "price",
          "type": "uint256"
        }
      ],
      "name": "MarketItemCreated",
      "type": "event"
    },
    {
      "anonymous": false,
      "inputs": [
        {
          "indexed": true,
          "internalType": "uint256",
          "name": "tokenId",
          "type": "uint256"
        },
        {
          "indexed": true,
          "internalType": "address",
          "name": "seller",
          "type": "address"
        }
      ],
      "name": "MarketItemDelisted",
      "type": "event"
    },
    {
      "anonymous": false,
      "inputs": [
        {
          "indexed": true,
          "internalType": "uint256",
          "name": "tokenId",
          "type": "uint256"
        },
        {
          "indexed": true,
          "internalType": "address",
          "name": "buyer",
          "type": "address"
        },
        {
          "indexed": false,
          "internalType": "uint256",
          "name": "price",
          "type": "uint256"
        }
      ],
      "name": "MarketItemSold",
      "type": "event"
    },
    {
      "anonymous": false,
      "inputs": [
        {
          "indexed": true,
          "internalType": "address",
          "name": "previousOwner",
          "type": "address"
        },
        {
          "indexed": true,
          "internalType": "address",
          "name": "newOwner",
          "type": "address"
        }
      ],
      "name": "OwnershipTransferred",
      "type": "event"
    },
    {
      "anonymous": false,
      "inputs": [
        {
          "indexed": false,
          "internalType": "address",
          "name": "account",
          "type": "address"
        }
      ],
      "name": "Paused",
      "type": "event"
    },
    {
      "anonymous": false,
      "inputs": [
        {
          "indexed": false,
          "internalType": "address",
          "name": "account",
          "type": "address"
        }
      ],
      "name": "Unpaused",
      "type": "event"
    },
    {
      "inputs": [
        {
          "internalType": "uint256",
          "name": "tokenId",
          "type": "uint256"
        }
      ],
      "name": "buyItem",
      "outputs": [],
      "stateMutability": "payable",
      "type": "function"
    },
    {
      "inputs": [
        {
          "internalType": "uint256",
          "name": "tokenId",
          "type": "uint256"
        }
      ],
      "name": "delistItem",
      "outputs": [],
      "stateMutability": "nonpayable",
      "type": "function"
    },
    {
      "inputs": [],
      "name": "fetchItemsListed",
      "outputs": [
        {
          "components": [
            {
              "internalType": "uint256",
              "name": "tokenId",
              "type": "uint256"
            },
            {
              "internalType": "address payable",
              "name": "seller",
              "type": "address"
            },
            {
              "internalType": "address payable",
              "name": "creator",
              "type": "address"
            },
            {
              "internalType": "address",
              "name": "owner",
              "type": "address"
            },
            {
              "internalType": "uint256",
              "name": "price",
              "type": "uint256"
            },
            {
              "internalType": "uint256",
              "name": "royaltyPercentage",
              "type": "uint256"
            },
            {
              "internalType": "bool",
              "name": "sold",
              "type": "bool"
            },
            {
              "internalType": "uint256",
              "name": "batchNumber",
              "type": "uint256"
            },
            {
              "internalType": "uint256",
              "name": "batchSpecificId",
              "type": "uint256"
            }
          ],
          "internalType": "struct NFTMarketplace.MarketItem[]",
          "name": "",
          "type": "tuple[]"
        }
      ],
      "stateMutability": "view",
      "type": "function"
    },
    {
      "inputs": [],
      "name": "fetchMarketItems",
      "outputs": [
        {
          "components": [
            {
              "internalType": "uint256",
              "name": "tokenId",
              "type": "uint256"
            },
            {
              "internalType": "address payable",
              "name": "seller",
              "type": "address"
            },
            {
              "internalType": "address payable",
              "name": "creator",
              "type": "address"
            },
            {
              "internalType": "address",
              "name": "owner",
              "type": "address"
            },
            {
              "internalType": "uint256",
              "name": "price",
              "type": "uint256"
            },
            {
              "internalType": "uint256",
              "name": "royaltyPercentage",
              "type": "uint256"
            },
            {
              "internalType": "bool",
              "name": "sold",
              "type": "bool"
            },
            {
              "internalType": "uint256",
              "name": "batchNumber",
              "type": "uint256"
            },
            {
              "internalType": "uint256",
              "name": "batchSpecificId",
              "type": "uint256"
            }
          ],
          "internalType": "struct NFTMarketplace.MarketItem[]",
          "name": "",
          "type": "tuple[]"
        }
      ],
      "stateMutability": "view",
      "type": "function"
    },
    {
      "inputs": [],
      "name": "fetchMyNFTs",
      "outputs": [
        {
          "components": [
            {
              "internalType": "uint256",
              "name": "tokenId",
              "type": "uint256"
            },
            {
              "internalType": "address payable",
              "name": "seller",
              "type": "address"
            },
            {
              "internalType": "address payable",
              "name": "creator",
              "type": "address"
            },
            {
              "internalType": "address",
              "name": "owner",
              "type": "address"
            },
            {
              "internalType": "uint256",
              "name": "price",
              "type": "uint256"
            },
            {
              "internalType": "uint256",
              "name": "royaltyPercentage",
              "type": "uint256"
            },
            {
              "internalType": "bool",
              "name": "sold",
              "type": "bool"
            },
            {
              "internalType": "uint256",
              "name": "batchNumber",
              "type": "uint256"
            },
            {
              "internalType": "uint256",
              "name": "batchSpecificId",
              "type": "uint256"
            }
          ],
          "internalType": "struct NFTMarketplace.MarketItem[]",
          "name": "",
          "type": "tuple[]"
        }
      ],
      "stateMutability": "view",
      "type": "function"
    },
    {
      "inputs": [],
      "name": "getFees",
      "outputs": [
        {
          "internalType": "uint256",
          "name": "",
          "type": "uint256"
        },
        {
          "internalType": "uint256",
          "name": "",
          "type": "uint256"
        }
      ],
      "stateMutability": "view",
      "type": "function"
    },
    {
      "inputs": [
        {
          "internalType": "uint256",
          "name": "",
          "type": "uint256"
        }
      ],
      "name": "idToMarketItem",
      "outputs": [
        {
          "internalType": "uint256",
          "name": "tokenId",
          "type": "uint256"
        },
        {
          "internalType": "address payable",
          "name": "seller",
          "type": "address"
        },
        {
          "internalType": "address payable",
          "name": "creator",
          "type": "address"
        },
        {
          "internalType": "address",
          "name": "owner",
          "type": "address"
        },
        {
          "internalType": "uint256",
          "name": "price",
          "type": "uint256"
        },
        {
          "internalType": "uint256",
          "name": "royaltyPercentage",
          "type": "uint256"
        },
        {
          "internalType": "bool",
          "name": "sold",
          "type": "bool"
        },
        {
          "internalType": "uint256",
          "name": "batchNumber",
          "type": "uint256"
        },
        {
          "internalType": "uint256",
          "name": "batchSpecificId",
          "type": "uint256"
        }
      ],
      "stateMutability": "view",
      "type": "function"
    },
    {
      "inputs": [
        {
          "internalType": "uint256",
          "name": "tokenId",
          "type": "uint256"
        },
        {
          "internalType": "uint256",
          "name": "price",
          "type": "uint256"
        }
      ],
      "name": "listItem",
      "outputs": [],
      "stateMutability": "payable",
      "type": "function"
    },
    {
      "inputs": [],
      "name": "listingPrice",
      "outputs": [
        {
          "internalType": "uint256",
          "name": "",
          "type": "uint256"
        }
      ],
      "stateMutability": "view",
      "type": "function"
    },
    {
      "inputs": [
        {
          "internalType": "string",
          "name": "tokenURI",
          "type": "string"
        },
        {
          "internalType": "uint256",
          "name": "price",
          "type": "uint256"
        },
        {
          "internalType": "uint256",
          "name": "royaltyPercentage",
          "type": "uint256"
        },
        {
          "internalType": "uint256",
          "name": "quantity",
          "type": "uint256"
        }
      ],
      "name": "mintAndList",
      "outputs": [],
      "stateMutability": "payable",
      "type": "function"
    },
    {
      "inputs": [],
      "name": "nftContract",
      "outputs": [
        {
          "internalType": "contract INFT",
          "name": "",
          "type": "address"
        }
      ],
      "stateMutability": "view",
      "type": "function"
    },
    {
      "inputs": [],
      "name": "owner",
      "outputs": [
        {
          "internalType": "address",
          "name": "",
          "type": "address"
        }
      ],
      "stateMutability": "view",
      "type": "function"
    },
    {
      "inputs": [],
      "name": "pause",
      "outputs": [],
      "stateMutability": "nonpayable",
      "type": "function"
    },
    {
      "inputs": [],
      "name": "paused",
      "outputs": [
        {
          "internalType": "bool",
          "name": "",
          "type": "bool"
        }
      ],
      "stateMutability": "view",
      "type": "function"
    },
    {
      "inputs": [],
      "name": "renounceOwnership",
      "outputs": [],
      "stateMutability": "nonpayable",
      "type": "function"
    },
    {
      "inputs": [],
      "name": "transferFee",
      "outputs": [
        {
          "internalType": "uint256",
          "name": "",
          "type": "uint256"
        }
      ],
      "stateMutability": "view",
      "type": "function"
    },
    {
      "inputs": [
        {
          "internalType": "address",
          "name": "newOwner",
          "type": "address"
        }
      ],
      "name": "transferOwnership",
      "outputs": [],
      "stateMutability": "nonpayable",
      "type": "function"
    },
    {
      "inputs": [],
      "name": "unpause",
      "outputs": [],
      "stateMutability": "nonpayable",
      "type": "function"
    },
    {
      "inputs": [
        {
          "internalType": "uint256",
          "name": "_listingPrice",
          "type": "uint256"
        },
        {
          "internalType": "uint256",
          "name": "_transferFee",
          "type": "uint256"
        }
      ],
      "name": "updateFees",
      "outputs": [],
      "stateMutability": "nonpayable",
      "type": "function"
    }
  ],
  "bytecode": "0x60806040526658d15e1762800060055560026006553480156200002157600080fd5b506040516200339a3803806200339a833981810160405281019062000047919062000207565b60016000819055506000600160006101000a81548160ff0219169083151502179055506200008a6200007e620000d260201b60201c565b620000da60201b60201c565b80600260006101000a81548173ffffffffffffffffffffffffffffffffffffffff021916908373ffffffffffffffffffffffffffffffffffffffff1602179055505062000239565b600033905090565b600060018054906101000a900473ffffffffffffffffffffffffffffffffffffffff169050816001806101000a81548173ffffffffffffffffffffffffffffffffffffffff021916908373ffffffffffffffffffffffffffffffffffffffff1602179055508173ffffffffffffffffffffffffffffffffffffffff168173ffffffffffffffffffffffffffffffffffffffff167f8be0079c531659141344cd1fd0a4f28419497f9722a3daafe3b4186f6b6457e060405160405180910390a35050565b600080fd5b600073ffffffffffffffffffffffffffffffffffffffff82169050919050565b6000620001cf82620001a2565b9050919050565b620001e181620001c2565b8114620001ed57600080fd5b50565b6000815190506200020181620001d6565b92915050565b60006020828403121562000220576200021f6200019d565b5b60006200023084828501620001f0565b91505092915050565b61315180620002496000396000f3fe6080604052600436106101145760003560e01c80638456cb59116100a0578063d56d229d11610064578063d56d229d14610315578063db8d55f114610340578063e61a70c01461036c578063e7fb74c7146103b1578063f2fde38b146103cd57610114565b80638456cb5914610261578063883efa67146102785780638da5cb5b14610294578063acb2ad6f146102bf578063c78f19f9146102ea57610114565b80633f4ba83a116100e75780633f4ba83a146101b457806345f8fa80146101cb5780635c975abb146101f65780636db7943714610221578063715018a61461024a57610114565b80630f08efe0146101195780631006163114610144578063202e37401461016d57806320e6d9b714610198575b600080fd5b34801561012557600080fd5b5061012e6103f6565b60405161013b919061227e565b60405180910390f35b34801561015057600080fd5b5061016b600480360381019061016691906122e0565b610667565b005b34801561017957600080fd5b5061018261091a565b60405161018f919061227e565b60405180910390f35b6101b260048036038101906101ad9190612453565b610d9f565b005b3480156101c057600080fd5b506101c9610f4b565b005b3480156101d757600080fd5b506101e0610f5d565b6040516101ed919061227e565b60405180910390f35b34801561020257600080fd5b5061020b611292565b60405161021891906124e5565b60405180910390f35b34801561022d57600080fd5b5061024860048036038101906102439190612500565b6112a9565b005b34801561025657600080fd5b5061025f6112c3565b005b34801561026d57600080fd5b506102766112d7565b005b610292600480360381019061028d9190612500565b6112e9565b005b3480156102a057600080fd5b506102a96114b9565b6040516102b6919061254f565b60405180910390f35b3480156102cb57600080fd5b506102d46114e1565b6040516102e19190612579565b60405180910390f35b3480156102f657600080fd5b506102ff6114e7565b60405161030c9190612579565b60405180910390f35b34801561032157600080fd5b5061032a6114ed565b60405161033791906125f3565b60405180910390f35b34801561034c57600080fd5b50610355611513565b60405161036392919061260e565b60405180910390f35b34801561037857600080fd5b50610393600480360381019061038e91906122e0565b611524565b6040516103a899989796959493929190612646565b60405180910390f35b6103cb60048036038101906103c691906122e0565b6115df565b005b3480156103d957600080fd5b506103f460048036038101906103ef91906126ff565b611941565b005b6060600061040460036119c4565b9050600061041260046119c4565b8261041d919061275b565b90506000808267ffffffffffffffff81111561043c5761043b612328565b5b60405190808252806020026020018201604052801561047557816020015b610462611ff1565b81526020019060019003908161045a5790505b5090506000600190505b84811161065c576007600082815260200190815260200160002060060160009054906101000a900460ff16610649576007600082815260200190815260200160002060405180610120016040529081600082015481526020016001820160009054906101000a900473ffffffffffffffffffffffffffffffffffffffff1673ffffffffffffffffffffffffffffffffffffffff1673ffffffffffffffffffffffffffffffffffffffff1681526020016002820160009054906101000a900473ffffffffffffffffffffffffffffffffffffffff1673ffffffffffffffffffffffffffffffffffffffff1673ffffffffffffffffffffffffffffffffffffffff1681526020016003820160009054906101000a900473ffffffffffffffffffffffffffffffffffffffff1673ffffffffffffffffffffffffffffffffffffffff1673ffffffffffffffffffffffffffffffffffffffff16815260200160048201548152602001600582015481526020016006820160009054906101000a900460ff161515151581526020016007820154815260200160088201548152505082848151811061062f5761062e61278f565b5b60200260200101819052508280610645906127be565b9350505b8080610654906127be565b91505061047f565b508094505050505090565b61066f6119d2565b610677611a21565b60006007600083815260200190815260200160002090503373ffffffffffffffffffffffffffffffffffffffff168160010160009054906101000a900473ffffffffffffffffffffffffffffffffffffffff1673ffffffffffffffffffffffffffffffffffffffff1614610720576040517f08c379a000000000000000000000000000000000000000000000000000000000815260040161071790612863565b60405180910390fd5b8060060160009054906101000a900460ff1615610772576040517f08c379a0000000000000000000000000000000000000000000000000000000008152600401610769906128cf565b60405180910390fd5b600260009054906101000a900473ffffffffffffffffffffffffffffffffffffffff1673ffffffffffffffffffffffffffffffffffffffff166342842e0e3033856040518463ffffffff1660e01b81526004016107d1939291906128ef565b600060405180830381600087803b1580156107eb57600080fd5b505af11580156107ff573d6000803e3d6000fd5b50505050600760008381526020019081526020016000206000808201600090556001820160006101000a81549073ffffffffffffffffffffffffffffffffffffffff02191690556002820160006101000a81549073ffffffffffffffffffffffffffffffffffffffff02191690556003820160006101000a81549073ffffffffffffffffffffffffffffffffffffffff0219169055600482016000905560058201600090556006820160006101000a81549060ff02191690556007820160009055600882016000905550503373ffffffffffffffffffffffffffffffffffffffff16827fd179260feb48601b2a9fe6f31b78a43d7c7cb8b58e9f482cdc20ad784fe989af60405160405180910390a350610917611a6b565b50565b6060600061092860036119c4565b90506000806000600190505b838111610a6e576007600082815260200190815260200160002060060160009054906101000a900460ff168015610a4757503373ffffffffffffffffffffffffffffffffffffffff16600260009054906101000a900473ffffffffffffffffffffffffffffffffffffffff1673ffffffffffffffffffffffffffffffffffffffff16636352211e60076000858152602001908152602001600020600001546040518263ffffffff1660e01b81526004016109ee9190612579565b602060405180830381865afa158015610a0b573d6000803e3d6000fd5b505050506040513d601f19601f82011682018060405250810190610a2f919061293b565b73ffffffffffffffffffffffffffffffffffffffff16145b15610a5b578280610a57906127be565b9350505b8080610a66906127be565b915050610934565b5060008267ffffffffffffffff811115610a8b57610a8a612328565b5b604051908082528060200260200182016040528015610ac457816020015b610ab1611ff1565b815260200190600190039081610aa95790505b5090506000600190505b848111610d94576007600082815260200190815260200160002060060160009054906101000a900460ff168015610be157503373ffffffffffffffffffffffffffffffffffffffff16600260009054906101000a900473ffffffffffffffffffffffffffffffffffffffff1673ffffffffffffffffffffffffffffffffffffffff16636352211e60076000858152602001908152602001600020600001546040518263ffffffff1660e01b8152600401610b889190612579565b602060405180830381865afa158015610ba5573d6000803e3d6000fd5b505050506040513d601f19601f82011682018060405250810190610bc9919061293b565b73ffffffffffffffffffffffffffffffffffffffff16145b15610d81576007600082815260200190815260200160002060405180610120016040529081600082015481526020016001820160009054906101000a900473ffffffffffffffffffffffffffffffffffffffff1673ffffffffffffffffffffffffffffffffffffffff1673ffffffffffffffffffffffffffffffffffffffff1681526020016002820160009054906101000a900473ffffffffffffffffffffffffffffffffffffffff1673ffffffffffffffffffffffffffffffffffffffff1673ffffffffffffffffffffffffffffffffffffffff1681526020016003820160009054906101000a900473ffffffffffffffffffffffffffffffffffffffff1673ffffffffffffffffffffffffffffffffffffffff1673ffffffffffffffffffffffffffffffffffffffff16815260200160048201548152602001600582015481526020016006820160009054906101000a900460ff1615151515815260200160078201548152602001600882015481525050828481518110610d6757610d6661278f565b5b60200260200101819052508280610d7d906127be565b9350505b8080610d8c906127be565b915050610ace565b508094505050505090565b610da76119d2565b610daf611a21565b60008111610df2576040517f08c379a0000000000000000000000000000000000000000000000000000000008152600401610de9906129b4565b60405180910390fd5b60008311610e35576040517f08c379a0000000000000000000000000000000000000000000000000000000008152600401610e2c90612a20565b60405180910390fd5b80600554610e439190612a40565b3414610e84576040517f08c379a0000000000000000000000000000000000000000000000000000000008152600401610e7b90612ace565b60405180910390fd5b6000600260009054906101000a900473ffffffffffffffffffffffffffffffffffffffff1673ffffffffffffffffffffffffffffffffffffffff16636d74e2bd308785876040518563ffffffff1660e01b8152600401610ee79493929190612b5c565b6000604051808303816000875af1158015610f06573d6000803e3d6000fd5b505050506040513d6000823e3d601f19601f82011682018060405250810190610f2f9190612c85565b9050610f3c818533611a75565b50610f45611a6b565b50505050565b610f53611d84565b610f5b611e02565b565b60606000610f6b60036119c4565b90506000806000600190505b838111611009573373ffffffffffffffffffffffffffffffffffffffff166007600083815260200190815260200160002060010160009054906101000a900473ffffffffffffffffffffffffffffffffffffffff1673ffffffffffffffffffffffffffffffffffffffff1603610ff6578280610ff2906127be565b9350505b8080611001906127be565b915050610f77565b5060008267ffffffffffffffff81111561102657611025612328565b5b60405190808252806020026020018201604052801561105f57816020015b61104c611ff1565b8152602001906001900390816110445790505b5090506000600190505b848111611287573373ffffffffffffffffffffffffffffffffffffffff166007600083815260200190815260200160002060010160009054906101000a900473ffffffffffffffffffffffffffffffffffffffff1673ffffffffffffffffffffffffffffffffffffffff1603611274576007600082815260200190815260200160002060405180610120016040529081600082015481526020016001820160009054906101000a900473ffffffffffffffffffffffffffffffffffffffff1673ffffffffffffffffffffffffffffffffffffffff1673ffffffffffffffffffffffffffffffffffffffff1681526020016002820160009054906101000a900473ffffffffffffffffffffffffffffffffffffffff1673ffffffffffffffffffffffffffffffffffffffff1673ffffffffffffffffffffffffffffffffffffffff1681526020016003820160009054906101000a900473ffffffffffffffffffffffffffffffffffffffff1673ffffffffffffffffffffffffffffffffffffffff1673ffffffffffffffffffffffffffffffffffffffff16815260200160048201548152602001600582015481526020016006820160009054906101000a900460ff161515151581526020016007820154815260200160088201548152505082848151811061125a5761125961278f565b5b60200260200101819052508280611270906127be565b9350505b808061127f906127be565b915050611069565b508094505050505090565b6000600160009054906101000a900460ff16905090565b6112b1611d84565b81600581905550806006819055505050565b6112cb611d84565b6112d56000611e65565b565b6112df611d84565b6112e7611f28565b565b6112f16119d2565b6112f9611a21565b6000811161133c576040517f08c379a000000000000000000000000000000000000000000000000000000000815260040161133390612a20565b60405180910390fd5b6005543414611380576040517f08c379a000000000000000000000000000000000000000000000000000000000815260040161137790612d1a565b60405180910390fd5b600260009054906101000a900473ffffffffffffffffffffffffffffffffffffffff1673ffffffffffffffffffffffffffffffffffffffff166342842e0e3330856040518463ffffffff1660e01b81526004016113df939291906128ef565b600060405180830381600087803b1580156113f957600080fd5b505af115801561140d573d6000803e3d6000fd5b505050506000600167ffffffffffffffff81111561142e5761142d612328565b5b60405190808252806020026020018201604052801561145c5781602001602082028036833780820191505090505b50905082816000815181106114745761147361278f565b5b60200260200101818152505082816000815181106114955761149461278f565b5b6020026020010181815250506114ac818333611a75565b506114b5611a6b565b5050565b600060018054906101000a900473ffffffffffffffffffffffffffffffffffffffff16905090565b60065481565b60055481565b600260009054906101000a900473ffffffffffffffffffffffffffffffffffffffff1681565b600080600554600654915091509091565b60076020528060005260406000206000915090508060000154908060010160009054906101000a900473ffffffffffffffffffffffffffffffffffffffff16908060020160009054906101000a900473ffffffffffffffffffffffffffffffffffffffff16908060030160009054906101000a900473ffffffffffffffffffffffffffffffffffffffff16908060040154908060050154908060060160009054906101000a900460ff16908060070154908060080154905089565b6115e76119d2565b6115ef611a21565b60006007600083815260200190815260200160002090508060060160009054906101000a900460ff1615611658576040517f08c379a000000000000000000000000000000000000000000000000000000000815260040161164f90612d86565b60405180910390fd5b8060040154341461169e576040517f08c379a000000000000000000000000000000000000000000000000000000000815260040161169590612df2565b60405180910390fd5b6000606460065483600401546116b49190612a40565b6116be9190612e41565b905060006064836005015484600401546116d89190612a40565b6116e29190612e41565b90506000818385600401546116f7919061275b565b611701919061275b565b90508360010160009054906101000a900473ffffffffffffffffffffffffffffffffffffffff1673ffffffffffffffffffffffffffffffffffffffff166108fc829081150290604051600060405180830381858888f1935050505015801561176d573d6000803e3d6000fd5b506117766114b9565b73ffffffffffffffffffffffffffffffffffffffff166108fc849081150290604051600060405180830381858888f193505050501580156117bb573d6000803e3d6000fd5b508360020160009054906101000a900473ffffffffffffffffffffffffffffffffffffffff1673ffffffffffffffffffffffffffffffffffffffff166108fc839081150290604051600060405180830381858888f19350505050158015611826573d6000803e3d6000fd5b5060018460060160006101000a81548160ff02191690831515021790555061184e6004611f8a565b600260009054906101000a900473ffffffffffffffffffffffffffffffffffffffff1673ffffffffffffffffffffffffffffffffffffffff166342842e0e3033886040518463ffffffff1660e01b81526004016118ad939291906128ef565b600060405180830381600087803b1580156118c757600080fd5b505af11580156118db573d6000803e3d6000fd5b505050503373ffffffffffffffffffffffffffffffffffffffff16857f79705a7faf0849ec33d9f436aa88d50146d23806527cf13010abf315cbfe7600866004015460405161192a9190612579565b60405180910390a35050505061193e611a6b565b50565b611949611d84565b600073ffffffffffffffffffffffffffffffffffffffff168173ffffffffffffffffffffffffffffffffffffffff16036119b8576040517f08c379a00000000000000000000000000000000000000000000000000000000081526004016119af90612ee4565b60405180910390fd5b6119c181611e65565b50565b600081600001549050919050565b600260005403611a17576040517f08c379a0000000000000000000000000000000000000000000000000000000008152600401611a0e90612f50565b60405180910390fd5b6002600081905550565b611a29611292565b15611a69576040517f08c379a0000000000000000000000000000000000000000000000000000000008152600401611a6090612fbc565b60405180910390fd5b565b6001600081905550565b60005b8351811015611d7e576000848281518110611a9657611a9561278f565b5b60200260200101519050600080600080600260009054906101000a900473ffffffffffffffffffffffffffffffffffffffff1673ffffffffffffffffffffffffffffffffffffffff16638c7a63ae866040518263ffffffff1660e01b8152600401611b019190612579565b608060405180830381865afa158015611b1e573d6000803e3d6000fd5b505050506040513d601f19601f82011682018060405250810190611b429190612fdc565b93509350935093506040518061012001604052808681526020018873ffffffffffffffffffffffffffffffffffffffff1681526020018273ffffffffffffffffffffffffffffffffffffffff1681526020013073ffffffffffffffffffffffffffffffffffffffff16815260200189815260200183815260200160001515815260200185815260200184815250600760008781526020019081526020016000206000820151816000015560208201518160010160006101000a81548173ffffffffffffffffffffffffffffffffffffffff021916908373ffffffffffffffffffffffffffffffffffffffff16021790555060408201518160020160006101000a81548173ffffffffffffffffffffffffffffffffffffffff021916908373ffffffffffffffffffffffffffffffffffffffff16021790555060608201518160030160006101000a81548173ffffffffffffffffffffffffffffffffffffffff021916908373ffffffffffffffffffffffffffffffffffffffff1602179055506080820151816004015560a0820151816005015560c08201518160060160006101000a81548160ff02191690831515021790555060e082015181600701556101008201518160080155905050611d176003611f8a565b8673ffffffffffffffffffffffffffffffffffffffff16857fec759846c972e2aa7c351c68392f7388dfb8511b1d2be0ee4cdfbc50011f71528a604051611d5e9190612579565b60405180910390a350505050508080611d76906127be565b915050611a78565b50505050565b611d8c611fa0565b73ffffffffffffffffffffffffffffffffffffffff16611daa6114b9565b73ffffffffffffffffffffffffffffffffffffffff1614611e00576040517f08c379a0000000000000000000000000000000000000000000000000000000008152600401611df79061308f565b60405180910390fd5b565b611e0a611fa8565b6000600160006101000a81548160ff0219169083151502179055507f5db9ee0a495bf2e6ff9c91a7834c1ba4fdd244a5e8aa4e537bd38aeae4b073aa611e4e611fa0565b604051611e5b919061254f565b60405180910390a1565b600060018054906101000a900473ffffffffffffffffffffffffffffffffffffffff169050816001806101000a81548173ffffffffffffffffffffffffffffffffffffffff021916908373ffffffffffffffffffffffffffffffffffffffff1602179055508173ffffffffffffffffffffffffffffffffffffffff168173ffffffffffffffffffffffffffffffffffffffff167f8be0079c531659141344cd1fd0a4f28419497f9722a3daafe3b4186f6b6457e060405160405180910390a35050565b611f30611a21565b60018060006101000a81548160ff0219169083151502179055507f62e78cea01bee320cd4e420270b5ea74000d11b0c9f74754ebdbfc544b05a258611f73611fa0565b604051611f80919061254f565b60405180910390a1565b6001816000016000828254019250508190555050565b600033905090565b611fb0611292565b611fef576040517f08c379a0000000000000000000000000000000000000000000000000000000008152600401611fe6906130fb565b60405180910390fd5b565b60405180610120016040528060008152602001600073ffffffffffffffffffffffffffffffffffffffff168152602001600073ffffffffffffffffffffffffffffffffffffffff168152602001600073ffffffffffffffffffffffffffffffffffffffff168152602001600081526020016000815260200160001515815260200160008152602001600081525090565b600081519050919050565b600082825260208201905092915050565b6000819050602082019050919050565b6000819050919050565b6120c0816120ad565b82525050565b600073ffffffffffffffffffffffffffffffffffffffff82169050919050565b60006120f1826120c6565b9050919050565b612101816120e6565b82525050565b6000612112826120c6565b9050919050565b61212281612107565b82525050565b60008115159050919050565b61213d81612128565b82525050565b6101208201600082015161215a60008501826120b7565b50602082015161216d60208501826120f8565b50604082015161218060408501826120f8565b5060608201516121936060850182612119565b5060808201516121a660808501826120b7565b5060a08201516121b960a08501826120b7565b5060c08201516121cc60c0850182612134565b5060e08201516121df60e08501826120b7565b506101008201516121f46101008501826120b7565b50505050565b60006122068383612143565b6101208301905092915050565b6000602082019050919050565b600061222b82612081565b612235818561208c565b93506122408361209d565b8060005b8381101561227157815161225888826121fa565b975061226383612213565b925050600181019050612244565b5085935050505092915050565b600060208201905081810360008301526122988184612220565b905092915050565b6000604051905090565b600080fd5b600080fd5b6122bd816120ad565b81146122c857600080fd5b50565b6000813590506122da816122b4565b92915050565b6000602082840312156122f6576122f56122aa565b5b6000612304848285016122cb565b91505092915050565b600080fd5b600080fd5b6000601f19601f8301169050919050565b7f4e487b7100000000000000000000000000000000000000000000000000000000600052604160045260246000fd5b61236082612317565b810181811067ffffffffffffffff8211171561237f5761237e612328565b5b80604052505050565b60006123926122a0565b905061239e8282612357565b919050565b600067ffffffffffffffff8211156123be576123bd612328565b5b6123c782612317565b9050602081019050919050565b82818337600083830152505050565b60006123f66123f1846123a3565b612388565b90508281526020810184848401111561241257612411612312565b5b61241d8482856123d4565b509392505050565b600082601f83011261243a5761243961230d565b5b813561244a8482602086016123e3565b91505092915050565b6000806000806080858703121561246d5761246c6122aa565b5b600085013567ffffffffffffffff81111561248b5761248a6122af565b5b61249787828801612425565b94505060206124a8878288016122cb565b93505060406124b9878288016122cb565b92505060606124ca878288016122cb565b91505092959194509250565b6124df81612128565b82525050565b60006020820190506124fa60008301846124d6565b92915050565b60008060408385031215612517576125166122aa565b5b6000612525858286016122cb565b9250506020612536858286016122cb565b9150509250929050565b61254981612107565b82525050565b60006020820190506125646000830184612540565b92915050565b612573816120ad565b82525050565b600060208201905061258e600083018461256a565b92915050565b6000819050919050565b60006125b96125b46125af846120c6565b612594565b6120c6565b9050919050565b60006125cb8261259e565b9050919050565b60006125dd826125c0565b9050919050565b6125ed816125d2565b82525050565b600060208201905061260860008301846125e4565b92915050565b6000604082019050612623600083018561256a565b612630602083018461256a565b9392505050565b612640816120e6565b82525050565b60006101208201905061265c600083018c61256a565b612669602083018b612637565b612676604083018a612637565b6126836060830189612540565b612690608083018861256a565b61269d60a083018761256a565b6126aa60c08301866124d6565b6126b760e083018561256a565b6126c561010083018461256a565b9a9950505050505050505050565b6126dc81612107565b81146126e757600080fd5b50565b6000813590506126f9816126d3565b92915050565b600060208284031215612715576127146122aa565b5b6000612723848285016126ea565b91505092915050565b7f4e487b7100000000000000000000000000000000000000000000000000000000600052601160045260246000fd5b6000612766826120ad565b9150612771836120ad565b92508282039050818111156127895761278861272c565b5b92915050565b7f4e487b7100000000000000000000000000000000000000000000000000000000600052603260045260246000fd5b60006127c9826120ad565b91507fffffffffffffffffffffffffffffffffffffffffffffffffffffffffffffffff82036127fb576127fa61272c565b5b600182019050919050565b600082825260208201905092915050565b7f4e6f74206974656d206f776e6572000000000000000000000000000000000000600082015250565b600061284d600e83612806565b915061285882612817565b602082019050919050565b6000602082019050818103600083015261287c81612840565b9050919050565b7f416c726561647920736f6c640000000000000000000000000000000000000000600082015250565b60006128b9600c83612806565b91506128c482612883565b602082019050919050565b600060208201905081810360008301526128e8816128ac565b9050919050565b60006060820190506129046000830186612540565b6129116020830185612540565b61291e604083018461256a565b949350505050565b600081519050612935816126d3565b92915050565b600060208284031215612951576129506122aa565b5b600061295f84828501612926565b91505092915050565b7f5175616e74697479206d757374206265206174206c6561737420310000000000600082015250565b600061299e601b83612806565b91506129a982612968565b602082019050919050565b600060208201905081810360008301526129cd81612991565b9050919050565b7f5072696365206d757374206265203e2030000000000000000000000000000000600082015250565b6000612a0a601183612806565b9150612a15826129d4565b602082019050919050565b60006020820190508181036000830152612a39816129fd565b9050919050565b6000612a4b826120ad565b9150612a56836120ad565b9250828202612a64816120ad565b91508282048414831517612a7b57612a7a61272c565b5b5092915050565b7f496e636f727265637420746f74616c206c697374696e67206665650000000000600082015250565b6000612ab8601b83612806565b9150612ac382612a82565b602082019050919050565b60006020820190508181036000830152612ae781612aab565b9050919050565b600081519050919050565b60005b83811015612b17578082015181840152602081019050612afc565b60008484015250505050565b6000612b2e82612aee565b612b388185612806565b9350612b48818560208601612af9565b612b5181612317565b840191505092915050565b6000608082019050612b716000830187612540565b8181036020830152612b838186612b23565b9050612b92604083018561256a565b612b9f606083018461256a565b95945050505050565b600067ffffffffffffffff821115612bc357612bc2612328565b5b602082029050602081019050919050565b600080fd5b600081519050612be8816122b4565b92915050565b6000612c01612bfc84612ba8565b612388565b90508083825260208201905060208402830185811115612c2457612c23612bd4565b5b835b81811015612c4d5780612c398882612bd9565b845260208401935050602081019050612c26565b5050509392505050565b600082601f830112612c6c57612c6b61230d565b5b8151612c7c848260208601612bee565b91505092915050565b600060208284031215612c9b57612c9a6122aa565b5b600082015167ffffffffffffffff811115612cb957612cb86122af565b5b612cc584828501612c57565b91505092915050565b7f4c697374696e6720666565207265717569726564000000000000000000000000600082015250565b6000612d04601483612806565b9150612d0f82612cce565b602082019050919050565b60006020820190508181036000830152612d3381612cf7565b9050919050565b7f4974656d20616c726561647920736f6c64000000000000000000000000000000600082015250565b6000612d70601183612806565b9150612d7b82612d3a565b602082019050919050565b60006020820190508181036000830152612d9f81612d63565b9050919050565b7f57726f6e67207072696365000000000000000000000000000000000000000000600082015250565b6000612ddc600b83612806565b9150612de782612da6565b602082019050919050565b60006020820190508181036000830152612e0b81612dcf565b9050919050565b7f4e487b7100000000000000000000000000000000000000000000000000000000600052601260045260246000fd5b6000612e4c826120ad565b9150612e57836120ad565b925082612e6757612e66612e12565b5b828204905092915050565b7f4f776e61626c653a206e6577206f776e657220697320746865207a65726f206160008201527f6464726573730000000000000000000000000000000000000000000000000000602082015250565b6000612ece602683612806565b9150612ed982612e72565b604082019050919050565b60006020820190508181036000830152612efd81612ec1565b9050919050565b7f5265656e7472616e637947756172643a207265656e7472616e742063616c6c00600082015250565b6000612f3a601f83612806565b9150612f4582612f04565b602082019050919050565b60006020820190508181036000830152612f6981612f2d565b9050919050565b7f5061757361626c653a2070617573656400000000000000000000000000000000600082015250565b6000612fa6601083612806565b9150612fb182612f70565b602082019050919050565b60006020820190508181036000830152612fd581612f99565b9050919050565b60008060008060808587031215612ff657612ff56122aa565b5b600061300487828801612bd9565b945050602061301587828801612bd9565b935050604061302687828801612bd9565b925050606061303787828801612926565b91505092959194509250565b7f4f776e61626c653a2063616c6c6572206973206e6f7420746865206f776e6572600082015250565b6000613079602083612806565b915061308482613043565b602082019050919050565b600060208201905081810360008301526130a88161306c565b9050919050565b7f5061757361626c653a206e6f7420706175736564000000000000000000000000600082015250565b60006130e5601483612806565b91506130f0826130af565b602082019050919050565b60006020820190508181036000830152613114816130d8565b905091905056fea26469706673582212206288c9654e21ca702bb448ce70b395cafdd377059462de142744e1aa3d885b6664736f6c63430008120033",
  "linkReferences": {},
  "deployedLinkReferences": {}
}