{
  "_format": "hh-sol-artifact-1",
  "contractName": "NFTMarketplace",
  "sourceName": "contracts/NFTMarketplace.sol",
  "abi": [
    {
      "inputs": [
        {
          "internalType": "address",
          "name": "nftAddress",
          "type": "address"
        }
      ],
      "stateMutability": "nonpayable",
      "type": "constructor"
    },
    {
      "inputs": [],
      "name": "EnforcedPause",
      "type": "error"
    },
    {
      "inputs": [],
      "name": "ExpectedPause",
      "type": "error"
    },
    {
      "inputs": [
        {
          "internalType": "address",
          "name": "owner",
          "type": "address"
        }
      ],
      "name": "OwnableInvalidOwner",
      "type": "error"
    },
    {
      "inputs": [
        {
          "internalType": "address",
          "name": "account",
          "type": "address"
        }
      ],
      "name": "OwnableUnauthorizedAccount",
      "type": "error"
    },
    {
      "inputs": [],
      "name": "ReentrancyGuardReentrantCall",
      "type": "error"
    },
    {
      "anonymous": false,
      "inputs": [
        {
          "indexed": true,
          "internalType": "uint256",
          "name": "listingId",
          "type": "uint256"
        },
        {
          "indexed": true,
          "internalType": "uint256",
          "name": "tokenId",
          "type": "uint256"
        },
        {
          "indexed": true,
          "internalType": "address",
          "name": "seller",
          "type": "address"
        },
        {
          "indexed": false,
          "internalType": "uint256",
          "name": "price",
          "type": "uint256"
        }
      ],
      "name": "MarketItemCreated",
      "type": "event"
    },
    {
      "anonymous": false,
      "inputs": [
        {
          "indexed": true,
          "internalType": "uint256",
          "name": "listingId",
          "type": "uint256"
        },
        {
          "indexed": true,
          "internalType": "uint256",
          "name": "tokenId",
          "type": "uint256"
        },
        {
          "indexed": true,
          "internalType": "address",
          "name": "seller",
          "type": "address"
        }
      ],
      "name": "MarketItemDelisted",
      "type": "event"
    },
    {
      "anonymous": false,
      "inputs": [
        {
          "indexed": true,
          "internalType": "uint256",
          "name": "listingId",
          "type": "uint256"
        },
        {
          "indexed": true,
          "internalType": "uint256",
          "name": "tokenId",
          "type": "uint256"
        },
        {
          "indexed": true,
          "internalType": "address",
          "name": "buyer",
          "type": "address"
        },
        {
          "indexed": false,
          "internalType": "uint256",
          "name": "price",
          "type": "uint256"
        }
      ],
      "name": "MarketItemSold",
      "type": "event"
    },
    {
      "anonymous": false,
      "inputs": [
        {
          "indexed": true,
          "internalType": "address",
          "name": "previousOwner",
          "type": "address"
        },
        {
          "indexed": true,
          "internalType": "address",
          "name": "newOwner",
          "type": "address"
        }
      ],
      "name": "OwnershipTransferred",
      "type": "event"
    },
    {
      "anonymous": false,
      "inputs": [
        {
          "indexed": false,
          "internalType": "address",
          "name": "account",
          "type": "address"
        }
      ],
      "name": "Paused",
      "type": "event"
    },
    {
      "anonymous": false,
      "inputs": [
        {
          "indexed": false,
          "internalType": "address",
          "name": "account",
          "type": "address"
        }
      ],
      "name": "Unpaused",
      "type": "event"
    },
    {
      "anonymous": false,
      "inputs": [
        {
          "indexed": true,
          "internalType": "address",
          "name": "user",
          "type": "address"
        },
        {
          "indexed": false,
          "internalType": "uint256",
          "name": "amount",
          "type": "uint256"
        }
      ],
      "name": "Withdraw",
      "type": "event"
    },
    {
      "inputs": [
        {
          "internalType": "uint256",
          "name": "listingId",
          "type": "uint256"
        }
      ],
      "name": "buyItem",
      "outputs": [],
      "stateMutability": "payable",
      "type": "function"
    },
    {
      "inputs": [
        {
          "internalType": "uint256",
          "name": "listingId",
          "type": "uint256"
        }
      ],
      "name": "delistItem",
      "outputs": [],
      "stateMutability": "nonpayable",
      "type": "function"
    },
    {
      "inputs": [],
      "name": "fetchItemsListed",
      "outputs": [
        {
          "components": [
            {
              "internalType": "uint256",
              "name": "listingId",
              "type": "uint256"
            },
            {
              "internalType": "uint256",
              "name": "tokenId",
              "type": "uint256"
            },
            {
              "internalType": "address payable",
              "name": "seller",
              "type": "address"
            },
            {
              "internalType": "address payable",
              "name": "creator",
              "type": "address"
            },
            {
              "internalType": "address",
              "name": "owner",
              "type": "address"
            },
            {
              "internalType": "uint256",
              "name": "price",
              "type": "uint256"
            },
            {
              "internalType": "uint256",
              "name": "royaltyPercentage",
              "type": "uint256"
            },
            {
              "internalType": "bool",
              "name": "sold",
              "type": "bool"
            },
            {
              "internalType": "uint256",
              "name": "batchNumber",
              "type": "uint256"
            },
            {
              "internalType": "uint256",
              "name": "batchSpecificId",
              "type": "uint256"
            }
          ],
          "internalType": "struct NFTMarketplace.MarketItem[]",
          "name": "",
          "type": "tuple[]"
        }
      ],
      "stateMutability": "view",
      "type": "function"
    },
    {
      "inputs": [],
      "name": "fetchMarketItems",
      "outputs": [
        {
          "components": [
            {
              "internalType": "uint256",
              "name": "listingId",
              "type": "uint256"
            },
            {
              "internalType": "uint256",
              "name": "tokenId",
              "type": "uint256"
            },
            {
              "internalType": "address payable",
              "name": "seller",
              "type": "address"
            },
            {
              "internalType": "address payable",
              "name": "creator",
              "type": "address"
            },
            {
              "internalType": "address",
              "name": "owner",
              "type": "address"
            },
            {
              "internalType": "uint256",
              "name": "price",
              "type": "uint256"
            },
            {
              "internalType": "uint256",
              "name": "royaltyPercentage",
              "type": "uint256"
            },
            {
              "internalType": "bool",
              "name": "sold",
              "type": "bool"
            },
            {
              "internalType": "uint256",
              "name": "batchNumber",
              "type": "uint256"
            },
            {
              "internalType": "uint256",
              "name": "batchSpecificId",
              "type": "uint256"
            }
          ],
          "internalType": "struct NFTMarketplace.MarketItem[]",
          "name": "",
          "type": "tuple[]"
        }
      ],
      "stateMutability": "view",
      "type": "function"
    },
    {
      "inputs": [],
      "name": "fetchMyNFTs",
      "outputs": [
        {
          "components": [
            {
              "internalType": "uint256",
              "name": "listingId",
              "type": "uint256"
            },
            {
              "internalType": "uint256",
              "name": "tokenId",
              "type": "uint256"
            },
            {
              "internalType": "address payable",
              "name": "seller",
              "type": "address"
            },
            {
              "internalType": "address payable",
              "name": "creator",
              "type": "address"
            },
            {
              "internalType": "address",
              "name": "owner",
              "type": "address"
            },
            {
              "internalType": "uint256",
              "name": "price",
              "type": "uint256"
            },
            {
              "internalType": "uint256",
              "name": "royaltyPercentage",
              "type": "uint256"
            },
            {
              "internalType": "bool",
              "name": "sold",
              "type": "bool"
            },
            {
              "internalType": "uint256",
              "name": "batchNumber",
              "type": "uint256"
            },
            {
              "internalType": "uint256",
              "name": "batchSpecificId",
              "type": "uint256"
            }
          ],
          "internalType": "struct NFTMarketplace.MarketItem[]",
          "name": "",
          "type": "tuple[]"
        }
      ],
      "stateMutability": "view",
      "type": "function"
    },
    {
      "inputs": [],
      "name": "getFees",
      "outputs": [
        {
          "internalType": "uint256",
          "name": "",
          "type": "uint256"
        },
        {
          "internalType": "uint256",
          "name": "",
          "type": "uint256"
        }
      ],
      "stateMutability": "view",
      "type": "function"
    },
    {
      "inputs": [],
      "name": "getMarketplaceEarnings",
      "outputs": [
        {
          "internalType": "uint256",
          "name": "",
          "type": "uint256"
        }
      ],
      "stateMutability": "view",
      "type": "function"
    },
    {
      "inputs": [
        {
          "internalType": "uint256",
          "name": "tokenId",
          "type": "uint256"
        }
      ],
      "name": "getNftOwner",
      "outputs": [
        {
          "internalType": "address",
          "name": "",
          "type": "address"
        }
      ],
      "stateMutability": "view",
      "type": "function"
    },
    {
      "inputs": [
        {
          "internalType": "uint256",
          "name": "",
          "type": "uint256"
        }
      ],
      "name": "idToMarketItem",
      "outputs": [
        {
          "internalType": "uint256",
          "name": "listingId",
          "type": "uint256"
        },
        {
          "internalType": "uint256",
          "name": "tokenId",
          "type": "uint256"
        },
        {
          "internalType": "address payable",
          "name": "seller",
          "type": "address"
        },
        {
          "internalType": "address payable",
          "name": "creator",
          "type": "address"
        },
        {
          "internalType": "address",
          "name": "owner",
          "type": "address"
        },
        {
          "internalType": "uint256",
          "name": "price",
          "type": "uint256"
        },
        {
          "internalType": "uint256",
          "name": "royaltyPercentage",
          "type": "uint256"
        },
        {
          "internalType": "bool",
          "name": "sold",
          "type": "bool"
        },
        {
          "internalType": "uint256",
          "name": "batchNumber",
          "type": "uint256"
        },
        {
          "internalType": "uint256",
          "name": "batchSpecificId",
          "type": "uint256"
        }
      ],
      "stateMutability": "view",
      "type": "function"
    },
    {
      "inputs": [
        {
          "internalType": "uint256",
          "name": "tokenId",
          "type": "uint256"
        },
        {
          "internalType": "uint256",
          "name": "price",
          "type": "uint256"
        }
      ],
      "name": "listItem",
      "outputs": [],
      "stateMutability": "payable",
      "type": "function"
    },
    {
      "inputs": [],
      "name": "listingPrice",
      "outputs": [
        {
          "internalType": "uint256",
          "name": "",
          "type": "uint256"
        }
      ],
      "stateMutability": "view",
      "type": "function"
    },
    {
      "inputs": [
        {
          "internalType": "uint256",
          "name": "",
          "type": "uint256"
        }
      ],
      "name": "marketListingIds",
      "outputs": [
        {
          "internalType": "uint256",
          "name": "",
          "type": "uint256"
        }
      ],
      "stateMutability": "view",
      "type": "function"
    },
    {
      "inputs": [
        {
          "internalType": "string",
          "name": "tokenURI",
          "type": "string"
        },
        {
          "internalType": "uint256",
          "name": "price",
          "type": "uint256"
        },
        {
          "internalType": "uint256",
          "name": "royaltyPercentage",
          "type": "uint256"
        },
        {
          "internalType": "uint256",
          "name": "quantity",
          "type": "uint256"
        }
      ],
      "name": "mintAndList",
      "outputs": [],
      "stateMutability": "payable",
      "type": "function"
    },
    {
      "inputs": [],
      "name": "newListingId",
      "outputs": [
        {
          "internalType": "uint256",
          "name": "",
          "type": "uint256"
        }
      ],
      "stateMutability": "view",
      "type": "function"
    },
    {
      "inputs": [],
      "name": "nftContract",
      "outputs": [
        {
          "internalType": "contract INFT",
          "name": "",
          "type": "address"
        }
      ],
      "stateMutability": "view",
      "type": "function"
    },
    {
      "inputs": [
        {
          "internalType": "address",
          "name": "",
          "type": "address"
        },
        {
          "internalType": "address",
          "name": "",
          "type": "address"
        },
        {
          "internalType": "uint256",
          "name": "",
          "type": "uint256"
        },
        {
          "internalType": "bytes",
          "name": "",
          "type": "bytes"
        }
      ],
      "name": "onERC721Received",
      "outputs": [
        {
          "internalType": "bytes4",
          "name": "",
          "type": "bytes4"
        }
      ],
      "stateMutability": "pure",
      "type": "function"
    },
    {
      "inputs": [],
      "name": "owner",
      "outputs": [
        {
          "internalType": "address",
          "name": "",
          "type": "address"
        }
      ],
      "stateMutability": "view",
      "type": "function"
    },
    {
      "inputs": [],
      "name": "pause",
      "outputs": [],
      "stateMutability": "nonpayable",
      "type": "function"
    },
    {
      "inputs": [],
      "name": "paused",
      "outputs": [
        {
          "internalType": "bool",
          "name": "",
          "type": "bool"
        }
      ],
      "stateMutability": "view",
      "type": "function"
    },
    {
      "inputs": [
        {
          "internalType": "address",
          "name": "",
          "type": "address"
        }
      ],
      "name": "pendingWithdrawals",
      "outputs": [
        {
          "internalType": "uint256",
          "name": "",
          "type": "uint256"
        }
      ],
      "stateMutability": "view",
      "type": "function"
    },
    {
      "inputs": [],
      "name": "renounceOwnership",
      "outputs": [],
      "stateMutability": "nonpayable",
      "type": "function"
    },
    {
      "inputs": [
        {
          "internalType": "uint256",
          "name": "",
          "type": "uint256"
        },
        {
          "internalType": "uint256",
          "name": "",
          "type": "uint256"
        }
      ],
      "name": "tokenIdToListings",
      "outputs": [
        {
          "internalType": "uint256",
          "name": "",
          "type": "uint256"
        }
      ],
      "stateMutability": "view",
      "type": "function"
    },
    {
      "inputs": [],
      "name": "totalMarketplaceEarnings",
      "outputs": [
        {
          "internalType": "uint256",
          "name": "",
          "type": "uint256"
        }
      ],
      "stateMutability": "view",
      "type": "function"
    },
    {
      "inputs": [],
      "name": "transferFee",
      "outputs": [
        {
          "internalType": "uint256",
          "name": "",
          "type": "uint256"
        }
      ],
      "stateMutability": "view",
      "type": "function"
    },
    {
      "inputs": [
        {
          "internalType": "address",
          "name": "newOwner",
          "type": "address"
        }
      ],
      "name": "transferOwnership",
      "outputs": [],
      "stateMutability": "nonpayable",
      "type": "function"
    },
    {
      "inputs": [],
      "name": "unpause",
      "outputs": [],
      "stateMutability": "nonpayable",
      "type": "function"
    },
    {
      "inputs": [
        {
          "internalType": "uint256",
          "name": "_listingPrice",
          "type": "uint256"
        },
        {
          "internalType": "uint256",
          "name": "_transferFee",
          "type": "uint256"
        }
      ],
      "name": "updateFees",
      "outputs": [],
      "stateMutability": "nonpayable",
      "type": "function"
    },
    {
      "inputs": [],
      "name": "withdraw",
      "outputs": [],
      "stateMutability": "nonpayable",
      "type": "function"
    }
  ],
  "bytecode": "0x60806040526658d15e1762800060045560026005553480156200002157600080fd5b5060405162003bf638038062003bf6833981810160405281019062000047919062000267565b3360016000819055506000600160006101000a81548160ff021916908315150217905550600073ffffffffffffffffffffffffffffffffffffffff168173ffffffffffffffffffffffffffffffffffffffff1603620000e05760006040517f1e4fbdf7000000000000000000000000000000000000000000000000000000008152600401620000d79190620002aa565b60405180910390fd5b620000f1816200013a60201b60201c565b5080600260006101000a81548173ffffffffffffffffffffffffffffffffffffffff021916908373ffffffffffffffffffffffffffffffffffffffff16021790555050620002c7565b600060018054906101000a900473ffffffffffffffffffffffffffffffffffffffff169050816001806101000a81548173ffffffffffffffffffffffffffffffffffffffff021916908373ffffffffffffffffffffffffffffffffffffffff1602179055508173ffffffffffffffffffffffffffffffffffffffff168173ffffffffffffffffffffffffffffffffffffffff167f8be0079c531659141344cd1fd0a4f28419497f9722a3daafe3b4186f6b6457e060405160405180910390a35050565b600080fd5b600073ffffffffffffffffffffffffffffffffffffffff82169050919050565b60006200022f8262000202565b9050919050565b620002418162000222565b81146200024d57600080fd5b50565b600081519050620002618162000236565b92915050565b60006020828403121562000280576200027f620001fd565b5b6000620002908482850162000250565b91505092915050565b620002a48162000222565b82525050565b6000602082019050620002c1600083018462000299565b92915050565b61391f80620002d76000396000f3fe6080604052600436106101b75760003560e01c80638ad2d5a7116100ec578063d56d229d1161008a578063e61a70c011610064578063e61a70c01461059b578063e7fb74c7146105e1578063f2fde38b146105fd578063f3f4370314610626576101b7565b8063d56d229d14610519578063db8d55f114610544578063e1f4e72714610570576101b7565b8063a995bb19116100c6578063a995bb191461045b578063acb2ad6f14610486578063c0944da7146104b1578063c78f19f9146104ee576101b7565b80638ad2d5a7146103b65780638da5cb5b146103f35780639fcf1bd01461041e576101b7565b806345f8fa80116101595780636db79437116101335780636db7943714610343578063715018a61461036c5780638456cb5914610383578063883efa671461039a576101b7565b806345f8fa80146102c25780635c975abb146102ed5780635d9fe0ff14610318576101b7565b8063202e374011610195578063202e37401461024d57806320e6d9b7146102785780633ccfd60b146102945780633f4ba83a146102ab576101b7565b80630f08efe0146101bc57806310061631146101e7578063150b7a0214610210575b600080fd5b3480156101c857600080fd5b506101d1610663565b6040516101de91906129f4565b60405180910390f35b3480156101f357600080fd5b5061020e60048036038101906102099190612a56565b610956565b005b34801561021c57600080fd5b5061023760048036038101906102329190612b14565b610c1a565b6040516102449190612bd7565b60405180910390f35b34801561025957600080fd5b50610262610c2f565b60405161026f91906129f4565b60405180910390f35b610292600480360381019061028d9190612d33565b6110fa565b005b3480156102a057600080fd5b506102a96112a6565b005b3480156102b757600080fd5b506102c0611470565b005b3480156102ce57600080fd5b506102d7611482565b6040516102e491906129f4565b60405180910390f35b3480156102f957600080fd5b506103026117f7565b60405161030f9190612dc5565b60405180910390f35b34801561032457600080fd5b5061032d61180e565b60405161033a9190612def565b60405180910390f35b34801561034f57600080fd5b5061036a60048036038101906103659190612e0a565b611814565b005b34801561037857600080fd5b5061038161182e565b005b34801561038f57600080fd5b50610398611842565b005b6103b460048036038101906103af9190612e0a565b611854565b005b3480156103c257600080fd5b506103dd60048036038101906103d89190612a56565b611a03565b6040516103ea9190612e59565b60405180910390f35b3480156103ff57600080fd5b50610408611aa8565b6040516104159190612e59565b60405180910390f35b34801561042a57600080fd5b5061044560048036038101906104409190612e0a565b611ad0565b6040516104529190612def565b60405180910390f35b34801561046757600080fd5b50610470611b01565b60405161047d9190612def565b60405180910390f35b34801561049257600080fd5b5061049b611b0b565b6040516104a89190612def565b60405180910390f35b3480156104bd57600080fd5b506104d860048036038101906104d39190612a56565b611b11565b6040516104e59190612def565b60405180910390f35b3480156104fa57600080fd5b50610503611b35565b6040516105109190612def565b60405180910390f35b34801561052557600080fd5b5061052e611b3b565b60405161053b9190612ed3565b60405180910390f35b34801561055057600080fd5b50610559611b61565b604051610567929190612eee565b60405180910390f35b34801561057c57600080fd5b50610585611b72565b6040516105929190612def565b60405180910390f35b3480156105a757600080fd5b506105c260048036038101906105bd9190612a56565b611b78565b6040516105d89a99989796959493929190612f26565b60405180910390f35b6105fb60048036038101906105f69190612a56565b611c39565b005b34801561060957600080fd5b50610624600480360381019061061f9190612fc2565b612023565b005b34801561063257600080fd5b5061064d60048036038101906106489190612fc2565b6120a9565b60405161065a9190612def565b60405180910390f35b60606000805b6007805490508110156106de57600860006007838154811061068e5761068d612fef565b5b9060005260206000200154815260200190815260200160002060070160009054906101000a900460ff166106cb5781806106c79061304d565b9250505b80806106d69061304d565b915050610669565b5060008167ffffffffffffffff8111156106fb576106fa612c08565b5b60405190808252806020026020018201604052801561073457816020015b61072161274b565b8152602001906001900390816107195790505b5090506000805b60078054905081101561094c5760006007828154811061075e5761075d612fef565b5b906000526020600020015490506008600082815260200190815260200160002060070160009054906101000a900460ff1661093857600860008281526020019081526020016000206040518061014001604052908160008201548152602001600182015481526020016002820160009054906101000a900473ffffffffffffffffffffffffffffffffffffffff1673ffffffffffffffffffffffffffffffffffffffff1673ffffffffffffffffffffffffffffffffffffffff1681526020016003820160009054906101000a900473ffffffffffffffffffffffffffffffffffffffff1673ffffffffffffffffffffffffffffffffffffffff1673ffffffffffffffffffffffffffffffffffffffff1681526020016004820160009054906101000a900473ffffffffffffffffffffffffffffffffffffffff1673ffffffffffffffffffffffffffffffffffffffff1673ffffffffffffffffffffffffffffffffffffffff16815260200160058201548152602001600682015481526020016007820160009054906101000a900460ff161515151581526020016008820154815260200160098201548152505084848151811061091e5761091d612fef565b5b602002602001018190525082806109349061304d565b9350505b5080806109449061304d565b91505061073b565b5081935050505090565b61095e6120c1565b610966612107565b60006008600083815260200190815260200160002090503373ffffffffffffffffffffffffffffffffffffffff168160020160009054906101000a900473ffffffffffffffffffffffffffffffffffffffff1673ffffffffffffffffffffffffffffffffffffffff1614610a0f576040517f08c379a0000000000000000000000000000000000000000000000000000000008152600401610a06906130f2565b60405180910390fd5b8060070160009054906101000a900460ff1615610a61576040517f08c379a0000000000000000000000000000000000000000000000000000000008152600401610a589061315e565b60405180910390fd5b600260009054906101000a900473ffffffffffffffffffffffffffffffffffffffff1673ffffffffffffffffffffffffffffffffffffffff166342842e0e303384600101546040518463ffffffff1660e01b8152600401610ac49392919061317e565b600060405180830381600087803b158015610ade57600080fd5b505af1158015610af2573d6000803e3d6000fd5b505050506008600083815260200190815260200160002060008082016000905560018201600090556002820160006101000a81549073ffffffffffffffffffffffffffffffffffffffff02191690556003820160006101000a81549073ffffffffffffffffffffffffffffffffffffffff02191690556004820160006101000a81549073ffffffffffffffffffffffffffffffffffffffff0219169055600582016000905560068201600090556007820160006101000a81549060ff02191690556008820160009055600982016000905550503373ffffffffffffffffffffffffffffffffffffffff168160010154837fa71d01673ab40fa9e9c5091cf1b356ee673b9eccca541b0e12319a6e1ce7360c60405160405180910390a450610c17612148565b50565b600063150b7a0260e01b905095945050505050565b60606000805b600780549050811015610d9957600060078281548110610c5857610c57612fef565b5b906000526020600020015490506008600082815260200190815260200160002060070160009054906101000a900460ff168015610d7157503373ffffffffffffffffffffffffffffffffffffffff16600260009054906101000a900473ffffffffffffffffffffffffffffffffffffffff1673ffffffffffffffffffffffffffffffffffffffff16636352211e60086000858152602001908152602001600020600101546040518263ffffffff1660e01b8152600401610d189190612def565b602060405180830381865afa158015610d35573d6000803e3d6000fd5b505050506040513d601f19601f82011682018060405250810190610d5991906131ca565b73ffffffffffffffffffffffffffffffffffffffff16145b15610d85578280610d819061304d565b9350505b508080610d919061304d565b915050610c35565b5060008167ffffffffffffffff811115610db657610db5612c08565b5b604051908082528060200260200182016040528015610def57816020015b610ddc61274b565b815260200190600190039081610dd45790505b5090506000805b6007805490508110156110f057600060078281548110610e1957610e18612fef565b5b906000526020600020015490506008600082815260200190815260200160002060070160009054906101000a900460ff168015610f3257503373ffffffffffffffffffffffffffffffffffffffff16600260009054906101000a900473ffffffffffffffffffffffffffffffffffffffff1673ffffffffffffffffffffffffffffffffffffffff16636352211e60086000858152602001908152602001600020600101546040518263ffffffff1660e01b8152600401610ed99190612def565b602060405180830381865afa158015610ef6573d6000803e3d6000fd5b505050506040513d601f19601f82011682018060405250810190610f1a91906131ca565b73ffffffffffffffffffffffffffffffffffffffff16145b156110dc57600860008281526020019081526020016000206040518061014001604052908160008201548152602001600182015481526020016002820160009054906101000a900473ffffffffffffffffffffffffffffffffffffffff1673ffffffffffffffffffffffffffffffffffffffff1673ffffffffffffffffffffffffffffffffffffffff1681526020016003820160009054906101000a900473ffffffffffffffffffffffffffffffffffffffff1673ffffffffffffffffffffffffffffffffffffffff1673ffffffffffffffffffffffffffffffffffffffff1681526020016004820160009054906101000a900473ffffffffffffffffffffffffffffffffffffffff1673ffffffffffffffffffffffffffffffffffffffff1673ffffffffffffffffffffffffffffffffffffffff16815260200160058201548152602001600682015481526020016007820160009054906101000a900460ff16151515158152602001600882015481526020016009820154815250508484815181106110c2576110c1612fef565b5b602002602001018190525082806110d89061304d565b9350505b5080806110e89061304d565b915050610df6565b5081935050505090565b6111026120c1565b61110a612107565b6000811161114d576040517f08c379a000000000000000000000000000000000000000000000000000000000815260040161114490613243565b60405180910390fd5b60008311611190576040517f08c379a0000000000000000000000000000000000000000000000000000000008152600401611187906132af565b60405180910390fd5b8060045461119e91906132cf565b34146111df576040517f08c379a00000000000000000000000000000000000000000000000000000000081526004016111d69061335d565b60405180910390fd5b6000600260009054906101000a900473ffffffffffffffffffffffffffffffffffffffff1673ffffffffffffffffffffffffffffffffffffffff16636d74e2bd308785876040518563ffffffff1660e01b815260040161124294939291906133eb565b6000604051808303816000875af1158015611261573d6000803e3d6000fd5b505050506040513d6000823e3d601f19601f8201168201806040525081019061128a919061350f565b9050611297818533612152565b506112a0612148565b50505050565b6000600a60003373ffffffffffffffffffffffffffffffffffffffff1673ffffffffffffffffffffffffffffffffffffffff1681526020019081526020016000205490506000811161132d576040517f08c379a0000000000000000000000000000000000000000000000000000000008152600401611324906135a4565b60405180910390fd5b6000600a60003373ffffffffffffffffffffffffffffffffffffffff1673ffffffffffffffffffffffffffffffffffffffff1681526020019081526020016000208190555060003373ffffffffffffffffffffffffffffffffffffffff1682604051611398906135f5565b60006040518083038185875af1925050503d80600081146113d5576040519150601f19603f3d011682016040523d82523d6000602084013e6113da565b606091505b505090508061141e576040517f08c379a000000000000000000000000000000000000000000000000000000000815260040161141590613656565b60405180910390fd5b3373ffffffffffffffffffffffffffffffffffffffff167f884edad9ce6fa2440d8a54cc123490eb96d2768479d49ff9c7366125a9424364836040516114649190612def565b60405180910390a25050565b6114786124f4565b61148061257b565b565b60606000805b60078054905081101561153e573373ffffffffffffffffffffffffffffffffffffffff1660086000600784815481106114c4576114c3612fef565b5b9060005260206000200154815260200190815260200160002060020160009054906101000a900473ffffffffffffffffffffffffffffffffffffffff1673ffffffffffffffffffffffffffffffffffffffff160361152b5781806115279061304d565b9250505b80806115369061304d565b915050611488565b5060008167ffffffffffffffff81111561155b5761155a612c08565b5b60405190808252806020026020018201604052801561159457816020015b61158161274b565b8152602001906001900390816115795790505b5090506000805b6007805490508110156117ed576000600782815481106115be576115bd612fef565b5b906000526020600020015490503373ffffffffffffffffffffffffffffffffffffffff166008600083815260200190815260200160002060020160009054906101000a900473ffffffffffffffffffffffffffffffffffffffff1673ffffffffffffffffffffffffffffffffffffffff16036117d957600860008281526020019081526020016000206040518061014001604052908160008201548152602001600182015481526020016002820160009054906101000a900473ffffffffffffffffffffffffffffffffffffffff1673ffffffffffffffffffffffffffffffffffffffff1673ffffffffffffffffffffffffffffffffffffffff1681526020016003820160009054906101000a900473ffffffffffffffffffffffffffffffffffffffff1673ffffffffffffffffffffffffffffffffffffffff1673ffffffffffffffffffffffffffffffffffffffff1681526020016004820160009054906101000a900473ffffffffffffffffffffffffffffffffffffffff1673ffffffffffffffffffffffffffffffffffffffff1673ffffffffffffffffffffffffffffffffffffffff16815260200160058201548152602001600682015481526020016007820160009054906101000a900460ff16151515158152602001600882015481526020016009820154815250508484815181106117bf576117be612fef565b5b602002602001018190525082806117d59061304d565b9350505b5080806117e59061304d565b91505061159b565b5081935050505090565b6000600160009054906101000a900460ff16905090565b60035481565b61181c6124f4565b81600481905550806005819055505050565b6118366124f4565b61184060006125de565b565b61184a6124f4565b6118526126a1565b565b61185c6120c1565b611864612107565b600081116118a7576040517f08c379a000000000000000000000000000000000000000000000000000000000815260040161189e906132af565b60405180910390fd5b60045434146118eb576040517f08c379a00000000000000000000000000000000000000000000000000000000081526004016118e2906136c2565b60405180910390fd5b600260009054906101000a900473ffffffffffffffffffffffffffffffffffffffff1673ffffffffffffffffffffffffffffffffffffffff166342842e0e3330856040518463ffffffff1660e01b815260040161194a9392919061317e565b600060405180830381600087803b15801561196457600080fd5b505af1158015611978573d6000803e3d6000fd5b505050506000600167ffffffffffffffff81111561199957611998612c08565b5b6040519080825280602002602001820160405280156119c75781602001602082028036833780820191505090505b50905082816000815181106119df576119de612fef565b5b6020026020010181815250506119f6818333612152565b506119ff612148565b5050565b6000600260009054906101000a900473ffffffffffffffffffffffffffffffffffffffff1673ffffffffffffffffffffffffffffffffffffffff16636352211e836040518263ffffffff1660e01b8152600401611a609190612def565b602060405180830381865afa158015611a7d573d6000803e3d6000fd5b505050506040513d601f19601f82011682018060405250810190611aa191906131ca565b9050919050565b600060018054906101000a900473ffffffffffffffffffffffffffffffffffffffff16905090565b60096020528160005260406000208181548110611aec57600080fd5b90600052602060002001600091509150505481565b6000600654905090565b60055481565b60078181548110611b2157600080fd5b906000526020600020016000915090505481565b60045481565b600260009054906101000a900473ffffffffffffffffffffffffffffffffffffffff1681565b600080600454600554915091509091565b60065481565b60086020528060005260406000206000915090508060000154908060010154908060020160009054906101000a900473ffffffffffffffffffffffffffffffffffffffff16908060030160009054906101000a900473ffffffffffffffffffffffffffffffffffffffff16908060040160009054906101000a900473ffffffffffffffffffffffffffffffffffffffff16908060050154908060060154908060070160009054906101000a900460ff1690806008015490806009015490508a565b611c416120c1565b611c49612107565b60006008600083815260200190815260200160002090508060070160009054906101000a900460ff1615611cb2576040517f08c379a0000000000000000000000000000000000000000000000000000000008152600401611ca99061372e565b60405180910390fd5b80600501543414611cf8576040517f08c379a0000000000000000000000000000000000000000000000000000000008152600401611cef9061379a565b60405180910390fd5b600060646005548360050154611d0e91906132cf565b611d1891906137e9565b90506000606483600601548460050154611d3291906132cf565b611d3c91906137e9565b9050600081838560050154611d51919061381a565b611d5b919061381a565b90508260066000828254611d6f919061384e565b9250508190555080600a60008660020160009054906101000a900473ffffffffffffffffffffffffffffffffffffffff1673ffffffffffffffffffffffffffffffffffffffff1673ffffffffffffffffffffffffffffffffffffffff1681526020019081526020016000206000828254611de9919061384e565b9250508190555081600a60008660030160009054906101000a900473ffffffffffffffffffffffffffffffffffffffff1673ffffffffffffffffffffffffffffffffffffffff1673ffffffffffffffffffffffffffffffffffffffff1681526020019081526020016000206000828254611e63919061384e565b9250508190555082600a6000611e77611aa8565b73ffffffffffffffffffffffffffffffffffffffff1673ffffffffffffffffffffffffffffffffffffffff1681526020019081526020016000206000828254611ec0919061384e565b9250508190555060018460070160006101000a81548160ff021916908315150217905550338460040160006101000a81548173ffffffffffffffffffffffffffffffffffffffff021916908373ffffffffffffffffffffffffffffffffffffffff160217905550600260009054906101000a900473ffffffffffffffffffffffffffffffffffffffff1673ffffffffffffffffffffffffffffffffffffffff166342842e0e303387600101546040518463ffffffff1660e01b8152600401611f8a9392919061317e565b600060405180830381600087803b158015611fa457600080fd5b505af1158015611fb8573d6000803e3d6000fd5b505050503373ffffffffffffffffffffffffffffffffffffffff168460010154867f3b483ea77abd0ead8c58acb73bbf9cf17cbbccc839b9f29a697171edc986a083876005015460405161200c9190612def565b60405180910390a450505050612020612148565b50565b61202b6124f4565b600073ffffffffffffffffffffffffffffffffffffffff168173ffffffffffffffffffffffffffffffffffffffff160361209d5760006040517f1e4fbdf70000000000000000000000000000000000000000000000000000000081526004016120949190612e59565b60405180910390fd5b6120a6816125de565b50565b600a6020528060005260406000206000915090505481565b6002600054036120fd576040517f3ee5aeb500000000000000000000000000000000000000000000000000000000815260040160405180910390fd5b6002600081905550565b61210f6117f7565b15612146576040517fd93c066500000000000000000000000000000000000000000000000000000000815260040160405180910390fd5b565b6001600081905550565b60005b83518110156124ee57600084828151811061217357612172612fef565b5b60200260200101519050600080600080600260009054906101000a900473ffffffffffffffffffffffffffffffffffffffff1673ffffffffffffffffffffffffffffffffffffffff16638c7a63ae866040518263ffffffff1660e01b81526004016121de9190612def565b608060405180830381865afa1580156121fb573d6000803e3d6000fd5b505050506040513d601f19601f8201168201806040525081019061221f9190613882565b93509350935093506003600081548092919061223a9061304d565b9190505550600060405180610140016040528060035481526020018781526020018973ffffffffffffffffffffffffffffffffffffffff1681526020018373ffffffffffffffffffffffffffffffffffffffff1681526020013073ffffffffffffffffffffffffffffffffffffffff1681526020018a815260200184815260200160001515815260200186815260200185815250905080600860006003548152602001908152602001600020600082015181600001556020820151816001015560408201518160020160006101000a81548173ffffffffffffffffffffffffffffffffffffffff021916908373ffffffffffffffffffffffffffffffffffffffff16021790555060608201518160030160006101000a81548173ffffffffffffffffffffffffffffffffffffffff021916908373ffffffffffffffffffffffffffffffffffffffff16021790555060808201518160040160006101000a81548173ffffffffffffffffffffffffffffffffffffffff021916908373ffffffffffffffffffffffffffffffffffffffff16021790555060a0820151816005015560c0820151816006015560e08201518160070160006101000a81548160ff02191690831515021790555061010082015181600801556101208201518160090155905050600960008781526020019081526020016000206003549080600181540180825580915050600190039060005260206000200160009091909190915055600760035490806001815401808255809150506001900390600052602060002001600090919091909150558773ffffffffffffffffffffffffffffffffffffffff16866003547fdc9d79b0fe2198ceff7f76af9e05e2eacb3af07f0d4c913397475ab8bac771b88c6040516124cd9190612def565b60405180910390a450505050505080806124e69061304d565b915050612155565b50505050565b6124fc612703565b73ffffffffffffffffffffffffffffffffffffffff1661251a611aa8565b73ffffffffffffffffffffffffffffffffffffffff16146125795761253d612703565b6040517f118cdaa70000000000000000000000000000000000000000000000000000000081526004016125709190612e59565b60405180910390fd5b565b61258361270b565b6000600160006101000a81548160ff0219169083151502179055507f5db9ee0a495bf2e6ff9c91a7834c1ba4fdd244a5e8aa4e537bd38aeae4b073aa6125c7612703565b6040516125d49190612e59565b60405180910390a1565b600060018054906101000a900473ffffffffffffffffffffffffffffffffffffffff169050816001806101000a81548173ffffffffffffffffffffffffffffffffffffffff021916908373ffffffffffffffffffffffffffffffffffffffff1602179055508173ffffffffffffffffffffffffffffffffffffffff168173ffffffffffffffffffffffffffffffffffffffff167f8be0079c531659141344cd1fd0a4f28419497f9722a3daafe3b4186f6b6457e060405160405180910390a35050565b6126a9612107565b60018060006101000a81548160ff0219169083151502179055507f62e78cea01bee320cd4e420270b5ea74000d11b0c9f74754ebdbfc544b05a2586126ec612703565b6040516126f99190612e59565b60405180910390a1565b600033905090565b6127136117f7565b612749576040517f8dfc202b00000000000000000000000000000000000000000000000000000000815260040160405180910390fd5b565b6040518061014001604052806000815260200160008152602001600073ffffffffffffffffffffffffffffffffffffffff168152602001600073ffffffffffffffffffffffffffffffffffffffff168152602001600073ffffffffffffffffffffffffffffffffffffffff168152602001600081526020016000815260200160001515815260200160008152602001600081525090565b600081519050919050565b600082825260208201905092915050565b6000819050602082019050919050565b6000819050919050565b6128218161280e565b82525050565b600073ffffffffffffffffffffffffffffffffffffffff82169050919050565b600061285282612827565b9050919050565b61286281612847565b82525050565b600061287382612827565b9050919050565b61288381612868565b82525050565b60008115159050919050565b61289e81612889565b82525050565b610140820160008201516128bb6000850182612818565b5060208201516128ce6020850182612818565b5060408201516128e16040850182612859565b5060608201516128f46060850182612859565b506080820151612907608085018261287a565b5060a082015161291a60a0850182612818565b5060c082015161292d60c0850182612818565b5060e082015161294060e0850182612895565b50610100820151612955610100850182612818565b5061012082015161296a610120850182612818565b50505050565b600061297c83836128a4565b6101408301905092915050565b6000602082019050919050565b60006129a1826127e2565b6129ab81856127ed565b93506129b6836127fe565b8060005b838110156129e75781516129ce8882612970565b97506129d983612989565b9250506001810190506129ba565b5085935050505092915050565b60006020820190508181036000830152612a0e8184612996565b905092915050565b6000604051905090565b600080fd5b600080fd5b612a338161280e565b8114612a3e57600080fd5b50565b600081359050612a5081612a2a565b92915050565b600060208284031215612a6c57612a6b612a20565b5b6000612a7a84828501612a41565b91505092915050565b612a8c81612868565b8114612a9757600080fd5b50565b600081359050612aa981612a83565b92915050565b600080fd5b600080fd5b600080fd5b60008083601f840112612ad457612ad3612aaf565b5b8235905067ffffffffffffffff811115612af157612af0612ab4565b5b602083019150836001820283011115612b0d57612b0c612ab9565b5b9250929050565b600080600080600060808688031215612b3057612b2f612a20565b5b6000612b3e88828901612a9a565b9550506020612b4f88828901612a9a565b9450506040612b6088828901612a41565b935050606086013567ffffffffffffffff811115612b8157612b80612a25565b5b612b8d88828901612abe565b92509250509295509295909350565b60007fffffffff0000000000000000000000000000000000000000000000000000000082169050919050565b612bd181612b9c565b82525050565b6000602082019050612bec6000830184612bc8565b92915050565b600080fd5b6000601f19601f8301169050919050565b7f4e487b7100000000000000000000000000000000000000000000000000000000600052604160045260246000fd5b612c4082612bf7565b810181811067ffffffffffffffff82111715612c5f57612c5e612c08565b5b80604052505050565b6000612c72612a16565b9050612c7e8282612c37565b919050565b600067ffffffffffffffff821115612c9e57612c9d612c08565b5b612ca782612bf7565b9050602081019050919050565b82818337600083830152505050565b6000612cd6612cd184612c83565b612c68565b905082815260208101848484011115612cf257612cf1612bf2565b5b612cfd848285612cb4565b509392505050565b600082601f830112612d1a57612d19612aaf565b5b8135612d2a848260208601612cc3565b91505092915050565b60008060008060808587031215612d4d57612d4c612a20565b5b600085013567ffffffffffffffff811115612d6b57612d6a612a25565b5b612d7787828801612d05565b9450506020612d8887828801612a41565b9350506040612d9987828801612a41565b9250506060612daa87828801612a41565b91505092959194509250565b612dbf81612889565b82525050565b6000602082019050612dda6000830184612db6565b92915050565b612de98161280e565b82525050565b6000602082019050612e046000830184612de0565b92915050565b60008060408385031215612e2157612e20612a20565b5b6000612e2f85828601612a41565b9250506020612e4085828601612a41565b9150509250929050565b612e5381612868565b82525050565b6000602082019050612e6e6000830184612e4a565b92915050565b6000819050919050565b6000612e99612e94612e8f84612827565b612e74565b612827565b9050919050565b6000612eab82612e7e565b9050919050565b6000612ebd82612ea0565b9050919050565b612ecd81612eb2565b82525050565b6000602082019050612ee86000830184612ec4565b92915050565b6000604082019050612f036000830185612de0565b612f106020830184612de0565b9392505050565b612f2081612847565b82525050565b600061014082019050612f3c600083018d612de0565b612f49602083018c612de0565b612f56604083018b612f17565b612f63606083018a612f17565b612f706080830189612e4a565b612f7d60a0830188612de0565b612f8a60c0830187612de0565b612f9760e0830186612db6565b612fa5610100830185612de0565b612fb3610120830184612de0565b9b9a5050505050505050505050565b600060208284031215612fd857612fd7612a20565b5b6000612fe684828501612a9a565b91505092915050565b7f4e487b7100000000000000000000000000000000000000000000000000000000600052603260045260246000fd5b7f4e487b7100000000000000000000000000000000000000000000000000000000600052601160045260246000fd5b60006130588261280e565b91507fffffffffffffffffffffffffffffffffffffffffffffffffffffffffffffffff820361308a5761308961301e565b5b600182019050919050565b600082825260208201905092915050565b7f4f6e6c792073656c6c65722063616e2064656c69737400000000000000000000600082015250565b60006130dc601683613095565b91506130e7826130a6565b602082019050919050565b6000602082019050818103600083015261310b816130cf565b9050919050565b7f416c726561647920736f6c640000000000000000000000000000000000000000600082015250565b6000613148600c83613095565b915061315382613112565b602082019050919050565b600060208201905081810360008301526131778161313b565b9050919050565b60006060820190506131936000830186612e4a565b6131a06020830185612e4a565b6131ad6040830184612de0565b949350505050565b6000815190506131c481612a83565b92915050565b6000602082840312156131e0576131df612a20565b5b60006131ee848285016131b5565b91505092915050565b7f5175616e74697479206d757374206265206174206c6561737420310000000000600082015250565b600061322d601b83613095565b9150613238826131f7565b602082019050919050565b6000602082019050818103600083015261325c81613220565b9050919050565b7f5072696365206d757374206265203e2030000000000000000000000000000000600082015250565b6000613299601183613095565b91506132a482613263565b602082019050919050565b600060208201905081810360008301526132c88161328c565b9050919050565b60006132da8261280e565b91506132e58361280e565b92508282026132f38161280e565b9150828204841483151761330a5761330961301e565b5b5092915050565b7f496e636f727265637420746f74616c206c697374696e67206665650000000000600082015250565b6000613347601b83613095565b915061335282613311565b602082019050919050565b600060208201905081810360008301526133768161333a565b9050919050565b600081519050919050565b60005b838110156133a657808201518184015260208101905061338b565b60008484015250505050565b60006133bd8261337d565b6133c78185613095565b93506133d7818560208601613388565b6133e081612bf7565b840191505092915050565b60006080820190506134006000830187612e4a565b818103602083015261341281866133b2565b90506134216040830185612de0565b61342e6060830184612de0565b95945050505050565b600067ffffffffffffffff82111561345257613451612c08565b5b602082029050602081019050919050565b60008151905061347281612a2a565b92915050565b600061348b61348684613437565b612c68565b905080838252602082019050602084028301858111156134ae576134ad612ab9565b5b835b818110156134d757806134c38882613463565b8452602084019350506020810190506134b0565b5050509392505050565b600082601f8301126134f6576134f5612aaf565b5b8151613506848260208601613478565b91505092915050565b60006020828403121561352557613524612a20565b5b600082015167ffffffffffffffff81111561354357613542612a25565b5b61354f848285016134e1565b91505092915050565b7f4e6f7468696e6720746f20776974686472617700000000000000000000000000600082015250565b600061358e601383613095565b915061359982613558565b602082019050919050565b600060208201905081810360008301526135bd81613581565b9050919050565b600081905092915050565b50565b60006135df6000836135c4565b91506135ea826135cf565b600082019050919050565b6000613600826135d2565b9150819050919050565b7f5769746864726177206661696c65640000000000000000000000000000000000600082015250565b6000613640600f83613095565b915061364b8261360a565b602082019050919050565b6000602082019050818103600083015261366f81613633565b9050919050565b7f4c697374696e6720666565207265717569726564000000000000000000000000600082015250565b60006136ac601483613095565b91506136b782613676565b602082019050919050565b600060208201905081810360008301526136db8161369f565b9050919050565b7f4974656d20616c726561647920736f6c64000000000000000000000000000000600082015250565b6000613718601183613095565b9150613723826136e2565b602082019050919050565b600060208201905081810360008301526137478161370b565b9050919050565b7f57726f6e672045544820616d6f756e7400000000000000000000000000000000600082015250565b6000613784601083613095565b915061378f8261374e565b602082019050919050565b600060208201905081810360008301526137b381613777565b9050919050565b7f4e487b7100000000000000000000000000000000000000000000000000000000600052601260045260246000fd5b60006137f48261280e565b91506137ff8361280e565b92508261380f5761380e6137ba565b5b828204905092915050565b60006138258261280e565b91506138308361280e565b92508282039050818111156138485761384761301e565b5b92915050565b60006138598261280e565b91506138648361280e565b925082820190508082111561387c5761387b61301e565b5b92915050565b6000806000806080858703121561389c5761389b612a20565b5b60006138aa87828801613463565b94505060206138bb87828801613463565b93505060406138cc87828801613463565b92505060606138dd878288016131b5565b9150509295919450925056fea264697066735822122030240c6ccebeb9a3df39da86aad65dd5e3a5e08133f386f16ddeaaf13ba3ebca64736f6c63430008140033",
  "linkReferences": {},
  "deployedLinkReferences": {}
}